:100000000C9444010C9475010C9475010C947501C9
:100010000C9475010C9475010C9475010C94750188
:100020000C9475010C9475010C9475010C94750178
:100030000C9475010C9475010C9475010C94750168
:100040000C9475010C9475010C9475010C94750158
:100050000C9475010C9475010C9475010C94560662
:100060000C9475010C942A070C9400070C947501EC
:100070000C9475010C9475010C9475010C94750128
:100080000C9475010C9475010C9475010C94750118
:100090000C94CA060C94A0060C9475010C9475017E
:1000A0000C9475010C9475010C9475010C947501F8
:1000B0000C9475010C9475010C9475010C947501E8
:1000C0000C9475010C9475010C9475010C947501D8
:1000D0000C9475010C9475010C9475010C947501C8
:1000E0000C9475010C9464020C9455020C94430614
:1000F0000C945D020C9470040C94080B0C94610237
:100100000C9494020C948F020C948A020C94860333
:100110000C947C020C9478020C9459020C94710497
:100120000C9436030C9474020C942F030C942B0340
:100130000C9463030C9482020C94D6030C94600715
:100140000C946E020C9494030C9490020C9423046F
:100150000C946A020C9472030C9486020C94330380
:100160000C944F0200002100240027002A002D00DB
:100170003000330001010000040107010A01000002
:100180002200250028002B002E003100340002013F
:100190000000050108010B010000200023002600DB
:1001A00029002C002F00320000010000030106018D
:1001B00009010505050507050808080802020202ED
:1001C0000A0A0808040404040101010101010101F3
:1001D0000303030303030303040707070C0C0C0CBE
:1001E0000C0C0C0C020202020606060606060606A7
:1001F0000B0B0B0B0B0B0B0B010210202008081034
:100200002040102040800201020108040201010286
:10021000040810204080804020100804020180045F
:1002200002018040201008040201080402010102BA
:1002300004081020408001020408102040800000C3
:100240000A0B02090C0D0E08070304010000000050
:10025000000000000000000000000000000000009E
:10026000000000000000000000001211100000005B
:10027000000000000000000000000000000000007E
:10028000000000006007080B11241FBECFEFD1E271
:10029000DEBFCDBF00E00CBF24E0A2E5B2E001C0AC
:1002A0001D92AE37B207E1F712E0A0E0B2E0E2E85B
:1002B000FAE100E00BBF02C007900D92A235B10732
:1002C000D9F711E0C3E4D1E000E006C021970109AD
:1002D000802FFE010E94110BC234D10780E0080775
:1002E000A9F70E940E090C942F0D0C940000FC013C
:1002F000A089B18982E08C93A485B5851C92A685DE
:10030000B7858FEC8C93108EA489B58986E08C9389
:10031000A289B3898C9180618C93A289B3898C91D5
:1003200088608C93A289B3898C9180688C930288B1
:10033000F389E02D80818F7D8083089596E0899FE9
:10034000D0011124A556BC4F90967C936E935F9775
:1003500091E091969C939197E0910804F0910904A3
:1003600090910704992339F0309751F0811108C01A
:100370008091B7031994309719F05C968C91FACF5D
:100380000895CF92DF92EF92FF920F931F9396E022
:10039000899FF0011124E556FC4F11A2278D30A151
:1003A0002130310551F178F02230310509F451C086
:1003B0002330310509F452C01F910F91FF90EF9047
:1003C000DF90CF9008956623B9F361E070E00E945A
:1003D0009E012FB7F8948091570290915802A091F6
:1003E0005902B0915A022FBF8093F3039093F40304
:1003F000A093F503B093F603DFCF9FB7F894C090B6
:100400005702D0905802E0905902F0905A029FBFD4
:100410000091F3031091F4032091F5033091F6035A
:10042000C01AD10AE20AF30A0091050410910604E9
:1004300030E020E00C151D052E053F0550F462E06C
:1004400070E01F910F91FF90EF90DF90CF900C9490
:100450009E016111B1CF63E070E0F3CF70E060E026
:10046000F0CF8150823108F05AC0E82FF0E08827A1
:10047000E35CFD4F8F4F0C94110B5D0261024F0244
:10048000550259028F0264026A026E0274027802F7
:100490007C02820286028F028A029002940280917C
:1004A00080008F77809380000895809180008F7DF9
:1004B000F9CF80918000877FF5CF84B58F7784BD99
:1004C000089584B58F7DFBCF8091B0008F778093A6
:1004D000B00008958091B0008F7DF9CF8091900099
:1004E0008F77809390000895809190008F7DF9CF51
:1004F00080919000877FF5CF8091A0008F778093C7
:10050000A00008958091A0008F7DF9CF8091A00078
:10051000877FF5CF809120018F7780932001089508
:10052000809120018F7DF9CF80912001877FF5CFC9
:10053000CF93DF93282F30E0F901E25CFD4F8491E7
:10054000F901E850FE4FD491F901EE54FE4FC491E9
:10055000CC23A1F081110E943102EC2FF0E0EE0FCC
:10056000FF1FE856FE4FA591B491EC91ED2381E079
:1005700090E009F480E0DF91CF91089580E090E071
:10058000FACF1F93CF93DF93282F30E0F901E25C7D
:10059000FD4F8491F901E850FE4FD491F901EE54DA
:1005A000FE4FC491CC23A9F0162F81110E94310275
:1005B000EC2FF0E0EE0FFF1FE258FE4FA591B49133
:1005C0008FB7F894EC91111108C0D095DE23DC931D
:1005D0008FBFDF91CF911F910895DE2BF8CFCF937E
:1005E000DF9390E0FC01E850FE4F24918E549E4F23
:1005F000FC0184918823C9F090E0880F991FFC01C9
:10060000EC59FE4FA591B491FC01E258FE4FC59103
:10061000D49161110DC09FB7F8948C9120958223DD
:100620008C938881282328839FBFDF91CF910895E1
:10063000623051F49FB7F8943C91822F80958323C8
:100640008C93E8812E2BEFCF8FB7F894EC912E2B63
:100650002C938FBFEACF862F642F0C94EF02862F46
:10066000642F0C94C102862F0C949802AF92BF9213
:10067000CF92DF92EF92FF920F931F93CF93DF936E
:100680006C017B018B01040F151FEB015E01AE189D
:10069000BF08C017D10759F06991D601ED91FC91BF
:1006A0000190F081E02DC6011995892B79F7C501DC
:1006B000DF91CF911F910F91FF90EF90DF90CF903E
:1006C000BF90AF900895FC01538D448D252F30E0ED
:1006D000842F90E0821B930B541710F0CF9608954F
:1006E00001970895FC01918D828D981761F0A28D7C
:1006F000AE0FBF2FB11D5D968C91928D9F5F9F7342
:10070000928F90E008958FEF9FEF0895FC01918DF7
:10071000828D981731F0828DE80FF11D858D90E064
:1007200008958FEF9FEF0895FC01918D228D892F01
:1007300090E0805C9F4F821B91098F7399270895E9
:100740008BE592E00E94940321E0892B09F420E0DC
:10075000822F089588EF92E00E94940321E0892B74
:1007600009F420E0822F0895FC01A48DA80FB92F71
:10077000B11DA35ABF4F2C91848D90E001968F73C9
:100780009927848FA689B7892C93A089B1898C91E8
:10079000837080648C93938D848D981306C0028837
:1007A000F389E02D80818F7D80830895EF92FF9201
:1007B0000F931F93CF93DF93EC0181E0888F9B8D84
:1007C0008C8D98131AC0E889F989808185FF15C03E
:1007D0009FB7F894EE89FF896083E889F989808161
:1007E0008370806480839FBF81E090E0DF91CF9130
:1007F0001F910F91FF90EF900895F62E0B8D10E052
:100800000F5F1F4F0F731127E02E8C8D8E110CC0C0
:100810000FB607FCFACFE889F989808185FFF5CF0B
:10082000CE010E94B403F1CFEB8DEC0FFD2FF11D33
:10083000E35AFF4FF0829FB7F8940B8FEA89FB8948
:1008400080818062CFCFCF93DF93EC01888D8823A6
:10085000B9F0AA89BB89E889F9898C9185FD03C023
:10086000808186FD0DC00FB607FCF7CF8C9185FF08
:10087000F2CF808185FFEDCFCE010E94B403E9CF96
:10088000DF91CF91089580E090E0892B29F00E94BC
:10089000AA0381110E94000080E090E0892B29F0DA
:1008A0000E94A00381110E94000080E090E0892B4B
:1008B00049F080E090E0892B29F00E94000081112E
:1008C0000E94000080E090E0892B49F080E090E0F9
:1008D000892B29F00E94000081110C9400000895DA
:1008E000089590E080E00895CF92DF92EF92FF921A
:1008F0000F931F93CF93DF931F921F92CDB7DEB755
:1009000069834A83880F991F0091780410917904B4
:10091000000F111FE2E2F4E09F0122523440201741
:10092000310714F41192F8CF2981FC01EE5DFB4FE1
:1009300021838A81808360E0809176040E94C102D5
:100940001016110604F501501109F801EE5DFB4F78
:10095000E080D0907404C090720488E0F82E6E2D70
:10096000661F6627661F8C2D0E94C102EE0C61E097
:100970008D2D0E94C10260E08D2D0E94C102FA946B
:10098000F110EDCFDDCF61E0809176040F900F90F4
:10099000DF91CF911F910F91FF90EF90DF90CF905B
:1009A0000C94C102EF92FF920F931F93CF937C019F
:1009B0008C0183E0000F111F8A95E1F70E5C1B4F3D
:1009C000C1E0F80111928F0140E06C2FC7010E9435
:1009D0007404CF5FC930A9F7CF911F910F91FF9099
:1009E000EF900895CF93DF93EC0160E08E810E9439
:1009F000C10261E08E810E94C10260E08E810E948E
:100A0000C1028BE891E00197F1F7DF91CF91089552
:100A1000CF92DF92EF92FF920F931F93CF93DF93CA
:100A20006C017C0187E0E80EF11CD0E0C0E0062FED
:100A300010E0B8010C2E02C0759567950A94E2F794
:100A40006170F70181917F010E94C1022196C4303B
:100A5000D10579F7C601DF91CF911F910F91FF90DA
:100A6000EF90DF90CF900C94F204CF92DF92EF9250
:100A7000FF920F931F93CF93DF93EC01F62E642F19
:100A80008C810E94C1028D818F3F19F060E00E942D
:100A9000C1020F2D10E08F8584FF25C06E0187E015
:100AA000C80ED11CF12CE12CB8010E2C02C075959A
:100AB00067950A94E2F76170F60181916F010E94D7
:100AC000C102FFEFEF1AFF0A88E0E816F10461F7B0
:100AD000CE01DF91CF911F910F91FF90EF90DF90AA
:100AE000CF900C94F204B80184E0759567958A95CF
:100AF000E1F7CE010E9408056F2DCE01DF91CF9165
:100B00001F910F91FF90EF90DF90CF900C9408050C
:100B1000CF93DF93823029F49091190498609093D9
:100B2000190480931D0410921E0480E480931F0416
:100B300080E18093200480E58093210461E080912E
:100B40000E040E94EF0280910F048F3F19F061E0C4
:100B50000E94EF0261E0809110040E94EF02CAE05F
:100B6000D4E09E012A5034408091190484FD0BC0CA
:100B700084E090E021962817390744F461E08E81E3
:100B80000E94EF02EECF88E090E0F4CF8BE39DE08F
:100B90000197F1F760E080910E040E94C10260E0CD
:100BA000809110040E94C10280910F048F3F19F0C0
:100BB00060E00E94C1026091190464FD45C063E0D9
:100BC0008AE094E00E940805CBE4D6E4CE010197C8
:100BD000F1F763E08AE094E00E9408052197F1F7BD
:100BE00063E08AE094E00E94080583E592E00197C3
:100BF000F1F762E08AE094E00E9408056091190430
:100C0000606240E08AE094E00E94350584E08093D1
:100C10001A0440E06CE08AE094E00E94350540E070
:100C200061E08AE094E00E9435058BE39FE1019743
:100C3000F1F782E080931B0440E066E08AE094E0F4
:100C4000DF91CF910C943505606240E08AE094E03A
:100C50000E9435058BE496E40197F1F76091190441
:100C6000606240E08AE094E00E94350583E592E00E
:100C70000197F1F760911904606240E08AE094E026
:100C80000E943505BBCF41E00E94350581E090E030
:100C90000895FC0101900020E9F73197AF01481B4E
:100CA000590BBC0188EF92E00C9436031F920F920F
:100CB0000FB60F9211242F933F938F939F93AF936F
:100CC000BF938091570290915802A0915902B09120
:100CD0005A023091560223E0230F2D3758F5019622
:100CE000A11DB11D20935602809357029093580284
:100CF000A0935902B0935A028091520290915302EC
:100D0000A0915402B09155020196A11DB11D80938E
:100D1000520290935302A0935402B0935502BF9194
:100D2000AF919F918F913F912F910F900FBE0F9098
:100D30001F90189526E8230F0296A11DB11DD2CF52
:100D40001F920F920FB60F9211240BB60F922F9392
:100D50003F934F935F936F937F938F939F93AF9343
:100D6000BF93EF93FF938BE592E00E94B403FF9152
:100D7000EF91BF91AF919F918F917F916F915F9113
:100D80004F913F912F910F900BBE0F900FBE0F9080
:100D90001F9018951F920F920FB60F9211240BB649
:100DA0000F922F938F939F93EF93FF93E0916B029A
:100DB000F0916C028081E0917102F091720282FDEB
:100DC0001DC09081809174028F5F8F732091750296
:100DD000821741F0E0917402F0E0E55AFD4F958FE3
:100DE00080937402FF91EF919F918F912F910F90BB
:100DF0000BBE0F900FBE0F901F9018958081F2CF01
:100E00001F920F920FB60F9211240BB60F922F93D1
:100E10003F934F935F936F937F938F939F93AF9382
:100E2000BF93EF93FF9388EF92E00E94B403FF918A
:100E3000EF91BF91AF919F918F917F916F915F9152
:100E40004F913F912F910F900BBE0F900FBE0F90BF
:100E50001F9018951F920F920FB60F9211240BB688
:100E60000F922F938F939F93EF93FF93E09108033B
:100E7000F09109038081E0910E03F0910F0382FD50
:100E80001DC09081809111038F5F8F732091120399
:100E9000821741F0E0911103F0E0E850FD4F958F8B
:100EA00080931103FF91EF919F918F912F910F905C
:100EB0000BBE0F900FBE0F901F9018958081F2CF40
:100EC000CF93DF9310925E0210925D0248EE53E0E2
:100ED00060E070E040935F025093600260936102B3
:100EE000709362028DE192E090935C0280935B02CA
:100EF0002DEC30E030936802209367022CEC30E058
:100F000030936A022093690228EC30E030936C023F
:100F100020936B0229EC30E030936E0220936D0237
:100F20002AEC30E03093700220936F022EEC30E018
:100F30003093720220937102109274021092750223
:100F400010927602109277021092FB021092FA022F
:100F50004093FC025093FD026093FE027093FF02E7
:100F60009093F9028093F80285EC90E0909305034A
:100F70008093040384EC90E090930703809306032E
:100F800080EC90E0909309038093080381EC90E05B
:100F900090930B0380930A0382EC90E090930D03EF
:100FA00080930C0386EC90E090930F0380930E03E4
:100FB0001092110310921203109213031092140353
:100FC000C8E1D0E0D0937304C093720486E190E04E
:100FD000909375048093740487E190E09093770474
:100FE0008093760484E090E0909379048093780471
:100FF00061E088E10E94EF0261E0809174040E9448
:10100000EF0261E0809176040E94EF0261E080913E
:1010100076040E94C102D0937304C0937204E2E389
:10102000F4E082E794E011928E179F07E1F7D0E099
:10103000C0E08091780490917904C817D90774F5BD
:1010400040E06FE0CE010E9474048091780490919A
:101050007904C817D9072CF447E06BE0CE010E9451
:10106000740440E069E0CE010E9474048091780429
:1010700090917904C817D9071CF4CE010E94D204BC
:101080008091780490917904C817D9072CF440E036
:101090006CE0CE010E9474042196CBCF10920D0417
:1010A00010920C0489E392E090930B0480930A045D
:1010B00083E280930E048FEF80930F0484E2809389
:1010C000100485E28093110486E28093120487E283
:1010D0008093130488E280931404109215041092F4
:1010E000160410921704109218041092190481E04B
:1010F0000E94880510929D031092A1031092A003F4
:101100001092A2038FE292E090939C0380939B0342
:10111000E7EBF3E01082148213821582369683E0A7
:10112000E33FF807B9F783E092E09093FE038093E2
:10113000FD0380E092E0909300048093FF0384E03D
:101140008093010483E08093020487E092E090930F
:10115000FC038093FB038AE090E090930404809367
:10116000030484EF91E090930604809305041092A9
:101170000904109208041092F7031092F8031092D9
:10118000F9031092FA03109207041092960310923A
:101190009503109298031092970310929A0310925D
:1011A000990361E070E090E080E00E943E0C0097BF
:1011B000F1F0909396038093950310929803109208
:1011C00097032091990330919A03232B11F4FC018A
:1011D000108210929A031092990361E572E0809157
:1011E000950390919603DF91CF910C94280D8091F7
:1011F000950390919603009711F00E94B50B109201
:1012000096031092950310929A03109299031092EC
:10121000980310929703DF91CF910895789484B545
:10122000826084BD84B5816084BD85B5826085BDE2
:1012300085B5816085BD80916E00816080936E0070
:101240001092810080918100826080938100809162
:101250008100816080938100809180008160809313
:1012600080008091B10084608093B1008091B000D3
:1012700081608093B00080919100826080939100A2
:1012800080919100816080939100809190008160B5
:10129000809390008091A10082608093A100809152
:1012A000A10081608093A1008091A0008160809363
:1012B000A000809121018260809321018091210111
:1012C00081608093210180912001816080932001C1
:1012D00080917A00846080937A0080917A008260A5
:1012E00080937A0080917A00816080937A00809167
:1012F0007A00806880937A001092C10088EF92E0B3
:101300000E9477018BE592E00E947701D0E0C0E077
:101310008091780490917904C817D90710F5D7FD0A
:101320001EC0C817D9072CF441E06CE0CE010E9422
:1013300074048091780490917904C817D9072CF42B
:101340004FE06AE0CE010E9474048091780490918D
:101350007904C817D9071CF4CE010E94D204219643
:10136000D7CF82E00E94880581E492E00E9449067E
:101370008FE492E00E94490644244394812C912CEE
:101380005401839466246A94762C56E0552E40923C
:1013900007048FB7F894409157025091580260911A
:1013A000590270915A028FBF8091F7039091F80310
:1013B000A091F903B091FA03481B590B6A0B7B0B00
:1013C0008091030490910404B0E0A0E08417950795
:1013D000A607B70708F00EC1C0E080910104C81746
:1013E00060F4E091FD03F091FE03EC0FF11D62E06B
:1013F00080810E94EF02CF5FF0CF312C80910204F8
:10140000381608F05FC0032D10E0E091FF03F09163
:101410000004E00FF11F61E080810E94EF02E09183
:10142000FF03F0910004E00FF11F60E080810E9453
:10143000C102D501C401032C04C0880F991FAA1F43
:10144000BB1F0A94D2F76C017C01E094F094212C2C
:10145000809101042816F8F4C22DD0E0E091FD033C
:10146000F091FE03EC0FFD1F80810E9498022496EC
:10147000CC0FDD1FC556DC4F892B41F48881998143
:101480008C299D29998388832394E2CF888199812F
:101490008E219F21F7CFE091FF03F0910004E00F30
:1014A000F11F61E080810E94C1028091FF03909151
:1014B0000004080F191F60E0F80180810E94EF020C
:1014C00033949CCF0BE913E0E8018F8D98A1892B11
:1014D00021F41C8E7E8E6D8E19A22696F3E0C73DF8
:1014E000DF0799F7D12C80910104D81608F052C07B
:1014F000C12CED2CF12CEE0CFF1CC7018D559C4F1F
:101500007C0120910204C21608F042C0F7016081FC
:1015100071810C2C02C0769567950A94E2F7D29EF1
:10152000900111242C0D311DEBE9F3E080E0458D95
:10153000568D2417350709F469C08F5F36968A30B7
:10154000B1F760FF23C0EBE9F3E090E080E0448D69
:10155000411117C0E091FB03F091FC03E20FF31F70
:101560004081589EF001599EF00D1124E556FC4F24
:10157000448F368F258F10A2178E61E00E94C10123
:1015800005C0019636968A30910509F7C394B9CF04
:10159000D394A9CF80E0F80191A19111892F0A5F1E
:1015A0001F4FC017D107B9F79FB7F8944091570262
:1015B000509158026091590270915A029FBF409316
:1015C000F7035093F8036093F9037093FA038823A9
:1015D00089F08091BC03882369F08091BA039091CF
:1015E000BB03019739F46091B703611106C00E94F3
:1015F0004304CDCE10920704FACF88EF92E00E9408
:10160000D6038FE492E00E944906F1CF6170B6CF15
:101610008091950390919603009711F00C94B50B6F
:101620000895EE0FFF1F881F8BBF0790F691E02DE6
:1016300019940F931F93CF93DF938230910510F489
:1016400082E090E0E0917C04F0917D0430E020E0C5
:10165000B0E0A0E0309799F42115310509F44AC0B3
:10166000281B390B24303105D8F58A819B816115FF
:10167000710589F1FB0193838283FE0111C04081D2
:1016800051810281138148175907E0F04817590723
:1016900099F4109761F012960C93129713961C937D
:1016A0003296CF01DF91CF911F910F910895009352
:1016B0007C0410937D04F4CF2115310551F04217BD
:1016C000530738F0A901DB019A01BD01DF01F801E0
:1016D000C1CFEF01F9CF90937D0480937C04CDCFEF
:1016E000FE01E20FF31F8193919322503109398358
:1016F0002883D7CF20917A0430917B04232B41F4A7
:10170000209115023091160230937B0420937A04C5
:1017100020911302309114022115310541F42DB7A7
:101720003EB74091170250911802241B350BE091EF
:101730007A04F0917B04E217F307A0F42E1B3F0B11
:101740002817390778F0AC014E5F5F4F2417350733
:1017500048F04E0F5F1F50937B0440937A048193AF
:1017600091939FCFF0E0E0E09CCFCF93DF93009781
:10177000E9F0FC01329713821282A0917C04B091AF
:101780007D04ED0130E020E01097A1F4208131814B
:10179000820F931F20917A0430917B042817390718
:1017A00009F061C0F0937B04E0937A04DF91CF915C
:1017B0000895EA01CE17DF07E8F54A815B819E01B3
:1017C00041155105B1F7E901FB83EA83499159912C
:1017D000C40FD51FEC17FD0761F48081918102963B
:1017E000840F951FE90199838883828193819B836C
:1017F0008A83F0E0E0E012968D919C911397009718
:10180000B9F52D913C911197CD010296820F931F4E
:1018100020917A0430917B042817390739F63097E4
:1018200051F510927D0410927C04B0937B04A09338
:101830007A04BCCFD383C28340815181840F951F2A
:10184000C817D90761F44E5F5F4F88819981480FAF
:10185000591F518340838A819B8193838283211501
:10186000310509F0B0CFF0937D04E0937C049ECF66
:10187000FD01DC01C0CF13821282D7CF4F925F925D
:101880006F927F928F929F92AF92BF92CF92DF9290
:10189000EF92FF920F931F93CF93DF938C010097EA
:1018A00099F4CB01DF91CF911F910F91FF90EF90B1
:1018B000DF90CF90BF90AF909F908F907F906F9070
:1018C0005F904F900C94190BFC01E60FF71F9C01E1
:1018D00022503109E217F30708F4AEC0D901CD91C7
:1018E000DC911197C617D70720F1C530D10578F0E4
:1018F000CE0104978617970750F0C61BD70B229787
:10190000C193D1936D937C93CF010E94B50BC80115
:10191000DF91CF911F910F91FF90EF90DF90CF90CB
:10192000BF90AF909F908F907F906F905F904F90FF
:1019300008955B01AC1ABD0A4C018C0E9D1EA0914E
:101940007C04B0917D04512C412CF12CE12C10979A
:1019500031F580917A0490917B048815990509F0FE
:101960005CC04616570608F058C08091130290914B
:101970001402009741F48DB79EB740911702509121
:101980001802841B950BE817F90708F055C0F0936F
:101990007B04E0937A04F90171836083B8CF8D9161
:1019A0009C91119712966C90129713967C901397B6
:1019B000A815B90559F56C0142E0C40ED11CCA1432
:1019C000DB0420F1AC014A195B09DA011296159784
:1019D00080F06282738251834083D9016D937C933E
:1019E000E114F10471F0D7011396FC93EE93129772
:1019F0008ECF22968C0F9D1FF90191838083F30176
:101A0000EFCFF0937D04E0937C0481CF4816590614
:101A100008F42C017D01D3019ACFCB010E94190B50
:101A20007C01009749F0AE01B8010E941F0DC8016A
:101A30000E94B50B87016BCF10E000E068CFFB017F
:101A4000DC0102C001900D9241505040D8F708953A
:101A5000FB01DC0101900D920020E1F7089511E0F7
:101A6000C3E4D1E000E006C0802FFE010E94110B0C
:101A70002196011DC434D10780E00807A9F7F89426
:021A8000FFCF96
:101A82000608070504030231323334353637383954
:101A92002A302300007E04800000000000D60336B6
:101AA2000363032304940372038603000000002BE4
:101AB200032F033303000000004306360371047052
:101AC20004496E6963696F205465636C6173000D2C
:021AD2000A0008
:00000001FF
