:100000000C942E010C945F010C945F010C945F0121
:100010000C945F010C945F010C945F010C945F01E0
:100020000C945F010C945F010C945F010C945F01D0
:100030000C945F010C945F010C945F010C945F01C0
:100040000C945F010C945F010C945F010C945F01B0
:100050000C945F010C945F010C945F010C942E05CD
:100060000C945F010C94A2050C9478050C945F012C
:100070000C945F010C945F010C945F010C945F0180
:100080000C945F010C945F010C945F010C945F0170
:100090000C945F010C945F010C945F010C945F0160
:1000A0000C945F010C945F010C945F010C945F0150
:1000B0000C945F010C945F010C945F010C945F0140
:1000C0000C945F010C945F010C945F010C945F0130
:1000D0000C945F010C945F010C945F010C945F0120
:1000E0000C945F010C94B5010C94EA010C94F4019A
:1000F0000C94DC010C9440030C94EF020C94B001BE
:100100000C9441030C9406020C945C020C94D601EE
:100110000C94FC010C94CB010C946A020C943902EF
:100120000C94E0010C94EE010C94D3010C94F801B2
:100130000C94C7010C94E6010C9402020C940C027E
:100140000C94CF010C94D8050C9400050C94480233
:100150000C94A20200000A0B02090C0D0E08070302
:10016000040100000000000000000000000000008A
:10017000000000000000000000000000000000007F
:10018000121110000000000000000000000000003C
:100190000000000000000000000000002200250018
:1001A00028002B002E003100340002010000050160
:1001B00008010B0100002100240027002A002D0067
:1001C0003000330001010000040107010A010505A8
:1001D0000505070508080808020202020A0A0808BD
:1001E00004040404010101010101010103030303EB
:1001F00003030303040707070C0C0C0C0C0C0C0C7A
:100200000202020206060606060606060B0B0B0B8A
:100210000B0B0B0B010210202008081020401020AF
:1002200040800201020108040201010204081020BA
:1002300040808040201008040201800402018040B8
:100240002010080402010804020101020408102021
:1002500040800102040810204080D80511241FBEF0
:10026000CFEFD1E2DEBFCDBF00E00CBF23E0AAE3B9
:10027000B2E001C01D92A635B207E1F712E0A0E09E
:10028000B2E0E0E8F4E100E00BBF02C007900D929D
:10029000AA33B107D9F711E0CEE2D1E000E006C001
:1002A00021970109802FFE010E942008CD32D1073D
:1002B00080E00807A9F70E94B4060C943E0A0C944B
:1002C000000090E0FC01EC5EFD4F249182539E4FB4
:1002D000FC018491882399F090E0880F991FFC011C
:1002E000EC54FE4FA591B491FC01E656FE4F85916A
:1002F00094918FB7F894EC91E22BEC938FBF089513
:10030000282F30E0F901EC5AFE4F9491F901EC5E90
:10031000FD4F449122533E4FF9012491222309F4C9
:1003200035C0992311F191509231F8F4E92FF0E0A2
:100330008827E256FE4F8F4F0C942008CF01D3013F
:10034000B001C701CB01B501D601DC01E001E60136
:10035000EA01EE01F401F801B501FC010202060216
:10036000809180008F7780938000E22FF0E0EE0F85
:10037000FF1FE656FE4FA591B4918FB7F894EC910C
:10038000611148C040954E234C938FBF08958091D2
:1003900080008F7DE8CF80918000877FE4CF84B597
:1003A0008F7784BDE2CF84B58F7DFBCF8091B00085
:1003B0008F778093B000D9CF8091B0008F7DF9CF37
:1003C000809190008F7780939000CFCF80919000A4
:1003D0008F7DF9CF80919000877FF5CF8091A0002D
:1003E0008F778093A000C1CF8091A0008F7DF9CF3F
:1003F0008091A000877FF5CF809120018F77809337
:100400002001B3CF809120018F7DF9CF8091200111
:10041000877FF5CF4E2BB8CFAF92BF92CF92DF92AE
:10042000EF92FF920F931F93CF93DF936C017B01A9
:100430008B01040F151FEB015E01AE18BF08C0173A
:10044000D10759F06991D601ED91FC910190F081AD
:10045000E02DC6011995892B79F7C501DF91CF9160
:100460001F910F91FF90EF90DF90CF90BF90AF90D2
:100470000895FC01538D448D252F30E0842F90E0AA
:10048000821B930B541710F0CF960895019708958F
:10049000FC01918D828D981761F0A28DAE0FBF2F58
:1004A000B11D5D968C91928D9F5F9F73928F90E0AE
:1004B00008958FEF9FEF0895FC01918D828D98171D
:1004C00031F0828DE80FF11D858D90E008958FEF5A
:1004D0009FEF0895FC01918D228D892F90E0805C23
:1004E0009F4F821B91098F739927089585E492E0AD
:1004F0000E946A0221E0892B09F420E0822F0895EE
:10050000FC01A48DA80FB92FB11DA35ABF4F2C9188
:10051000848D90E001968F739927848FA689B7897F
:100520002C93A089B1898C91837080648C93938D76
:10053000848D981306C00288F389E02D80818F7D19
:1005400080830895EF92FF920F931F93CF93DF93D1
:10055000EC0181E0888F9B8D8C8D98131AC0E889FF
:10056000F989808185FF15C09FB7F894EE89FF89CE
:100570006083E889F98980818370806480839FBF6C
:1005800081E090E0DF91CF911F910F91FF90EF906C
:100590000895F62E0B8D10E00F5F1F4F0F7311277C
:1005A000E02E8C8D8E110CC00FB607FCFACFE889B7
:1005B000F989808185FFF5CFCE010E948002F1CFBD
:1005C000EB8DEC0FFD2FF11DE35AFF4FF0829FB72B
:1005D000F8940B8FEA89FB8980818062CFCFCF931B
:1005E000DF93EC01888D8823B9F0AA89BB89E8895B
:1005F000F9898C9185FD03C0808186FD0DC00FB601
:1006000007FCF7CF8C9185FFF2CF808185FFEDCF7E
:10061000CE010E948002E9CFDF91CF91089580E062
:1006200090E0892B29F00E94760281110E9400003F
:1006300080E090E0892B49F080E090E0892B29F060
:100640000E94000081110E94000080E090E0892B50
:1006500049F080E090E0892B29F00E940000811190
:100660000E94000080E090E0892B49F080E090E05B
:10067000892B29F00E94000081110C94000008953C
:10068000089590E080E00895CF92DF92EF92FF927C
:100690000F931F93CF93DF931F921F92CDB7DEB7B7
:1006A00069834A83880F991F009150031091510369
:1006B000000F111FEAEFF2E09F012A5F324020177E
:1006C000310714F41192F8CF2981FC01E650FD4F57
:1006D00021838A81808360E080914E030E948001A3
:1006E0001016110604F501501109F801E650FD4FEE
:1006F000E080D0904C03C0904A0388E0F82E6E2D25
:10070000661F6627661F8C2D0E948001EE0C61E03B
:100710008D2D0E94800160E08D2D0E948001FA9451
:10072000F110EDCFDDCF61E080914E030F900F907F
:10073000DF91CF911F910F91FF90EF90DF90CF90BD
:100740000C948001EF92FF920F931F93CF937C0143
:100750008C0183E0000F111F8A95E1F7065F1C4FA3
:10076000C1E0F80111928F0140E06C2FC7010E9497
:100770004403CF5FC930A9F7CF911F910F91FF902C
:10078000EF900895CF93DF93EC0160E08E810E949B
:10079000800161E08E810E94800160E08E810E9474
:1007A00080018BE891E00197F1F7DF91CF910895F7
:1007B000CF92DF92EF92FF920F931F93CF93DF932D
:1007C0006C017C0187E0E80EF11CD0E0C0E0062F50
:1007D00010E0B8010C2E02C0759567950A94E2F7F7
:1007E0006170F70181917F010E9480012196C430E0
:1007F000D10579F7C601DF91CF911F910F91FF903D
:10080000EF90DF90CF900C94C203CF92DF92EF92E3
:10081000FF920F931F93CF93DF93EC01F62E642F7B
:100820008C810E9480018D818F3F19F060E00E94D1
:1008300080010F2D10E08F8584FF25C06E0187E0B9
:10084000C80ED11CF12CE12CB8010E2C02C07595FC
:1008500067950A94E2F76170F60181916F010E9439
:100860008001FFEFEF1AFF0A88E0E816F10461F754
:10087000CE01DF91CF911F910F91FF90EF90DF900C
:10088000CF900C94C203B80184E0759567958A9562
:10089000E1F7CE010E94D8036F2DCE01DF91CF91F9
:1008A0001F910F91FF90EF90DF90CF900C94D803A1
:1008B00040E0682F82EE92E00C940504CF93DF9322
:1008C000823029F49091F10298609093F102809324
:1008D000F5021092F60280E48093F70280E18093A3
:1008E000F80280E58093F9028091E6020E9461019E
:1008F0008091E7028F3F11F00E9461018091E80230
:100900000E946101C2EED2E09E01225E32408091DF
:10091000F10284FD0AC084E090E02196281739078F
:100920003CF48E810E946101EFCF88E090E0F5CF2A
:100930008BE39DE00197F1F760E08091E6020E9471
:10094000800160E08091E8020E9480018091E702CE
:100950008F3F19F060E00E9480018091F10284FDD8
:1009600039C063E082EE92E00E94D803CBE4D6E483
:10097000CE010197F1F763E082EE92E00E94D80386
:100980002197F1F763E082EE92E00E94D80383E5BD
:1009900092E00197F1F762E082EE92E00E94D803C4
:1009A0008091F10280620E94580484E08093F202F8
:1009B0008CE00E94580481E00E9458048BE39FE180
:1009C0000197F1F782E08093F30286E0DF91CF9107
:1009D0000C94580480620E9458048BE496E40197BA
:1009E000F1F78091F10280620E94580483E592E061
:1009F0000197F1F78091F10280620E945804D0CFF4
:100A000041E00E94050481E090E008950F931F9358
:100A1000CF93DF93EC0188819981009759F02A8167
:100A20003B812617370730F081E0DF91CF911F918E
:100A30000F9108958B016F5F7F4F0E944D090097C2
:100A400059F0998388831B830A832C813D81232B52
:100A500059F7FC011082E8CF80E0E7CF1F920F9298
:100A60000FB60F9211242F933F938F939F93AF93C1
:100A7000BF938091410290914202A0914302B091B4
:100A800044023091400223E0230F2D3758F50196A0
:100A9000A11DB11D20934002809341029093420218
:100AA000A0934302B093440280913C0290913D0296
:100AB000A0913E02B0913F020196A11DB11D80930D
:100AC0003C0290933D02A0933E02B0933F02BF913F
:100AD000AF919F918F913F912F910F900FBE0F90EB
:100AE0001F90189526E8230F0296A11DB11DD2CFA5
:100AF0001F920F920FB60F9211240BB60F922F93E5
:100B00003F934F935F936F937F938F939F93AF9395
:100B1000BF93EF93FF9385E492E00E948002FF91E0
:100B2000EF91BF91AF919F918F917F916F915F9165
:100B30004F913F912F910F900BBE0F900FBE0F90D2
:100B40001F9018951F920F920FB60F9211240BB69B
:100B50000F922F938F939F93EF93FF93E091550202
:100B6000F09156028081E0915B02F0915C0282FD7F
:100B70001DC0908180915E028F5F8F7320915F0214
:100B8000821741F0E0915E02F0E0EB5BFD4F958F44
:100B900080935E02FF91EF919F918F912F910F9023
:100BA0000BBE0F900FBE0F901F9018958081F2CF53
:100BB000CF93DF93109248021092470288EE93E0A1
:100BC000A0E0B0E08093490290934A02A0934B02C8
:100BD000B0934C028AE092E09093460280934502E3
:100BE00085EC90E0909352028093510284EC90E067
:100BF000909354028093530280EC90E090935602BD
:100C00008093550281EC90E09093580280935702B4
:100C100082EC90E090935A028093590286EC90E027
:100C200090935C0280935B0210925E0210925F02CE
:100C30001092600210926102C8E1D0E0D0934B03A1
:100C4000C0934A0386E190E090934D0380934C0358
:100C500087E190E090934F0380934E0384E090E00F
:100C6000909351038093500388E10E946101809129
:100C70004C030E94610180914E030E94610161E07A
:100C800080914E030E948001D0934B03C0934A038E
:100C9000EAE0F3E0119283E0EA34F807D9F7D0E014
:100CA000C0E08091500390915103C817D90774F5A3
:100CB00040E06FE0CE010E94440380915003909188
:100CC0005103C817D9072CF447E06BE0CE010E940E
:100CD000440340E069E0CE010E9444038091500348
:100CE00090915103C817D9071CF4CE010E94A203AA
:100CF0008091500390915103C817D9072CF440E01C
:100D00006CE0CE010E9444032196CBCF1092E50205
:100D10001092E4028CE192E09093E3028093E2026D
:100D200083E28093E6028FEF8093E70284E2809370
:100D3000E80285E28093E90286E28093EA0287E294
:100D40008093EB0288E28093EC021092ED02109205
:100D5000EE021092EF021092F0021092F10281E086
:100D6000DF91CF910C945E04CF93DF9300D000D03D
:100D7000CDB7DEB7789484B5826084BD84B58160D8
:100D800084BD85B5826085BD85B5816085BD809156
:100D90006E00816080936E001092810080918100CE
:100DA00082608093810080918100816080938100C6
:100DB000809180008160809380008091B100846088
:100DC0008093B1008091B00081608093B0008091E9
:100DD0009100826080939100809191008160809366
:100DE0009100809190008160809390008091A1009B
:100DF00082608093A1008091A10081608093A10016
:100E00008091A00081608093A00080912101826088
:100E10008093210180912101816080932101809143
:100E2000200181608093200180917A00846080930A
:100E30007A0080917A00826080937A0080917A00B3
:100E4000816080937A0080917A00806880937A0034
:100E50001092C100E0915502F091560282E0808329
:100E6000E0915102F09152021082E0915302F09110
:100E700054028FEC808310925D02E0915902F09150
:100E80005A0286E08083E0915702F09158028081F7
:100E900080618083E0915702F091580280818860E0
:100EA0008083E0915702F0915802808180688083AE
:100EB000E0915702F091580280818F7D808310E08D
:100EC00000E080915003909151030817190718F51D
:100ED00017FD1EC0081719072CF441E06CE0C8018B
:100EE0000E94440380915003909151030817190701
:100EF0002CF44FE06AE0C8010E9444038091500343
:100F000090915103081719071CF4C8010E94A2030D
:100F10000F5F1F4FD6CF82E00E945E0410923B020B
:100F200010923A0280913A0290913B02892B09F08B
:100F30006EC01A8219821C821B821E821D8269E089
:100F400070E0CE0101960E94060529813A81811147
:100F500061C02115310519F0C9010E94C4081A8227
:100F600019821E821D821C821B82E1E08091F502A3
:100F70008111E0E0E195F0E0EE51FD4F84898C5F56
:100F800080680E9458044D815E8169817A8182EE79
:100F900092E00E940C0289819A81009711F00E94D0
:100FA000C4081A8219821C821B821E821D826AE07A
:100FB00070E0CE0101960E94060529813A818111D7
:100FC00033C02115310519F0C9010E94C4081A82E5
:100FD00019821E821D821C821B82E091F502E23082
:100FE00068F5E150F0E0EE51FD4F848980680E9481
:100FF00058044D815E8169817A8182EE92E00E947F
:101000000C0289819A81009711F00E94C4080E9405
:101010000F0388CF89E090E09E838D8364E272E0C5
:10102000C9010E94370AA1CF8AE090E09E838D8398
:101030006EE272E0C9010E94370ACFCFE1E0D2CF61
:10104000EE0FFF1F881F8BBF0790F691E02D1994BC
:101050000F931F93CF93DF938230910510F482E0BA
:1010600090E0E0915403F091550330E020E0B0E0CF
:10107000A0E0309799F42115310509F44AC0281BE6
:10108000390B24303105D8F58A819B8161157105B2
:1010900089F1FB0193838283FE0111C0408151815C
:1010A0000281138148175907E0F04817590799F44E
:1010B000109761F012960C93129713961C93329628
:1010C000CF01DF91CF911F910F91089500935403A9
:1010D00010935503F4CF2115310551F042175307F2
:1010E00038F0A901DB019A01BD01DF01F801C1CF90
:1010F000EF01F9CF9093550380935403CDCFFE01B8
:10110000E20FF31F81939193225031093983288391
:10111000D7CF2091520330915303232B41F42091D8
:101120000202309103023093530320935203209123
:101130000002309101022115310541F42DB73EB76F
:101140004091040250910502241B350BE09152039B
:10115000F0915303E217F307A0F42E1B3F0B28175F
:10116000390778F0AC014E5F5F4F2417350748F020
:101170004E0F5F1F509353034093520381939193FB
:101180009FCFF0E0E0E09CCFCF93DF930097E9F0B2
:10119000FC01329713821282A0915403B09155033F
:1011A000ED0130E020E01097A1F420813181820F21
:1011B000931F20915203309153032817390709F0E8
:1011C00061C0F0935303E0935203DF91CF910895F0
:1011D000EA01CE17DF07E8F54A815B819E014115E0
:1011E0005105B1F7E901FB83EA8349915991C40F95
:1011F000D51FEC17FD0761F4808191810296840F61
:10120000951FE90199838883828193819B838A83D7
:10121000F0E0E0E012968D919C9113970097B9F55C
:101220002D913C911197CD010296820F931F209131
:101230005203309153032817390739F6309751F587
:101240001092550310925403B0935303A09352038A
:10125000BCCFD383C28340815181840F951FC817AF
:10126000D90761F44E5F5F4F88819981480F591FFC
:10127000518340838A819B81938382832115310529
:1012800009F0B0CFF0935503E09354039ECFFD01D6
:10129000DC01C0CF13821282D7CF4F925F926F9240
:1012A0007F928F929F92AF92BF92CF92DF92EF92F6
:1012B000FF920F931F93CF93DF938C01009799F4C4
:1012C000CB01DF91CF911F910F91FF90EF90DF90B5
:1012D000CF90BF90AF909F908F907F906F905F90D6
:1012E0004F900C942808FC01E60FF71F9C01225038
:1012F0003109E217F30708F4AEC0D901CD91DC91B2
:101300001197C617D70720F1C530D10578F0CE0167
:1013100004978617970750F0C61BD70B2297C193E7
:10132000D1936D937C93CF010E94C408C801DF91D3
:10133000CF911F910F91FF90EF90DF90CF90BF90D2
:10134000AF909F908F907F906F905F904F90089597
:101350005B01AC1ABD0A4C018C0E9D1EA09154037A
:10136000B0915503512C412CF12CE12C109731F503
:1013700080915203909153038815990509F05CC040
:101380004616570608F058C080910002909101025D
:10139000009741F48DB79EB7409104025091050229
:1013A000841B950BE817F90708F055C0F093530319
:1013B000E0935203F90171836083B8CF8D919C91C2
:1013C000119712966C90129713967C901397A8150C
:1013D000B90559F56C0142E0C40ED11CCA14DB04F6
:1013E00020F1AC014A195B09DA011296159780F0D9
:1013F0006282738251834083D9016D937C93E1149F
:10140000F10471F0D7011396FC93EE9312978ECFEF
:1014100022968C0F9D1FF90191838083F301EFCFFA
:10142000F0935503E093540381CF4816590608F40E
:101430002C017D01D3019ACFCB010E9428087C01A9
:10144000009749F0AE01B8010E942E0AC8010E941F
:10145000C40887016BCF10E000E068CFFB01DC011E
:1014600002C001900D9241505040D8F70895FB0101
:10147000DC0101900D920020E1F70895F894FFCF70
:1014800000005603800000000000A2020C02390296
:10149000EF026A0248025C020000000000050C0234
:1014A00041034003414359452031204733002D2D4E
:0A14B0002D2D2D2D2D2D2D2D0000CA
:00000001FF
