:100000000C9449010C947A010C947A010C947A01B5
:100010000C947A010C947A010C947A010C947A0174
:100020000C947A010C947A010C947A010C947A0164
:100030000C947A010C947A010C947A010C947A0154
:100040000C947A010C947A010C947A010C947A0144
:100050000C947A010C947A010C947A010C94F505B5
:100060000C947A010C9469060C943F060C947A0166
:100070000C947A010C947A010C947A010C947A0114
:100080000C947A010C947A010C947A010C947A0104
:100090000C947A010C947A010C947A010C947A01F4
:1000A0000C947A010C947A010C947A010C947A01E4
:1000B0000C947A010C947A010C947A010C947A01D4
:1000C0000C947A010C947A010C947A010C947A01C4
:1000D0000C947A010C947A010C947A010C947A01B4
:1000E0000C947A010C941E030C9449040C94B103F3
:1000F0000C94D1010C94CD010C94DB010C940A03F7
:100100000C94FB020C94A4010C9441040C94AC01DB
:100110000C942D040C9431040C949A010C94390421
:100120000C94BF010C949F060C94DF010C944504C1
:100130000C94B9010C94A0010C94CE020C94B5015E
:100140000C9464030C9429040C942C030C943D042B
:100150000C94C7010C9435040C94DA010C94C3017F
:100160000C94AF010C9421040C94A8010C94D501BB
:1001700000002100240027002A002D003000330059
:1001800001010000040107010A010000220025000E
:1001900028002B002E003100340002010000050170
:1001A00008010B01000020002300260029002C007C
:1001B0002F003200000100000301060109010505BE
:1001C0000505070508080808020202020A0A0808CD
:1001D00004040404010101010101010103030303FB
:1001E00003030303040707070C0C0C0C0C0C0C0C8A
:1001F0000202020206060606060606060B0B0B0B9B
:100200000B0B0B0B010210202008081020401020BF
:1002100040800201020108040201010204081020CA
:1002200040808040201008040201800402018040C8
:100230002010080402010804020101020408102031
:100240004080010204081020408000000A0B0209CF
:100250000C0D0E0807030401000000000000000060
:10026000000000000000000000000000000000008E
:10027000000000000000121110000000000000004B
:10028000000000000000000000000000000000006E
:100290009F0611241FBECFEFD1E2DEBFCDBF00E02D
:1002A0000CBF13E0A0E0B2E0EAE2FCE100E00BBF2B
:1002B00002C007900D92A031B107D9F725E0A0E167
:1002C000B3E001C01D92AA30B207E1F711E0C9E422
:1002D000D1E000E006C021970109802FFE010E94B5
:1002E000EA0DC834D10780E00807A9F70E94AB07E0
:1002F0000C94130E0C9400008150823108F05AC007
:10030000E82FF0E08827E857FE4F8F4F0C94EA0D56
:10031000A801AC019A01A001A401DA01AF01B50165
:10032000B901BF01C301C701CD01D101DA01D50176
:10033000DB01DF01809180008F778093800008953A
:10034000809180008F7DF9CF80918000877FF5CFED
:1003500084B58F7784BD089584B58F7DFBCF809160
:10036000B0008F778093B00008958091B0008F7DAA
:10037000F9CF809190008F778093900008958091BD
:1003800090008F7DF9CF80919000877FF5CF80918D
:10039000A0008F778093A00008958091A0008F7DAA
:1003A000F9CF8091A000877FF5CF809120018F77D2
:1003B000809320010895809120018F7DF9CF809155
:1003C0002001877FF5CFCF93DF93282F30E0F9010D
:1003D000E65BFD4F8491F901EC5FFD4FD491F9018B
:1003E000E254FE4FC491CC23A1F081110E947C0104
:1003F000EC2FF0E0EE0FFF1FEC55FE4FA591B491EE
:10040000EC91ED2381E090E009F480E0DF91CF9161
:10041000089580E090E0FACF1F93CF93DF93282FC9
:1004200030E0F901E65BFD4F8491F901EC5FFD4F8F
:10043000D491F901E254FE4FC491CC23A9F0162FB8
:1004400081110E947C01EC2FF0E0EE0FFF1FE657B8
:10045000FE4FA591B4918FB7F894EC91111108C09B
:10046000D095DE23DC938FBFDF91CF911F9108954C
:10047000DE2BF8CFCF93DF9390E0FC01EC5FFD4FD4
:10048000249182549E4FFC0184918823D1F090E006
:10049000880F991FFC01E059FE4FA591B491FC0112
:1004A000E657FE4FC591D49161110EC09FB7F894E5
:1004B0008C91E22FE0958E238C932881E223E883B0
:1004C0009FBFDF91CF9108958FB7F894EC91E22B05
:1004D000EC938FBFF6CF3FB7F89480913A03909199
:1004E0003B03A0913C03B0913D0326B5A89B05C0FA
:1004F0002F3F19F00196A11DB11D3FBFBA2FA92FA3
:10050000982F8827BC01CD01620F711D811D911D9F
:1005100042E0660F771F881F991F4A95D1F708950B
:100520008F929F92AF92BF92CF92DF92EF92FF9203
:100530004B015C010E946B026B017C010E946B020B
:100540006C197D098E099F09683E734081059105EC
:10055000A8F321E0821A9108A108B10888EEC80E1C
:1005600083E0D81EE11CF11C81149104A104B104A4
:1005700029F7FF90EF90DF90CF90BF90AF909F90C2
:100580008F9008952FB7F8946091360370913703D8
:1005900080913803909139032FBF0895AF92BF9295
:1005A000CF92DF92EF92FF920F931F93CF93DF933F
:1005B0006C017B018B01040F151FEB015E01AE186E
:1005C000BF08C017D10759F06991D601ED91FC9190
:1005D0000190F081E02DC6011995892B79F7C501AD
:1005E000DF91CF911F910F91FF90EF90DF90CF900F
:1005F000BF90AF900895FC01538D448D252F30E0BE
:10060000842F90E0821B930B541710F0CF9608951F
:1006100001970895FC01918D828D981761F0A28D4C
:10062000AE0FBF2FB11D5D968C91928D9F5F9F7312
:10063000928F90E008958FEF9FEF0895FC01918DC8
:10064000828D981731F0828DE80FF11D858D90E035
:1006500008958FEF9FEF0895FC01918D228D892FD2
:1006600090E0805C9F4F821B91098F7399270895BA
:100670008EE393E00E942C0321E0892B09F420E013
:10068000822F0895FC01A48DA80FB92FB11DA35A84
:10069000BF4F2C91848D90E001968F739927848FA2
:1006A000A689B7892C93A089B1898C9183708064C5
:1006B0008C93938D848D981306C00288F389E02D66
:1006C00080818F7D80830895EF92FF920F931F9317
:1006D000CF93DF93EC0181E0888F9B8D8C8D9813F5
:1006E0001AC0E889F989808185FF15C09FB7F89401
:1006F000EE89FF896083E889F9898081837080644D
:1007000080839FBF81E090E0DF91CF911F910F9197
:10071000FF90EF900895F62E0B8D10E00F5F1F4FA6
:100720000F731127E02E8C8D8E110CC00FB607FCB5
:10073000FACFE889F989808185FFF5CFCE010E9443
:100740004203F1CFEB8DEC0FFD2FF11DE35AFF4F6C
:10075000F0829FB7F8940B8FEA89FB8980818062D1
:10076000CFCFCF93DF93EC01888D8823B9F0AA898E
:10077000BB89E889F9898C9185FD03C0808186FD5C
:100780000DC00FB607FCF7CF8C9185FFF2CF8081AB
:1007900085FFEDCFCE010E944203E9CFDF91CF91DB
:1007A000089580E090E0892B29F00E9438038111A0
:1007B0000E94000080E090E0892B49F080E090E00A
:1007C000892B29F00E94000081110E94000080E026
:1007D00090E0892B49F080E090E0892B29F00E947D
:1007E000000081110E94000080E090E0892B49F018
:1007F00080E090E0892B29F00E94000081110C9488
:100800000000089580E1EFE4F2E0A3E2B3E001909C
:100810000D928A95E1F70895DB018A309105C0F4C5
:10082000FC018827E95EFB4F8F4F0C94EA0D4904C9
:10083000210429042D043104350439043D04410404
:10084000450488E0E7E4F2E001900D928A95E1F733
:10085000089588E0EFE3F2E0F7CF88E0E7E3F2E025
:10086000F3CF88E0EFE2F2E0EFCF88E0E7E2F2E0FA
:10087000EBCF88E0EFE1F2E0E7CF88E0E7E1F2E0FC
:10088000E3CF88E0EFE0F2E0DFCF88E0E7E0F2E0FE
:10089000DBCF88E0EFE5F2E0D7CFCF92DF92EF92A7
:1008A000FF920F931F93CF93DF931F921F92CDB7A9
:1008B000DEB769834A83880F991F0091080510915C
:1008C0000905000F111FE2EBF4E09F01225B3440A9
:1008D0002017310714F41192F8CF2981FC01EE544E
:1008E000FB4F21838A81808360E0809106050E940E
:1008F0000C021016110604F501501109F801EE540E
:10090000FB4FE080D0900405C090020588E0F82EEF
:100910006E2D661F6627661F8C2D0E940C02EE0C42
:1009200061E08D2D0E940C0260E08D2D0E940C0272
:10093000FA94F110EDCFDDCF61E0809106050F90C4
:100940000F90DF91CF911F910F91FF90EF90DF906B
:10095000CF900C940C028F929F92AF92BF92CF9245
:10096000DF92EF92FF920F931F93CF93DF9320912B
:10097000080530910905821793070CF03FC06830D5
:100980007105E0F58C016C0183E0CC0CDD1C8A95CF
:10099000E1F780E890E002C0959587956A95E2F7C7
:1009A000882E982E9094D0E0C0E0E42EF12C97E0B1
:1009B000A92EB12C809108059091090508171907F7
:1009C000CCF4F601EC0FFD1FEE54FB4F808995012E
:1009D0002C1B3D0BA70102C0559547952A95E2F7C0
:1009E00040FF19C08829808B40896C2F6F5FC80138
:1009F0000E944D042196C830D105E1F6DF91CF91D8
:100A00001F910F91FF90EF90DF90CF90BF90AF902C
:100A10009F908F9008958921E6CF0F931F93CF93D6
:100A2000DF9303E213E0D0E0C0E0F80141918F01D1
:100A3000BE0190E080E0C830D10524F06850710913
:100A400081E090E00E94AB042196C031D10569F7A6
:100A5000DF91CF911F910F910895EF92FF921F9315
:100A6000CF93DF93209108053091090582179307F2
:100A7000B4F4EC0123E0880F991F2A95E1F79C015B
:100A80002E533B4F790111E0F70111927F0140E0B5
:100A9000612FCE010E944D041F5F1930A9F7DF912D
:100AA000CF911F91FF90EF900895FC0101900020DD
:100AB000E9F73197AF01481B590BBC018EE393E076
:100AC0000C94CE02CF93DF930E945505EC018EEE7D
:100AD00092E00E9455058C0F9D1FDF91CF910895E4
:100AE0008F929F92AF92BF92CF92DF92EF92FF923E
:100AF0000F931F93CF93DF93CDB7DEB7A1970FB6B8
:100B0000F894DEBF0FBECDBF6C01990FEE08FF0851
:100B1000F7FE47C06DE28EE393E00E9464038C0110
:100B200022273327A9012C193D094E095F0919A273
:100B3000CE0181967C019AE0892E912CA12CB12CBA
:100B4000CA01B901A50194010E94A50D605DF701DC
:100B500062937F01211531054105510589F790E028
:100B600080E0309719F0CF010E945505080F191F3A
:100B70008EEE92E00E945505800F911FA1960FB650
:100B8000F894DEBF0FBECDBFDF91CF911F910F91C3
:100B9000FF90EF90DF90CF90BF90AF909F908F909D
:100BA0000895A701960119A28E010F5D1F4F8AE0DB
:100BB000C82ED12CE12CF12CCA01B901A701960154
:100BC0000E94A50D605DF80162938F01211531052A
:100BD0004105510589F7309729F0CF010E9455054D
:100BE0008C01C6CF10E000E0C3CF1F920F920FB66A
:100BF0000F9211242F933F938F939F93AF93BF93A3
:100C00008091360390913703A0913803B091390356
:100C10003091350323E0230F2D3758F50196A11DA0
:100C2000B11D209335038093360390933703A0932F
:100C30003803B093390380913A0390913B03A0911C
:100C40003C03B0913D030196A11DB11D80933A0371
:100C500090933B03A0933C03B0933D03BF91AF91AE
:100C60009F918F913F912F910F900FBE0F901F90EA
:100C7000189526E8230F0296A11DB11DD2CF1F9211
:100C80000F920FB60F9211240BB60F922F933F9332
:100C90004F935F936F937F938F939F93AF93BF9384
:100CA000EF93FF938EE393E00E944203FF91EF9155
:100CB000BF91AF919F918F917F916F915F914F9174
:100CC0003F912F910F900BBE0F900FBE0F901F9072
:100CD00018951F920F920FB60F9211240BB60F9218
:100CE0002F938F939F93EF93FF93E0914E03F09197
:100CF0004F038081E0915403F091550382FD1DC0A4
:100D00009081809157038F5F8F73209158038217D2
:100D100041F0E0915703F0E0E25CFC4F958F809347
:100D20005703FF91EF919F918F912F910F900BBEE1
:100D30000F900FBE0F901F9018958081F2CFCF9229
:100D4000DF92EF92FF92CF93DF93109241031092C4
:100D5000400388EE93E0A0E0B0E0809342039093DC
:100D60004303A0934403B093450380EE92E0909335
:100D70003F0380933E0385EC90E090934B03809378
:100D80004A0384EC90E090934D0380934C0380ECF5
:100D900090E090934F0380934E0381EC90E090930A
:100DA00051038093500382EC90E09093530380931F
:100DB000520386EC90E09093550380935403109275
:100DC0005703109258031092590310925A03C3E329
:100DD000D0E0D0930305C093020584E390E09093A4
:100DE00005058093040585E390E0909307058093C3
:100DF000060582E090E0909309058093080561E084
:100E000083E30E943A0261E0809104050E943A0265
:100E100061E0809106050E943A0261E0809106053A
:100E20000E940C02D0930305C0930205E2ECF4E0AB
:100E300082E095E011928E179F07E1F7D0E0C0E0C5
:100E40008091080590910905C817D9073CF540E045
:100E50006FE0CE010E944D04809108059091090534
:100E6000C817D9072CF447E06BE0CE010E944D046F
:100E700040E069E0CE010E944D04CE010E942D05A4
:100E80008091080590910905C817D9072CF440E016
:100E90006CE0CE010E944D042196D2CF0E941B0D22
:100EA0002FE030E040E050E00E94730D7093AF04FB
:100EB0006093AE040E941B0D27E030E040E050E05C
:100EC0000E94730D7093B1046093B00487E0C82E44
:100ED000D12CE12CF12C2091B0043091B1042430BC
:100EE000310559F40E941B0DA70196010E94730D54
:100EF0007093B1046093B004EECF81E0982F01C0ED
:100F0000990F2A95EAF79093AD0422E030E03093F0
:100F1000A3042093A2041092DC031092DB0310922E
:100F2000DE031092DD0398E090935D0494E09093CB
:100F30005E0410929D041092A10491E09093A0048D
:100F400080939E0410929F04DF91CF91FF90EF90C9
:100F5000DF90CF900895789484B5826084BD84B585
:100F6000816084BD85B5826085BD85B5816085BDA4
:100F700080916E00816080936E001092810080915C
:100F800081008260809381008091810081608093E4
:100F90008100809180008160809380008091B10009
:100FA00084608093B1008091B00081608093B00034
:100FB0008091910082608093910080919100816086
:100FC0008093910080919000816080939000809147
:100FD000A10082608093A1008091A1008160809334
:100FE000A1008091A00081608093A00080912101E8
:100FF0008260809321018091210181608093210191
:101000008091200181608093200180917A0084602A
:1010100080937A0080917A00826080937A00809138
:101020007A00816080937A0080917A008068809352
:101030007A001092C100E0914E03F0914F0382E0DC
:101040008083E0914A03F0914B031082E0914C03BE
:10105000F0914D038FEC808310925603E091520380
:10106000F091530386E08083E0915003F0915103A7
:10107000808180618083E0915003F09151038081F1
:1010800088608083E0915003F091510380818068F3
:101090008083E0915003F091510380818F7D8083A4
:1010A00080910805909109051816190634F441E05D
:1010B0006CE090E080E00E944D04809108059091E2
:1010C00009051816190634F44FE06AE090E080E054
:1010D0000E944D0490E080E00E942D05809108055B
:1010E00090910905029734F041E06CE081E090E0D6
:1010F0000E944D048091080590910905029734F0F3
:101100004FE06AE081E090E00E944D0481E090E0D1
:101110000E942D0560E086E10E943A0260E088E1CD
:101120000E943A0260E087E10E943A0260E089E1B1
:101130000E943A021092340310923303C1E0D4E0CB
:10114000F3E04F2E512C612C712CAAE02A2E312C69
:1011500080913303909134038130910509F4C6C026
:1011600050F08230910509F457C3039709F4A2C3E4
:101170000E94D103EDCF0E94020400910102109160
:1011800002026AE173E0C8010E940C0488E0EFE506
:10119000F2E0A3E2B3E001900D928A95E1F788E0D6
:1011A000EAE1F3E0ABE2B3E001900D928A95E1F75A
:1011B0000E940D0582E090E09093A3048093A20426
:1011C0001092DC031092DB031092DE031092DD0319
:1011D00028E020935D04D0935E0410929D04109249
:1011E000A104C093A00481E090E090939F048093B9
:1011F0009E046801012E000CEE08FF0831E0C31ABE
:10120000D108E108F108A0E0BDEFA70196010E9416
:10121000A00DA30192010E94730D3C5F4F4F5F4FE1
:101220003093A8042093A704A8E8BFEFA701960174
:101230000E94A00DA30192010E94730D20583F4F00
:101240004F4F5F4F3093AC042093AB0487E10E9473
:10125000E301892B69F489E10E94E301892B41F4C0
:101260008AE10E94E301892B19F4C093000280CF28
:1012700087E10E94E301019721F48091000281112E
:1012800017C089E10E94E30181309105E9F08AE10C
:101290000E94E3018130910509F06ACF209100029C
:1012A000222309F465CF909334038093330360CFF6
:1012B0000F5F1F4F84E090E00530110564F4109338
:1012C0000202009301020BC0209100022223F9F2D6
:1012D00001501109A1F7909302028093010264EF7B
:1012E00071E080E090E00E94900242CF0E940204F0
:1012F0004091A2045091A3040BED13E0ADE5B4E0DE
:10130000980190E080E04817590769F0F901619170
:1013100071919F01FB01ED5DFC4F7D916081672B19
:1013200060830196F0CFE091AE04F091AF04ED5DE3
:10133000FC4F80819091AD04892B808380912203A2
:10134000882309F471C10E94C20220915B0430918C
:101350005C046901330FEE08FF08AB01BC014C19B6
:101360005D096E097F098091A7049091A804092E58
:10137000000CAA0BBB0B84179507A607B70708F04C
:1013800034C180919D048823D1F12091DB033091F9
:10139000DC033093A5042093A40480915D04809322
:1013A000A60480919E0490919F04820F931F9093B6
:1013B000DC038093DB032091A2043091A304E0902E
:1013C000A4045091A5044091A604EEE5F4E081E068
:1013D00090E00E5F1F4F82179307C8F5D8017C91EC
:1013E00011966C911197F190EC9211965C93DF013C
:1013F00011974C9301964F2DE72E562FEACF8091EF
:10140000A004882381F08091DB039091DC0390930A
:10141000A5048093A40480915D048093A604880FA2
:1014200080935D04C8CF8091A104882321F280912C
:10143000DB039091DC039093A5048093A404809136
:101440005D048093A60490E095958795E9CFE0929E
:10145000A4045093A5044093A6040E94C202709372
:101460005C0460935B042091DB033091DC0380918A
:10147000AE049091AF042817390709F0B6C0609107
:10148000AD0470E080915D0448E050E090E00E947F
:10149000060E892B09F0A9C00091A2041091A304A3
:1014A000F801EE0FFF1FE552FC4F8091A4049091CC
:1014B000A50491838083F801E35AFB4F8091A60431
:1014C00080830F5F1F4F1093A3040093A2040E9418
:1014D0001B0D2FE030E040E050E00E94730D709350
:1014E000AF046093AE040E941B0D27E030E040E0A3
:1014F00050E00E94730D7093B1046093B00490E0CB
:1015000080E080179107F0F4FC01EE0FFF1FE55219
:10151000FC4F408151812091AE043091AF044217BD
:10152000530771F40E941B0D2FE030E040E050E0C3
:101530000E94730D7093AF046093AE0490E080E05E
:101540000196DFCFF12CE12CCC24C394D12CB60131
:101550000090B00402C0660F771F0A94E2F7E0160D
:10156000F106E8F4F701E35AFB4F808148E050E0D0
:1015700090E00E94060E892B71F40E941B0D27E05B
:1015800030E040E050E00E94730D7093B10460932E
:10159000B004F12CE12CBFEFEB1AFB0AD8CF60931B
:1015A000AD0481EF92E00E9462058091A7049091C2
:1015B000A8042091AB043091AC04821B930B909350
:1015C000A8048093A7048130924034F420E230E0F4
:1015D0003093AC042093AB048091A9049091AA04A9
:1015E00001969093AA048093A904E0905D04F12CE5
:1015F00048E050E070E060E0C7010E94060E892BD1
:1016000009F057C081E093E00E9462058091A9042F
:101610009091AA040E94700583E090E090933403B7
:10162000809333030E9470050E940D0586E10E949D
:10163000E301892B09F070C087E10E94E301892B47
:1016400009F06AC088E10E94E301892B09F064C0B7
:1016500089E10E94E301892B09F05EC08AE10E94C2
:10166000E301892B09F058C0C0901003D0901103FA
:10167000C114D10409F4F9CD0E94C2020D2C000C52
:10168000EE08FF086C197D098E099F09683C7105F9
:101690008105910508F46CC082E090E090933403DA
:1016A00080933303109222031092110310921003BF
:1016B000DCCDC090DB03D090DC0330E1C316D10455
:1016C00009F4A0CF8FEFC816D80609F49BCF8090FD
:1016D000A2049090A3044DEDA42E43E0B42E01E0AB
:1016E00010E00815190508F09FCFD5018D919D9147
:1016F0005D01C816D90669F4F801E35AFB4F608111
:1017000070E048E050E0C7010E94060E892B09F402
:1017100079CF0F5F1F4FE5CF86E10E94E30101976C
:10172000C1F187E10E94E301019709F449C088E112
:101730000E94E3018C01019709F452C089E10E94E3
:10174000E301019709F45AC08AE10E94E30101977D
:1017500009F00ECD80910002882309F409CDC093D1
:1017600022030E94C202709311036093100325C0EC
:101770000E94C2026C197D098E099F09683B7B405B
:101780008105910508F490CF88E093E00E946205FE
:101790008BCF80910002882321F281E090E00E94AB
:1017A0007005EFEFFFEFF0939F04E0939E04C0936A
:1017B0009D041092A0041092A10410920002D8CCB3
:1017C00080910002882309F4B2CF83E090E00E9468
:1017D0007005C093A0041092A10410929D04EDCF57
:1017E00080910002882309F4A9CF82E090E00E9452
:1017F000700510939F0400939E04D9CF809100023E
:10180000882309F4A1CF84E090E00E947005109233
:10181000A004C093A104E1CF8091A9049091AA04EF
:101820008A3091059CF56AE173E00E940C0488E01F
:10183000EFE5F2E0A3E2B3E001900D928A95E1F7C3
:1018400088E0EAE1F3E0ABE2B3E001900D928A9523
:10185000E1F70E940D058AE10E94E301892B09F45A
:1018600004CD8AE10E94E3018130910509F080CC2A
:1018700020910002222309F47BCC909334038093BF
:10188000330368EC70E080E090E02DCDB1010E9460
:10189000D60D8B016AE173E00E940C04C801B1010E
:1018A0000E94D60D62E173E00E940C0488E0E2E140
:1018B000F3E0C0CF3BE8C32E32E0D32E00E110E0CE
:1018C000C8010E947005C801880F991F9C01295901
:1018D0003D4F7901B12CA12CF601EA0DFB1D908042
:1018E000D7016D917D917D01492D90E080E00E94AE
:1018F000AB04083011054CF0F701729760817181DB
:10190000492D81E090E00E94AB04BFEFAB1ABB0A07
:10191000E5E0AE16B10401F764E670E080E090E027
:101920000E94900290E080E00E942D0581E090E00E
:101930000E942D050150110918F629E0C20ED11C94
:101940003CEDC31632E0D30609F0B8CF00E110E059
:10195000780182E0E80EF11C4091A904B70190E003
:1019600080E00E94AB04083011053CF04091A904CE
:10197000B70181E090E00E94AB0464E670E080E093
:1019800090E00E94900290E080E00E942D0581E0AE
:1019900090E00E942D0501501109D0F6E9CB8F92FD
:1019A0009F92AF92BF92CF92DF92EF92FF92CF932E
:1019B000DF93EC01688179818A819B8161157105D2
:1019C0008105910521F464E279ED8BE597E02DE145
:1019D00033EF41E050E00E94730D49015A019B0131
:1019E000AC01A7EAB1E40E94920D6B017C01ACEE60
:1019F000B4EFA50194010E94A00DC60ED71EE81EEB
:101A0000F91EF7FE06C081E0C81AD108E10880E897
:101A1000F80AC882D982EA82FB82C701B6019F77A1
:101A2000DF91CF91FF90EF90DF90CF90BF90AF907C
:101A30009F908F9008958F929F92AF92BF92CF9276
:101A4000DF92EF92FF926091030270910402809105
:101A5000050290910602611571058105910521F439
:101A600064E279ED8BE597E02DE133EF41E050E062
:101A70000E94730D49015A019B01AC01A7EAB1E430
:101A80000E94920D6B017C01ACEEB4EFA5019401B4
:101A90000E94A00DC60ED71EE81EF91EF7FE06C056
:101AA00081E0C81AD108E10880E8F80AC092030270
:101AB000D0920402E0920502F0920602C701B6013C
:101AC0009F77FF90EF90DF90CF90BF90AF909F9067
:101AD0008F9008956093030270930402809305022F
:101AE000909306020895052E97FB1EF400940E9421
:101AF0008A0D57FD07D00E94A50D07FC03D04EF4B8
:101B00000C948A0D50954095309521953F4F4F4F3D
:101B10005F4F089590958095709561957F4F8F4F99
:101B20009F4F08950E94C70DA59F900DB49F900DE3
:101B3000A49F800D911D11240895B7FF0C94920D60
:101B40000E94920D821B930B0895A1E21A2EAA1BEC
:101B5000BB1BFD010DC0AA1FBB1FEE1FFF1FA2175D
:101B6000B307E407F50720F0A21BB30BE40BF50B5A
:101B7000661F771F881F991F1A9469F760957095E3
:101B8000809590959B01AC01BD01CF010895A29F66
:101B9000B001B39FC001A39F700D811D1124911D41
:101BA000B29F700D811D1124911D089597FB072E82
:101BB00016F4009407D077FD09D00E94F20D07FCBF
:101BC00005D03EF4909581959F4F0895709561954D
:101BD0007F4F0895EE0FFF1F881F8BBF0790F69170
:101BE000E02D1994AA1BBB1B51E107C0AA1FBB1F04
:101BF000A617B70710F0A61BB70B881F991F5A9599
:101C0000A9F780959095BC01CD010895FB01DC01F9
:101C100004C08D910190801921F441505040C8F7C3
:0A1C2000881B990B0895F894FFCF7C
:101C2A000101000100000000007050507E00000019
:101C3A00007E4A4A7E000000004040507E100000AC
:101C4A00003C4A0A0E000000007252525E00000078
:101C5A00007010107E000000005252527E000000F8
:101C6A002266464E7A32000002227E7E020200007E
:101C7A00000000000000000000000000000000005A
:101C8A00007E42427E0000FBFFFCFFFDFFFEFFFFDD
:101C9A00FF0000010002000300040005000600071F
:101CAA0000080009000A000B000C003E41414526CD
:101CBA00000000001F2444241F000000007F2010A1
:101CCA00207F000000007F494941410000000000D8
:101CDA0000000000000000003E4141413E000000BB
:101CEA00007C0201027C000000007F49494141005A
:101CFA000000007F484C4A3100000000000000004C
:101D0A006403CE02FB02B1032C030A031E030D0A6D
:101D1A0000436F6D696F204F626A657469766F73ED
:101D2A0000707275656261004D656E73616A650067
:00000001FF
