:100000000C9449010C947A010C947A010C947A01B5
:100010000C947A010C947A010C947A010C947A0174
:100020000C947A010C947A010C947A010C947A0164
:100030000C947A010C947A010C947A010C947A0154
:100040000C947A010C947A010C947A010C947A0144
:100050000C947A010C947A010C947A010C94F305B7
:100060000C947A010C9467060C943D060C947A016A
:100070000C947A010C947A010C947A010C947A0114
:100080000C947A010C947A010C947A010C947A0104
:100090000C947A010C947A010C947A010C947A01F4
:1000A0000C947A010C947A010C947A010C947A01E4
:1000B0000C947A010C947A010C947A010C947A01D4
:1000C0000C947A010C947A010C947A010C947A01C4
:1000D0000C947A010C947A010C947A010C947A01B4
:1000E0000C947A010C9439040C94FB020C942104B6
:1000F0000C940A030C94B9010C94DB010C94DF01FD
:100100000C942C030C94D5010C94B5010C94AC0107
:100110000C9449040C9464030C9435040C949D06CF
:100120000C94DA010C94A4010C9431040C94A801F1
:100130000C94BF010C9429040C94CE020C949A01E7
:100140000C942D040C94D1010C94CD010C941E033D
:100150000C9441040C94C3010C94A0010C943D0434
:100160000C9445040C94C7010C94B1030C94AF019A
:1001700000002100240027002A002D003000330059
:1001800001010000040107010A010000220025000E
:1001900028002B002E003100340002010000050170
:1001A00008010B01000020002300260029002C007C
:1001B0002F003200000100000301060109010505BE
:1001C0000505070508080808020202020A0A0808CD
:1001D00004040404010101010101010103030303FB
:1001E00003030303040707070C0C0C0C0C0C0C0C8A
:1001F0000202020206060606060606060B0B0B0B9B
:100200000B0B0B0B010210202008081020401020BF
:1002100040800201020108040201010204081020CA
:1002200040808040201008040201800402018040C8
:100230002010080402010804020101020408102031
:100240004080010204081020408000000A0B0209CF
:100250000C0D0E0807030401000000000000000060
:10026000000000000000000000000000000000008E
:10027000000000000000121110000000000000004B
:10028000000000000000000000000000000000006E
:100290009D0611241FBECFEFD1E2DEBFCDBF00E02F
:1002A0000CBF12E0A0E0B2E0E2E5FBE100E00BBF32
:1002B00002C007900D92A03AB107D9F724E0A0EA56
:1002C000B2E001C01D92AA39B207E1F711E0C9E41A
:1002D000D1E000E006C021970109802FFE010E94B5
:1002E0007E0DC834D10780E00807A9F70E94B00747
:1002F0000C94A70D0C9400008150823108F05AC074
:10030000E82FF0E08827E857FE4F8F4F0C947E0DC2
:10031000A801AC019A01A001A401DA01AF01B50165
:10032000B901BF01C301C701CD01D101DA01D50176
:10033000DB01DF01809180008F778093800008953A
:10034000809180008F7DF9CF80918000877FF5CFED
:1003500084B58F7784BD089584B58F7DFBCF809160
:10036000B0008F778093B00008958091B0008F7DAA
:10037000F9CF809190008F778093900008958091BD
:1003800090008F7DF9CF80919000877FF5CF80918D
:10039000A0008F778093A00008958091A0008F7DAA
:1003A000F9CF8091A000877FF5CF809120018F77D2
:1003B000809320010895809120018F7DF9CF809155
:1003C0002001877FF5CFCF93DF93282F30E0F9010D
:1003D000E65BFD4F8491F901EC5FFD4FD491F9018B
:1003E000E254FE4FC491CC23A1F081110E947C0104
:1003F000EC2FF0E0EE0FFF1FEC55FE4FA591B491EE
:10040000EC91ED2381E090E009F480E0DF91CF9161
:10041000089580E090E0FACF1F93CF93DF93282FC9
:1004200030E0F901E65BFD4F8491F901EC5FFD4F8F
:10043000D491F901E254FE4FC491CC23A9F0162FB8
:1004400081110E947C01EC2FF0E0EE0FFF1FE657B8
:10045000FE4FA591B4918FB7F894EC91111108C09B
:10046000D095DE23DC938FBFDF91CF911F9108954C
:10047000DE2BF8CFCF93DF9390E0FC01EC5FFD4FD4
:10048000249182549E4FFC0184918823D1F090E006
:10049000880F991FFC01E059FE4FA591B491FC0112
:1004A000E657FE4FC591D49161110EC09FB7F894E5
:1004B0008C91E22FE0958E238C932881E223E883B0
:1004C0009FBFDF91CF9108958FB7F894EC91E22B05
:1004D000EC938FBFF6CF3FB7F8948091CA0290910A
:1004E000CB02A091CC02B091CD0226B5A89B05C04D
:1004F0002F3F19F00196A11DB11D3FBFBA2FA92FA3
:10050000982F8827BC01CD01620F711D811D911D9F
:1005100042E0660F771F881F991F4A95D1F708950B
:100520008F929F92AF92BF92CF92DF92EF92FF9203
:100530004B015C010E946B026B017C010E946B020B
:100540006C197D098E099F09683E734081059105EC
:10055000A8F321E0821A9108A108B10888EEC80E1C
:1005600083E0D81EE11CF11C81149104A104B104A4
:1005700029F7FF90EF90DF90CF90BF90AF909F90C2
:100580008F9008952FB7F8946091C6027091C702BA
:100590008091C8029091C9022FBF0895AF92BF9277
:1005A000CF92DF92EF92FF920F931F93CF93DF933F
:1005B0006C017B018B01040F151FEB015E01AE186E
:1005C000BF08C017D10759F06991D601ED91FC9190
:1005D0000190F081E02DC6011995892B79F7C501AD
:1005E000DF91CF911F910F91FF90EF90DF90CF900F
:1005F000BF90AF900895FC01538D448D252F30E0BE
:10060000842F90E0821B930B541710F0CF9608951F
:1006100001970895FC01918D828D981761F0A28D4C
:10062000AE0FBF2FB11D5D968C91928D9F5F9F7312
:10063000928F90E008958FEF9FEF0895FC01918DC8
:10064000828D981731F0828DE80FF11D858D90E035
:1006500008958FEF9FEF0895FC01918D228D892FD2
:1006600090E0805C9F4F821B91098F7399270895BA
:100670008EEC92E00E942C0321E0892B09F420E00B
:10068000822F0895FC01A48DA80FB92FB11DA35A84
:10069000BF4F2C91848D90E001968F739927848FA2
:1006A000A689B7892C93A089B1898C9183708064C5
:1006B0008C93938D848D981306C00288F389E02D66
:1006C00080818F7D80830895EF92FF920F931F9317
:1006D000CF93DF93EC0181E0888F9B8D8C8D9813F5
:1006E0001AC0E889F989808185FF15C09FB7F89401
:1006F000EE89FF896083E889F9898081837080644D
:1007000080839FBF81E090E0DF91CF911F910F9197
:10071000FF90EF900895F62E0B8D10E00F5F1F4FA6
:100720000F731127E02E8C8D8E110CC00FB607FCB5
:10073000FACFE889F989808185FFF5CFCE010E9443
:100740004203F1CFEB8DEC0FFD2FF11DE35AFF4F6C
:10075000F0829FB7F8940B8FEA89FB8980818062D1
:10076000CFCFCF93DF93EC01888D8823B9F0AA898E
:10077000BB89E889F9898C9185FD03C0808186FD5C
:100780000DC00FB607FCF7CF8C9185FFF2CF8081AB
:1007900085FFEDCFCE010E944203E9CFDF91CF91DB
:1007A000089580E090E0892B29F00E9438038111A0
:1007B0000E94000080E090E0892B49F080E090E00A
:1007C000892B29F00E94000081110E94000080E026
:1007D00090E0892B49F080E090E0892B29F00E947D
:1007E000000081110E94000080E090E0892B49F018
:1007F00080E090E0892B29F00E94000081110C9488
:100800000000089580E1EFE4F2E0A3EBB2E0019094
:100810000D928A95E1F70895DB018A309105C0F4C5
:10082000FC018827E95EFB4F8F4F0C947E0D490435
:10083000210429042D043104350439043D04410404
:10084000450488E0E7E4F2E001900D928A95E1F733
:10085000089588E0EFE3F2E0F7CF88E0E7E3F2E025
:10086000F3CF88E0EFE2F2E0EFCF88E0E7E2F2E0FA
:10087000EBCF88E0EFE1F2E0E7CF88E0E7E1F2E0FC
:10088000E3CF88E0EFE0F2E0DFCF88E0E7E0F2E0FE
:10089000DBCF88E0EFE5F2E0D7CFCF92DF92EF92A7
:1008A000FF920F931F93CF93DF931F921F92CDB7A9
:1008B000DEB769834A83880F991F009198041091CD
:1008C0009904000F111FE2E4F4E09F012254344028
:1008D0002017310714F41192F8CF2981FC01EE5B47
:1008E000FB4F21838A81808360E0809196040E947F
:1008F0000C021016110604F501501109F801EE5B07
:10090000FB4FE080D0909404C090920488E0F82ED1
:100910006E2D661F6627661F8C2D0E940C02EE0C42
:1009200061E08D2D0E940C0260E08D2D0E940C0272
:10093000FA94F110EDCFDDCF61E0809196040F9035
:100940000F90DF91CF911F910F91FF90EF90DF906B
:10095000CF900C940C027F928F929F92AF92BF9295
:10096000CF92DF92EF92FF920F931F93CF93DF937B
:100970008C015B014C0183E0880C991C8A95E1F79E
:10098000C0E8D0E002C0D595C7956A95E2F7DC2FA4
:10099000C09528E030E0E42EF12C99E0792E80918A
:1009A000980490919904A901415051096A010817CE
:1009B0001907DCF458E0A516B104BCF4F401E21BFD
:1009C000F30BEE5BFB4F808DA7010C2C02C05595FD
:1009D00047950A94E2F740FF19C08D2B808F672D51
:1009E000621B408DC8010E944D049601CD28B9F6C6
:1009F000DF91CF911F910F91FF90EF90DF90CF90FB
:100A0000BF90AF909F908F907F9008958C23E6CFFA
:100A10000F931F93CF93DF9303EB12E0D0E0C0E07E
:100A2000F80141918F018091980490919904C83008
:100A3000D1058CF4181619062CF4BE0190E080E064
:100A40000E94AB042196C031D10551F7DF91CF91BF
:100A50001F910F9108950297ACF3BE016850710980
:100A600081E090E0EDCFEF92FF920F931F93CF9331
:100A70007C018C0183E0000F111F8A95E1F70E5A6B
:100A80001B4FC1E0F80111928F0140E06C2FC701AC
:100A90000E944D04CF5FC930A9F7CF911F910F91EC
:100AA000FF90EF900895FC0101900020E9F7319745
:100AB000AF01481B590BBC018EEC92E00C94CE02A6
:100AC000CF93DF930E945305EC0189E792E00E94E7
:100AD00053058C0F9D1FDF91CF9108958F929F92A8
:100AE000AF92BF92CF92DF92EF92FF920F931F933C
:100AF000CF93DF93CDB7DEB7A1970FB6F894DEBFE3
:100B00000FBECDBF6C01990FEE08FF08F7FE47C07E
:100B10006DE28EEC92E00E9464038C012227332761
:100B2000A9012C193D094E095F0919A2CE01819630
:100B30007C019AE0892E912CA12CB12CCA01B9011B
:100B4000A50194010E94390D605DF70162937F0158
:100B5000211531054105510589F790E080E0309776
:100B600019F0CF010E945305080F191F89E792E081
:100B70000E945305800F911FA1960FB6F894DEBF17
:100B80000FBECDBFDF91CF911F910F91FF90EF90DE
:100B9000DF90CF90BF90AF909F908F900895A70166
:100BA000960119A28E010F5D1F4F8AE0C82ED12C2D
:100BB000E12CF12CCA01B901A70196010E94390D5F
:100BC000605DF80162938F012115310541055105E2
:100BD00089F7309729F0CF010E9453058C01C6CFC9
:100BE00010E000E0C3CF1F920F920FB60F921124B6
:100BF0002F933F938F939F93AF93BF938091C602A0
:100C00009091C702A091C802B091C9023091C5026B
:100C100023E0230F2D3758F50196A11DB11D209318
:100C2000C5028093C6029093C702A093C802B093F6
:100C3000C9028091CA029091CB02A091CC02B091DE
:100C4000CD020196A11DB11D8093CA029093CB02E3
:100C5000A093CC02B093CD02BF91AF919F918F91A1
:100C60003F912F910F900FBE0F901F90189526E87F
:100C7000230F0296A11DB11DD2CF1F920F920FB666
:100C80000F9211240BB60F922F933F934F935F93C4
:100C90006F937F938F939F93AF93BF93EF93FF9344
:100CA0008EEC92E00E944203FF91EF91BF91AF91D1
:100CB0009F918F917F916F915F914F913F912F9174
:100CC0000F900BBE0F900FBE0F901F9018951F92A4
:100CD0000F920FB60F9211240BB60F922F938F9392
:100CE0009F93EF93FF93E091DE02F091DF0280810A
:100CF000E091E402F091E50282FD1DC090818091B7
:100D0000E7028F5F8F732091E802821741F0E09134
:100D1000E702F0E0E253FD4F958F8093E702FF91E9
:100D2000EF919F918F912F910F900BBE0F900FBE5F
:100D30000F901F9018958081F2CFCF92DF92EF92A3
:100D4000FF92CF93DF931092D1021092D00288EEDF
:100D500093E0A0E0B0E08093D2029093D302A093FE
:100D6000D402B093D5028BE692E09093CF028093A9
:100D7000CE0285EC90E09093DB028093DA0284EC63
:100D800090E09093DD028093DC0280EC90E0909301
:100D9000DF028093DE0281EC90E09093E102809389
:100DA000E00282EC90E09093E3028093E20286EC12
:100DB00090E09093E5028093E4021092E702109293
:100DC000E8021092E9021092EA02C3E3D0E0D09365
:100DD0009304C093920484E390E0909395048093ED
:100DE000940485E390E0909397048093960482E0C6
:100DF00090E0909399048093980461E083E30E94CB
:100E00003A0261E0809194040E943A0261E080918C
:100E100096040E943A0261E0809196040E940C02BE
:100E2000D0939304C0939204E2E5F4E082E994E065
:100E300011928E179F07E1F7D0E0C0E080919804EF
:100E400090919904C817D90774F540E06FE0CE017E
:100E50000E944D048091980490919904C817D90775
:100E60002CF447E06BE0CE010E944D0440E069E0C5
:100E7000CE010E944D048091980490919904C81766
:100E8000D9071CF4CE010E943305809198049091FB
:100E90009904C817D9072CF440E06CE0CE010E94F9
:100EA0004D042196CBCF0E94AF0C2FE030E040E004
:100EB00050E00E94070D70933F0460933E040E942F
:100EC000AF0C27E030E040E050E00E94070D709347
:100ED00041046093400487E0C82ED12CE12CF12C12
:100EE00020914004309141042430310559F40E948E
:100EF000AF0CA70196010E94070D70934104609307
:100F00004004EECF81E0982F01C0990F2A95EAF7AF
:100F100090933D0422E030E0309333042093320478
:100F200010926C0310926B0310926E0310926D037B
:100F300098E09093ED0394E09093EE0310922D04CB
:100F40001092310491E09093300480932E0410921B
:100F50002F04DF91CF91FF90EF90DF90CF90089515
:100F6000789484B5826084BD84B5816084BD85B584
:100F7000826085BD85B5816085BD80916E00816090
:100F800080936E0010928100809181008260809336
:100F90008100809181008160809381008091800038
:100FA0008160809380008091B10084608093B10063
:100FB0008091B00081608093B00080919100826048
:100FC0008093910080919100816080939100809145
:100FD00090008160809390008091A1008260809356
:100FE000A1008091A10081608093A1008091A00068
:100FF00081608093A0008091210182608093210113
:101000008091210181608093210180912001816084
:101010008093200180917A00846080937A0080918F
:101020007A00826080937A0080917A008160809358
:101030007A0080917A00806880937A001092C100D3
:10104000E091DE02F091DF0282E08083E091DA023B
:10105000F091DB021082E091DC02F091DD028FEC76
:1010600080831092E602E091E202F091E30286E0D2
:101070008083E091E002F091E102808180618083D1
:10108000E091E002F091E102808188608083E0914C
:10109000E002F091E102808180688083E091E002CB
:1010A000F091E10280818F7D8083809198049091FE
:1010B00099041816190634F441E06CE090E080E0E1
:1010C0000E944D0480919804909199041816190675
:1010D00034F44FE06AE090E080E00E944D0480919B
:1010E0009804909199041816190624F490E080E071
:1010F0000E9433058091980490919904029734F0EE
:1011000041E06CE081E090E00E944D048091980401
:1011100090919904029734F04FE06AE081E090E00A
:101120000E944D048091980490919904029724F0B4
:1011300081E090E00E94330560E086E10E943A027F
:1011400060E088E10E943A0260E087E10E943A0292
:1011500060E089E10E943A021092C4021092C30238
:1011600011E057E0452E512C612C712C04E063E016
:10117000862E912CA12CB12C7AE0272E312C809137
:10118000C3029091C4028130910509F4C0C030F0CF
:10119000029709F44AC30E94D103F1CF0E940204CE
:1011A000C0910102D09102026AEA72E0CE010E946F
:1011B0000C0488E0EFE5F2E0A3EBB2E001900D92C1
:1011C0008A95E1F788E0EAEAF2E0ABEBB2E0019061
:1011D0000D928A95E1F70E94080582E090E09093D5
:1011E00033048093320410926C0310926B031092BC
:1011F0006E0310926D0328E02093ED030093EE033D
:1012000010922D04109231041093300481E090E08C
:1012100090932F0480932E046E010D2E000CEE0887
:10122000FF0881E0C81AD108E108F108A0E0BDEF8D
:10123000A70196010E94340DA50194010E94070D9B
:101240003C5F4F4F5F4F3093380420933704A8E83A
:10125000BFEFA70196010E94340DA50194010E94E1
:10126000070D20583F4F4F4F5F4F30933C04209362
:101270003B0487E10E94E301892B69F489E10E9424
:10128000E301892B41F48AE10E94E301892B19F4DF
:101290001093000280CF87E10E94E301019721F4BF
:1012A00080910002811117C089E10E94E301813021
:1012B0009105E1F08AE10E94E3018130910509F096
:1012C0006ACF20910002222309F465CF9093C402D3
:1012D0008093C30260CF219684E090E0C530D105B1
:1012E0005CF4D0930202C09301020AC02091000274
:1012F000222301F32197A9F7909302028093010220
:1013000064EF71E080E090E00E94900244CF0E9480
:1013100002044091320450913304CBE6D3E0ADEEA9
:10132000B3E09E0190E080E04817590769F0F901A9
:10133000619171919F01FB01ED54FD4F7D916081A1
:10134000672B60830196F0CFE0913E04F0913F045B
:10135000ED54FD4F808190913D04892B80838091D5
:10136000B202882309F45EC10E94C2022091EB03FD
:101370003091EC036901330FEE08FF08AB01BC01AB
:101380004C195D096E097F098091370490913804EA
:10139000092E000CAA0BBB0B84179507A607B707ED
:1013A00008F02AC180912D048823A9F120916B03B4
:1013B00030916C0330933504209334048091ED0315
:1013C0008093360480912E0490912F04820F931FF6
:1013D00090936C0380936B0320913204309133041B
:1013E000A09134045091350440913604EEEEF3E0C0
:1013F00081E090E0229682179307A8F578816981B1
:10140000F190A8835983DF0111974C9301964F2DDA
:10141000A72F562FEFCF80913004882381F0809141
:101420006B0390916C039093350480933404809106
:10143000ED0380933604880F8093ED03CDCF809128
:101440003104882349F280916B0390916C0390934F
:101450003504809334048091ED038093360490E04A
:1014600095958795E9CFA093340450933504409324
:1014700036040E94C2027093EC036093EB03209148
:101480006B0330916C0380913E0490913F042817C8
:10149000390709F0B1C060913D0470E08091ED031F
:1014A00048E050E090E00E949A0D892B09F0A4C01A
:1014B000C0913204D0913304FE01EE0FFF1FE559B5
:1014C000FC4F809134049091350491838083FE0118
:1014D000E351FC4F8091360480832196D0933304EE
:1014E000C09332040E94AF0C2FE030E040E050E0A7
:1014F0000E94070D70933F0460933E040E94AF0C5E
:10150000A30192010E94070D70934104609340046F
:1015100090E080E08C179D07F0F4FC01EE0FFF1FB8
:10152000E559FC4F4081518120913E0430913F04A8
:101530004217530771F40E94AF0C2FE030E040E0F7
:1015400050E00E94070D70933F0460933E0490E0CA
:1015500080E00196DFCFF12CE12CCC24C394D12C78
:10156000B6010090400402C0660F771F0A94E2F7AC
:10157000EC16FD06D8F4F701E351FC4F808148E0FA
:1015800050E090E00E949A0D892B61F40E94AF0C0C
:10159000A30192010E94070D7093410460934004DF
:1015A000F12CE12CFFEFEF1AFF0ADACF60933D0434
:1015B0008CE792E00E946005809137049091380496
:1015C00020913B0430913C04821B930B9093380490
:1015D000809337048130924034F480E290E090931D
:1015E0003C0480933B048091390490913A04019625
:1015F00090933A04809339048091ED0348E050E0E1
:1016000070E060E090E00E949A0D892B09F04FC0D5
:101610008CE892E00E9460058091390490913A0430
:101620000E946E050E94080586E10E94E301892B55
:1016300009F07BC087E10E94E301892B09F075C0A6
:1016400088E10E94E301892B09F06FC089E10E94C3
:10165000E301892B09F069C08AE10E94E301892B2B
:1016600009F063C0C090A002D090A102C114D104BF
:1016700009F40ECE0E94C2020D2C000CEE08FF08E9
:101680006C197D098E099F09683C710581059105DA
:1016900008F477C082E090E09093C4028093C30284
:1016A0001092B2021092A1021092A002F1CD80918C
:1016B0006B0390916C038031910509F4A9CF0196D9
:1016C00009F4A6CF8DE6E82E83E0F82EC1E0D0E045
:1016D0008091320490913304C817D90708F0A2CF43
:1016E000F701819191917F0120916B0330916C03FF
:1016F00028173907C1F4FE01E351FC4F608170E007
:101700008091ED0348E050E090E00E949A0D892B13
:1017100051F48CE892E00E94600580913904909128
:101720003A040E946E052196D3CF86E10E94E30120
:101730000197C1F187E10E94E301019709F447C0D5
:1017400088E10E94E301EC01019709F452C089E1AC
:101750000E94E301019709F45AC08AE10E94E30163
:10176000019709F018CD80910002882309F413CD68
:101770001093B2020E94C2027093A1026093A00271
:1017800035C00E94C2026C197D098E099F09683B11
:101790007B408105910508F485CF87E992E00E949E
:1017A000600580CF80910002882321F281E090E0E3
:1017B0000E946E058FEF9FEF90932F0480932E046D
:1017C00010932D0410923004109231040FC08091B8
:1017D0000002882309F4B4CF83E090E00E946E05F4
:1017E000109330041092310410922D0410920002D4
:1017F000D2CC80910002882309F4A9CF82E090E046
:101800000E946E05D0932F04C0932E04D9CF8091EF
:101810000002882309F4A1CF84E090E00E946E05C5
:101820001092300410933104DFCF809139049091ED
:101830003A048A3091059CF56AEA72E00E940C0431
:1018400088E0EFE5F2E0A3EBB2E001900D928A951B
:10185000E1F788E0EAEAF2E0ABEBB2E001900D924A
:101860008A95E1F70E9408058AE10E94E301892B2D
:1018700009F40ECD8AE10E94E3018130910509F05F
:101880008ACC20910002222309F485CC9093C402D3
:101890008093C30268EC70E080E090E035CDB10148
:1018A0000E946A0DEB016AEA72E00E940C04CE010C
:1018B000B1010E946A0D62EA72E00E940C0488E0A5
:1018C000E2EAF2E0C0CF8F929F92AF92BF92CF92A6
:1018D000DF92EF92FF92CF93DF93EC0168817981E1
:1018E0008A819B81611571058105910521F464E26E
:1018F00079ED8BE597E02DE133EF41E050E00E9478
:10190000070D49015A019B01AC01A7EAB1E40E940D
:10191000260D6B017C01ACEEB4EFA50194010E9491
:10192000340DC60ED71EE81EF91EF7FE06C081E074
:10193000C81AD108E10880E8F80AC882D982EA8288
:10194000FB82C701B6019F77DF91CF91FF90EF90A7
:10195000DF90CF90BF90AF909F908F9008958F921F
:101960009F92AF92BF92CF92DF92EF92FF926091DF
:1019700003027091040280910502909106026115A4
:1019800071058105910521F464E279ED8BE597E01D
:101990002DE133EF41E050E00E94070D49015A016B
:1019A0009B01AC01A7EAB1E40E94260D6B017C010A
:1019B000ACEEB4EFA50194010E94340DC60ED71E03
:1019C000E81EF91EF7FE06C081E0C81AD108E1083A
:1019D00080E8F80AC0920302D0920402E092050265
:1019E000F0920602C701B6019F77FF90EF90DF905B
:1019F000CF90BF90AF909F908F9008956093030217
:101A00007093040280930502909306020895052EB8
:101A100097FB1EF400940E941E0D57FD07D00E94F4
:101A2000390D07FC03D04EF40C941E0D50954095D3
:101A3000309521953F4F4F4F5F4F0895909580957A
:101A4000709561957F4F8F4F9F4F08950E945B0D5A
:101A5000A59F900DB49F900DA49F800D911D112402
:101A60000895B7FF0C94260D0E94260D821B930B40
:101A70000895A1E21A2EAA1BBB1BFD010DC0AA1FCF
:101A8000BB1FEE1FFF1FA217B307E407F50720F0E7
:101A9000A21BB30BE40BF50B661F771F881F991F62
:101AA0001A9469F760957095809590959B01AC01AB
:101AB000BD01CF010895A29FB001B39FC001A39FB4
:101AC000700D811D1124911DB29F700D811D112477
:101AD000911D089597FB072E16F4009407D077FD0B
:101AE00009D00E94860D07FC05D03EF490958195A3
:101AF0009F4F0895709561957F4F0895EE0FFF1FDA
:101B0000881F8BBF0790F691E02D1994AA1BBB1B71
:101B100051E107C0AA1FBB1FA617B70710F0A61BED
:101B2000B70B881F991F5A95A9F780959095BC010E
:101B3000CD010895FB01DC0104C08D910190801955
:101B400021F441505040C8F7881B990B0895F89430
:021B5000FFCFC5
:101B52000101000100000000007050507E000000F2
:101B6200007E4A4A7E000000004040507E10000085
:101B7200003C4A0A0E000000007252525E00000051
:101B8200007010107E000000005252527E000000D1
:101B92002266464E7A32000002227E7E0202000057
:101BA2000000000000000000000000000000000033
:101BB200007E42427E0000000000006403CE02FB71
:101BC20002B1032C030A031E030D0A00436F6D6961
:101BD2006F204F626A657469766F730047414D45A5
:101BE20052204F564552004D656E73616A65000082
:00000001FF
