:020000040000FA
:100000000C9435010C9466010C9466010C94660105
:100010000C9466010C9466010C9466010C946601C4
:100020000C9466010C9466010C9466010C946601B4
:100030000C9466010C9466010C9466010C946601A4
:100040000C9466010C9466010C9466010C94660194
:100050000C9466010C9466010C9466010C9449049E
:100060000C9466010C94BD040C9493040C946601EA
:100070000C9466010C9466010C9466010C94660164
:100080000C9466010C9466010C9466010C94660154
:100090000C9466010C9466010C9466010C94660144
:1000A0000C9466010C9466010C9466010C94660134
:1000B0000C9466010C9466010C9466010C94660124
:1000C0000C9466010C9466010C9466010C94660114
:1000D0000C9466010C9466010C9466010C94660104
:1000E0000C9466010C94B9010C9493020C94A70231
:1000F0000C9486010C948C010C94A5010C94ED02D7
:100100000C949B010C94C7010C94CB010C94B3018B
:100110000C94A1010C94F3040C94C1010C94B5024D
:100120000C9498010C94C6010C9484020C94AB01BD
:100130000C9490010C94BD010C943A030C94AF0103
:100140000C9457020C949401000021002400270015
:100150002A002D00300033000101000004010701D6
:100160000A0100002200250028002B002E0031008B
:10017000340002010000050108010B01000020000D
:100180002300260029002C002F003200000100006F
:10019000030106010901050505050705080808080A
:1001A000020202020A0A080804040404010101010F
:1001B000010101010303030303030303040707070A
:1001C0000C0C0C0C0C0C0C0C0202020206060606AF
:1001D000060606060B0B0B0B0B0B0B0B010210207C
:1001E000200808102040102040800201020108046D
:1001F0000201010204081020408080402010080401
:100200000201800402018040201008040201080459
:10021000020101020408102040800102040810209D
:10022000408000000A0B02090C0D0E0807030401B0
:1002300000000000000000000000000000000000BE
:10024000000000000000000000000000000012118B
:10025000100000000000000000000000000000008E
:100260000000000000000000F30411241FBECFEFC7
:10027000D1E2DEBFCDBF00E00CBF12E0A0E0B2E0F3
:10028000ECEEF5E100E00BBF02C007900D92A23545
:10029000B107D9F724E0A2E5B2E001C01D92A33373
:1002A000B207E1F711E0C5E3D1E000E006C0219715
:1002B0000109802FFE010E94DF0AC433D10780E0CC
:1002C0000807A9F70E9409060C94F40A0C94000090
:1002D0008150823108F05AC0E82FF0E08827EC58AE
:1002E000FE4F8F4F0C94DF0A9401980186018C0118
:1002F0009001C6019B01A101A501AB01AF01B301B2
:10030000B901BD01C601C101C701CB0180918000C7
:100310008F77809380000895809180008F7DF9CF42
:1003200080918000877FF5CF84B58F7784BD089555
:1003300084B58F7DFBCF8091B0008F778093B00024
:1003400008958091B0008F7DF9CF809190008F77D4
:10035000809390000895809190008F7DF9CF8091D7
:100360009000877FF5CF8091A0008F778093A000C9
:1003700008958091A0008F7DF9CF8091A000877FA4
:10038000F5CF809120018F7780932001089580918F
:1003900020018F7DF9CF80912001877FF5CFCF930A
:1003A000DF93282F30E0F901EE5DFD4F8491F901D4
:1003B000E452FE4FD491F901EA56FE4FC491CC238A
:1003C000A1F081110E946801EC2FF0E0EE0FFF1FF9
:1003D000E458FE4FA591B491EC91ED2381E090E0BB
:1003E00009F480E0DF91CF91089580E090E0FACFAA
:1003F0001F93CF93DF93282F30E0F901EE5DFD4F7F
:100400008491F901E452FE4FD491F901EA56FE4F6E
:10041000C491CC23A9F0162F81110E946801EC2F02
:10042000F0E0EE0FFF1FEE59FE4FA591B4918FB78C
:10043000F894EC91111108C0D095DE23DC938FBFA6
:10044000DF91CF911F910895DE2BF8CFCF93DF93EB
:1004500090E0FC01E452FE4F24918A569E4FFC012D
:1004600084918823D1F090E0880F991FFC01E85B0C
:10047000FE4FA591B491FC01EE59FE4FC591D49168
:1004800061110EC09FB7F8948C91E22FE0958E23F6
:100490008C932881E223E8839FBFDF91CF91089559
:1004A0008FB7F894EC91E22BEC938FBFF6CFAF921D
:1004B000BF92CF92DF92EF92FF920F931F93CF9351
:1004C000DF936C017B018B01040F151FEB015E01B3
:1004D000AE18BF08C017D10759F06991D601ED9148
:1004E000FC910190F081E02DC6011995892B79F7D7
:1004F000C501DF91CF911F910F91FF90EF90DF9099
:10050000CF90BF90AF900895FC01538D448D252F5F
:1005100030E0842F90E0821B930B541710F0CF969D
:10052000089501970895FC01918D828D981761F0CF
:10053000A28DAE0FBF2FB11D5D968C91928D9F5FE6
:100540009F73928F90E008958FEF9FEF0895FC01C5
:10055000918D828D981731F0828DE80FF11D858D78
:1005600090E008958FEF9FEF0895FC01918D228D0B
:10057000892F90E0805C9F4F821B91098F73992790
:1005800008958DE692E00E94B50221E0892B09F4DE
:1005900020E0822F0895FC01A48DA80FB92FB11D72
:1005A000A35ABF4F2C91848D90E001968F739927A9
:1005B000848FA689B7892C93A089B1898C91837087
:1005C00080648C93938D848D981306C00288F38980
:1005D000E02D80818F7D80830895EF92FF920F93AD
:1005E0001F93CF93DF93EC0181E0888F9B8D8C8DDF
:1005F00098131AC0E889F989808185FF15C09FB7D3
:10060000F894EE89FF896083E889F9898081837095
:10061000806480839FBF81E090E0DF91CF911F9144
:100620000F91FF90EF900895F62E0B8D10E00F5F65
:100630001F4F0F731127E02E8C8D8E110CC00FB63B
:1006400007FCFACFE889F989808185FFF5CFCE01D3
:100650000E94CB02F1CFEB8DEC0FFD2FF11DE35A81
:10066000FF4FF0829FB7F8940B8FEA89FB89808156
:100670008062CFCFCF93DF93EC01888D8823B9F0D0
:10068000AA89BB89E889F9898C9185FD03C080819D
:1006900086FD0DC00FB607FCF7CF8C9185FFF2CF1A
:1006A000808185FFEDCFCE010E94CB02E9CFDF91A3
:1006B000CF91089580E090E0892B29F00E94C1023B
:1006C00081110E94000080E090E0892B49F080E0D9
:1006D00090E0892B29F00E94000081110E94000007
:1006E00080E090E0892B49F080E090E0892B29F0B0
:1006F0000E94000081110E94000080E090E0892BA0
:1007000049F080E090E0892B29F00E9400008111DF
:100710000C9400000895CF92DF92EF92FF920F9316
:100720001F93CF93DF931F921F92CDB7DEB76983DC
:100730004A83880F991F0091310410913204000FF1
:10074000111FEBEDF3E09F012B5D334020173107C4
:1007500014F41192F8CF2981FC01E552FC4F21835A
:100760008A81808360E080912F040E94F801101636
:10077000110604F501501109F801E552FC4FE08023
:10078000D0902D04C0902B0488E0F82E6E2D661FAB
:100790006627661F8C2D0E94F801EE0C61E08D2DFE
:1007A0000E94F80160E08D2D0E94F801FA94F1108A
:1007B000EDCFDDCF61E080912F040F900F90DF919E
:1007C000CF911F910F91FF90EF90DF90CF900C94FD
:1007D000F801EF92FF920F931F93CF937C018C014E
:1007E00083E0000F111F8A95E1F705511C4FC1E00E
:1007F000F80111928F0140E06C2FC7010E948B031A
:10080000CF5FC930A9F7CF911F910F91FF90EF9063
:100810000895FC0101900020E9F73197AF01481BD2
:10082000590BBC018DE692E00C945702CF93DF93F5
:100830000E940904EC0187E292E00E9409048C0FF7
:100840009D1FDF91CF9108950F931F93CF93DF9357
:10085000CDB7DEB7A1970FB6F894DEBF0FBECDBF00
:1008600019A2805D88A3CE0180960E9409048C01A4
:1008700087E292E00E940904800F911FA1960FB6B3
:10088000F894DEBF0FBECDBFDF91CF911F910F91C6
:1008900008951F920F920FB60F9211242F933F933A
:1008A0008F939F93AF93BF938091690290916A0257
:1008B000A0916B02B0916C023091680223E0230F8B
:1008C0002D3758F50196A11DB11D20936802809324
:1008D000690290936A02A0936B02B0936C028091BC
:1008E000640290916502A0916602B0916702019640
:1008F000A11DB11D8093640290936502A0936602CE
:10090000B0936702BF91AF919F918F913F912F91CB
:100910000F900FBE0F901F90189526E8230F029698
:10092000A11DB11DD2CF1F920F920FB60F921124AD
:100930000BB60F922F933F934F935F936F937F93D9
:100940008F939F93AF93BF93EF93FF938DE692E0C6
:100950000E94CB02FF91EF91BF91AF919F918F9138
:100960007F916F915F914F913F912F910F900BBEAF
:100970000F900FBE0F901F9018951F920F920FB6F9
:100980000F9211240BB60F922F938F939F93EF9397
:10099000FF93E0917D02F0917E028081E0918302DD
:1009A000F091840282FD1DC09081809186028F5F4C
:1009B0008F7320918702821741F0E0918602F0E068
:1009C000E359FD4F958F80938602FF91EF919F91A0
:1009D0008F912F910F900BBE0F900FBE0F901F9015
:1009E00018958081F2CFCF92DF92EF92FF92CF9352
:1009F000DF931092700210926F0288EE93E0A0E0F5
:100A0000B0E08093710290937202A0937302B0934E
:100A1000740289E192E090936E0280936D0285ECFE
:100A200090E090937A028093790284EC90E0909326
:100A30007C0280937B0280EC90E090937E02809316
:100A40007D0281EC90E09093800280937F0282ECA3
:100A500090E0909382028093810286EC90E09093E4
:100A60008402809383021092860210928702109271
:100A7000880210928902C3E3D0E0D0932C04C09383
:100A80002B0484E390E090932E0480932D0485E35F
:100A900090E09093300480932F0482E090E0909354
:100AA00032048093310461E083E30E94260261E016
:100AB00080912D040E94260261E080912F040E9403
:100AC000260261E080912F040E94F801D0932C044B
:100AD000C0932B04EBEEF3E08BE294E011928E17BF
:100AE0009F07E1F7D0E0C0E080913104909132049B
:100AF000C817D90774F540E06FE0CE010E948B0360
:100B00008091310490913204C817D9072CF447E042
:100B10006BE0CE010E948B0340E069E0CE010E94B1
:100B20008B038091310490913204C817D9071CF4CB
:100B3000CE010E94E9038091310490913204C817DC
:100B4000D9072CF440E06CE0CE010E948B03219683
:100B5000CBCF0E94240A2FE030E040E050E00E941A
:100B60007C0A7093D8036093D7030E94240A27E07D
:100B700030E040E050E00E947C0A7093DA0360931A
:100B8000D90387E0C82ED12CE12CF12C2091D90378
:100B90003091DA032430310559F40E94240AA70168
:100BA00096010E947C0A7093DA036093D903EECF1A
:100BB00081E0982F01C0990F2A95EAF79093D60308
:100BC00022E030E03093D2032093D10326E030E0DE
:100BD00030930B0320930A0325E030E030930D039C
:100BE00020930C0398E090938C0390938D0391E0F5
:100BF0009093CC031092D0031092CF038093CD0337
:100C00001092CE03DF91CF91FF90EF90DF90CF90C5
:100C10000895CF93DF9300D000D01F921F92CDB7DD
:100C2000DEB7789484B5826084BD84B5816084BD6C
:100C300085B5826085BD85B5816085BD80916E007A
:100C4000816080936E0010928100809181008260AB
:100C500080938100809181008160809381008091E8
:100C600080008160809380008091B10084608093D7
:100C7000B1008091B00081608093B00080919100BC
:100C800082608093910080919100816080939100B7
:100C9000809190008160809390008091A10082609B
:100CA0008093A1008091A10081608093A100809138
:100CB000A00081608093A0008091210182608093D8
:100CC0002101809121018160809321018091200187
:100CD00081608093200180917A00846080937A0003
:100CE00080917A00826080937A0080917A0081609E
:100CF00080937A0080917A00806880937A001092C5
:100D0000C100E0917D02F0917E0282E08083E0915B
:100D10007902F0917A021082E0917B02F0917C02DC
:100D20008FEC808310928502E0918102F091820223
:100D300086E08083E0917F02F09180028081806173
:100D40008083E0917F02F0918002808188608083BF
:100D5000E0917F02F0918002808180688083E09141
:100D60007F02F091800280818F7D808380913104A9
:100D7000909132041816190634F441E06CE090E0CA
:100D800080E00E948B038091310490913204181608
:100D9000190634F44FE06AE090E080E00E948B0393
:100DA00080913104909132041816190624F490E0D1
:100DB00080E00E94E903809131049091320402970F
:100DC00034F041E06CE081E090E00E948B03809180
:100DD000310490913204029734F04FE06AE081E0F0
:100DE00090E00E948B03809131049091320402972D
:100DF00024F081E090E00E94E90360E086E10E9437
:100E0000260260E088E10E94260260E087E10E94FD
:100E1000260260E089E10E9426021092630210928D
:100E2000620270E8472E512CE8E02E2E33243394D2
:100E3000FFE0CF2ED12CE12CF12CA7E08A2E912CB3
:100E4000A12CB12C8091620290916302892B09F050
:100E50008CC280E1E5E0F2E0A2E5B2E001900D9203
:100E60008A95E1F74091D1035091D2036AE0662E52
:100E700063E0762EACE8B3E0930190E080E04817A1
:100E8000590769F0F901619171919F01FB01EE5AD7
:100E9000FD4F7D916081672B60830196F0CFE091DB
:100EA000D703F091D803EE5AFD4F80819091D6037D
:100EB000892B80832FB7F8948091690290916A0200
:100EC000A0916B02B0916C022FBF20918A033091E8
:100ED0008B03032E000C440B550B821B930BA40BAE
:100EE000B50B8B3F9105A105B10508F424C1809194
:100EF000CC038823E1F120910A0330910B03309356
:100F0000D4032093D30380918C038093D5038091E5
:100F1000CD039091CE03820F931F90930B03809388
:100F20000A032091D1033091D2036091D3035091F1
:100F3000D4034091D503EDE8F3E081E090E072E066
:100F4000670E711C8217930708F042C0D3011C91F1
:100F500011967C91119701916C9311965C93DF012E
:100F600011974C930196402F612F572FE8CF809116
:100F7000CF038823A1F08AE292E00E9416048091B8
:100F80000A0390910B039093D4038093D303809131
:100F90008C038093D503880F80938C03C2CF8091FC
:100FA000D003882309F4BDCF81E392E00E941604A8
:100FB00080910A0390910B039093D4038093D30301
:100FC00080918C038093D50390E095958795E4CF2D
:100FD0006093D3035093D4034093D5032FB7F89471
:100FE0008091690290916A02A0916B02B0916C02AB
:100FF0002FBF90938B0380938A0320910A03309133
:101000000B038091D7039091D8032817390709F073
:1010100092C06091D60370E080918C0348E050E06C
:1010200090E00E94E70A892B09F085C00091D10366
:101030001091D203F801EE0FFF1FE65FFC4F809185
:10104000D3039091D40391838083F801E457FC4F3C
:101050008091D50380830F5F1F4F1093D2030093BD
:10106000D1030E94240AA70196010E947C0A709372
:10107000D8036093D7030E94240AA50194010E941B
:101080007C0A7093DA036093D90390E080E08017C4
:101090009107E0F4FC01EE0FFF1FE65FFC4F40817B
:1010A00051812091D7033091D8034217530761F43F
:1010B0000E94240AA70196010E947C0A7093D8031B
:1010C0006093D70390E080E00196E1CF1C821B8201
:1010D00066246394712CB3010090D90302C0660F9B
:1010E000771F0A94E2F7EB81FC81E017F107E8F43F
:1010F000E457FC4F808148E050E090E00E94E70A0E
:10110000892B61F40E94240AA50194010E947C0AA3
:101110007093DA036093D9031C821B822B813C817C
:101120002F5F3F4F3C832B83D6CF6093D60387E35B
:1011300092E00E94160480918C0348E050E070E039
:1011400060E090E00E94E70A892B09F0A4C087E4E0
:1011500092E00E94160442E552E05E834D831886B9
:101160001F82AD81BE812D91BE83AD8380913104FC
:1011700090913204EF81F88538970CF09DC01816D5
:101180001906F4F5C2010F8002C0959587950A945F
:10119000E2F78983F82FF095FA830BED13E097E0DF
:1011A000692E712C422F50E05C834B838091310477
:1011B0009091320418161906D4F4D80150962C9147
:1011C00050978B819C81062C02C0959587950A9437
:1011D000E2F780FF6CC0B9812B2BF801208BF8015E
:1011E0004089622D661990E080E00E948B03F1E057
:1011F0006F1A71080F5F1F4F2FEF62167206B1F65C
:101200004F8158854F5F5F4F58874F83403151055D
:1012100009F0A7CF86E10E94CF01892B89F487E1ED
:101220000E94CF01892B61F488E10E94CF01892BB4
:1012300039F489E10E94CF01892B11F43092000228
:1012400086E10E94CF01019721F480910002811173
:101250007AC087E10E94CF01019709F489C088E133
:101260000E94CF019C838B83019709F491C089E18F
:101270000E94CF01019709F078C080910002882375
:1012800009F473C084E090E00E9424041092CF031C
:101290003092D0037AC080910A0390910B03803181
:1012A000910509F454CF019609F055CF50CFFA813A
:1012B0002F2350962C9393CF02970CF4A1CF8F81BC
:1012C00098850897A20102C0559547958A95E2F73F
:1012D000498340954A830BED13E087E0682E712C1B
:1012E000822F90E09C838B83809131049091320413
:1012F0000297D4F0D80158962C9158978B819C81F5
:10130000062C02C0959587950A94E2F780FF16C0D7
:10131000B9812B2BF801208FF801408D622D6619C1
:1013200081E090E00E948B03F1E06F1A71080F5F7B
:101330001F4F2FEF62167206B9F662CFFA812F2384
:1013400058962C93E9CF81E090E00E9424048FEF1F
:101350009FEF9093CE038093CD033092CC031092F5
:10136000CF031092D003109200020E945A036ACD5C
:1013700080910002882309F472CF83E090E00E94FC
:1013800024043092CF031092D0031092CC03EBCF01
:1013900080910002882309F46ACF82E090E00E94E5
:1013A0002404AB81BC81B093CE03A093CD03D5CFF1
:1013B0008F929F92AF92BF92CF92DF92EF92FF9265
:1013C000CF93DF93EC01688179818A819B816115DC
:1013D00071058105910521F464E279ED8BE597E0D3
:1013E0002DE133EF41E050E00E947C0A49015A01AF
:1013F0009B01AC01A7EAB1E40E949B0A6B017C014E
:10140000ACEEB4EFA50194010E94A90AC60ED71E46
:10141000E81EF91EF7FE06C081E0C81AD108E108EF
:1014200080E8F80AC882D982EA82FB82C701B60145
:101430009F77DF91CF91FF90EF90DF90CF90BF909B
:10144000AF909F908F9008958F929F92AF92BF928E
:10145000CF92DF92EF92FF926091010270910202AF
:101460008091030290910402611571058105910537
:1014700021F464E279ED8BE597E02DE133EF41E073
:1014800050E00E947C0A49015A019B01AC01A7EA85
:10149000B1E40E949B0A6B017C01ACEEB4EFA501A4
:1014A00094010E94A90AC60ED71EE81EF91EF7FE77
:1014B00006C081E0C81AD108E10880E8F80AC092A5
:1014C0000102D0920202E0920302F0920402C701EC
:1014D000B6019F77FF90EF90DF90CF90BF90AF90D5
:1014E0009F908F9008956093010270930202809301
:1014F0000302909304020895052E97FB1EF40094B6
:101500000E94930A57FD07D00E94AE0A07FC03D041
:101510004EF40C94930A50954095309521953F4F89
:101520004F4F5F4F089590958095709561957F4FCF
:101530008F4F9F4F08950E94D00AA59F900DB49F92
:10154000900DA49F800D911D11240895B7FF0C9458
:101550009B0A0E949B0A821B930B0895A1E21A2EFC
:10156000AA1BBB1BFD010DC0AA1FBB1FEE1FFF1F47
:10157000A217B307E407F50720F0A21BB30BE40B97
:10158000F50B661F771F881F991F1A9469F76095DE
:101590007095809590959B01AC01BD01CF01089598
:1015A000A29FB001B39FC001A39F700D811D1124A4
:1015B000911DB29F700D811D1124911D0895EE0F94
:1015C000FF1F881F8BBF0790F691E02D1994FB0138
:1015D000DC0104C08D910190801921F441505040EC
:1015E000C8F7881B990B0895F894FFCF01010000FC
:1015F00000000000000000000000000000000000EB
:101600000000000000ED02570284023A03B5029385
:1016100002A7020D0A0041727269626100416261B3
:101620006A6F00436F6D696F204F626A65746976F7
:0E1630006F730047414D4552204F5645520002
:020000040003F7
:10E000000D9489F10D94B2F10D94B2F10D94B2F129
:10E010000D94B2F10D94B2F10D94B2F10D94B2F1F0
:10E020000D94B2F10D94B2F10D94B2F10D94B2F1E0
:10E030000D94B2F10D94B2F10D94B2F10D94B2F1D0
:10E040000D94B2F10D94B2F10D94B2F10D94B2F1C0
:10E050000D94B2F10D94B2F10D94B2F10D94B2F1B0
:10E060000D94B2F10D94B2F10D94B2F10D94B2F1A0
:10E070000D94B2F10D94B2F10D94B2F10D94B2F190
:10E080000D94B2F10D94B2F10D94B2F10D94B2F180
:10E090000D94B2F10D94B2F10D94B2F10D94B2F170
:10E0A0000D94B2F10D94B2F10D94B2F10D94B2F160
:10E0B0000D94B2F10D94B2F10D94B2F10D94B2F150
:10E0C0000D94B2F10D94B2F10D94B2F10D94B2F140
:10E0D0000D94B2F10D94B2F10D94B2F10D94B2F130
:10E0E0000D94B2F141546D656761323536300041AF
:10E0F000726475696E6F206578706C6F72657220DE
:10E1000073746B3530305632206279204D4C530099
:10E11000426F6F746C6F616465723E004875683F52
:10E1200000436F6D70696C6564206F6E203D200048
:10E130004350552054797065202020203D20005FF9
:10E140005F4156525F415243485F5F3D2000415658
:10E1500052204C696243205665723D20004743437C
:10E160002056657273696F6E203D20004350552024
:10E1700049442020202020203D20004C6F7720663D
:10E18000757365202020203D20004869676820665F
:10E190007573652020203D200045787420667573D6
:10E1A00065202020203D20004C6F636B2066757336
:10E1B000652020203D20004D617220203720323024
:10E1C000313300312E362E3800342E332E350056A2
:10E1D00023202020414444522020206F7020636F70
:10E1E00064652020202020696E73747275637469E1
:10E1F0006F6E2061646472202020496E74657272B3
:10E20000757074006E6F20766563746F7200726A49
:10E210006D702020006A6D70200057686174207056
:10E220006F72743A00506F7274206E6F7420737541
:10E2300070706F72746564004D7573742062652030
:10E2400061206C6574746572002000577269747483
:10E25000696E672045450052656164696E672045B7
:10E26000450045452065727220636E743D00504F35
:10E27000525400303D5A65726F2061646472003FF1
:10E280003D43505520737461747300403D454550C3
:10E29000524F4D207465737400423D426C696E6B41
:10E2A000204C454400453D44756D70204545505215
:10E2B0004F4D00463D44756D7020464C415348001B
:10E2C000483D48656C70004C3D4C69737420492F83
:10E2D0004F20506F72747300513D51756974005234
:10E2E0003D44756D702052414D00563D73686F7707
:10E2F00020696E7465727275707420566563746FF0
:10E30000727300593D506F727420626C696E6B00BD
:10E310002A0011241FBECFEFD1E2DEBFCDBF01E046
:10E320000CBF12E0A0E0B2E0EEE1FDEF03E00BBFB6
:10E3300002C007900D92A030B107D9F712E0A0E01B
:10E34000B2E001C01D92AE30B107E1F70F9460F367
:10E350000D948DFE01E20EBF0FEF0DBF11241FBE05
:10E360000D9460F30D9400F020E030E040ED57E0B4
:10E3700005C0FA013197F1F72F5F3F4F2817390792
:10E38000C0F308959C01260F311DC901A0E0B0E043
:10E390002F5F3F4FABBFFC018791882361F08093D3
:10E3A000C6008091C00086FFFCCF8091C0008064D1
:10E3B0008093C000EACF08958DE08093C6008091DD
:10E3C000C00086FFFCCF8091C00080648093C000B5
:10E3D0008AE08093C6008091C00086FFFCCF8091C8
:10E3E000C00080648093C00008950F94C2F10F9420
:10E3F000DCF10895FC019081992359F09093C600B7
:10E400008091C00086FFFCCF8091C0008064809323
:10E41000C0003196992379F70895282F982F929567
:10E420009F70892F805D8A3308F0895F8093C600D2
:10E430008091C00086FFFCCF8091C00080648093F3
:10E44000C000822F8F70982F905D9A3308F0995FEB
:10E450009093C6008091C00086FFFCCF8091C000E1
:10E4600080648093C00008959C01FB01853691056E
:10E470001CF46330710594F0C90164E670E00F94F8
:10E480002EFE605D7F4F6093C6008091C00086FFC6
:10E49000FCCF8091C00080648093C0002B30310598
:10E4A00014F43297B4F0C90164E670E00F942EFEC4
:10E4B0006AE070E00F942EFE605D7F4F6093C600AF
:10E4C0008091C00086FFFCCF8091C0008064809363
:10E4D000C000C9016AE070E00F942EFEC0968093E0
:10E4E000C6008091C00086FFFCCF8091C000806490
:10E4F0008093C00008951F93182F8EE692EE60E07F
:10E500000F94C2F11093C6008091C00086FFFCCF2B
:10E510008091C00080648093C0000F94DCF11F9153
:10E5200008952F923F924F925F926F927F928F92B7
:10E530009F92AF92BF92CF92DF92EF92FF920F9392
:10E540001F93DF93CF93CDB7DEB762970FB6F894E2
:10E55000DEBF0FBECDBF382E622ECA01DB015C01CB
:10E560006D01772420E2222E2E010894411C511CBB
:10E570008BC081E0A81680E0B80681E0C80680E084
:10E58000D80628F0C601AA27BB270F940DF2BB2797
:10E59000AD2D9C2D8B2D0F940DF28A2D0F940DF225
:10E5A0002092C6008091C00086FFFCCF8091C00001
:10E5B00080648093C0009DE29093C6008091C0006B
:10E5C00086FFFCCF8091C00080648093C0002092C1
:10E5D000C6008091C00086FFFCCF8091C00080649F
:10E5E0008093C00019828601750188249924A1E0D6
:10E5F0003A1651F03A1620F0B2E03B1661F409C029
:10E600000BBFF701779007C0C7010F9477FE782EF4
:10E6100002C0F7017080872D0F940DF22092C60082
:10E620008091C00086FFFCCF8091C0008064809301
:10E63000C000872D8052F401EF70F0708F3520F408
:10E64000E40DF51D708204C0E40DF51D8EE280839B
:10E650000894E11CF11C011D111D0894811C911CE2
:10E6600090E18916910409F0C2CF80E190E0A0E02A
:10E67000B0E0A80EB91ECA1EDB1E198AC2010F9493
:10E68000FAF10F94DCF16A94662009F072CF629679
:10E690000FB6F894DEBF0FBECDBFCF91DF911F91B3
:10E6A0000F91FF90EF90DF90CF90BF90AF909F9031
:10E6B0008F907F906F905F904F903F902F90089534
:10E6C0002F923F924F925F926F927F928F929F9282
:10E6D000AF92BF92CF92DF92EF92FF920F931F9370
:10E6E000DF93CF93CDB7DEB7CD53D1400FB6F894BB
:10E6F000DEBF0FBECDBF01E20EBF0FEF0DBF94B75F
:10E70000F894A89514BE80916000886180936000A1
:10E7100010926000789493FF05C0E0910002F091A0
:10E7200001021995279A2F9A8091C00082608093E8
:10E73000C00080E18093C40088E18093C1000000A4
:10E74000EE24FF24870144E0A42EB12CCC24DD2448
:10E7500024C0C5010197F1F70894E11CF11C011DCB
:10E76000111D21E2E2162EE4F20620E0020720E06D
:10E77000120718F031E0C32ED12CC801B70127ECE5
:10E780003BE140E050E00F9441FE611571058105C9
:10E79000910519F485B1805885B98091C00087FD35
:10E7A00003C0C114D104A9F2A6014F5F5F4FC25E3E
:10E7B000DE4F59834883CE51D140C25EDE4F8881FF
:10E7C0009981CE51D140019711F00D9410FEC05D9A
:10E7D000DE4F19821882C053D14060E0C15DDE4F28
:10E7E0001882CF52D14088249924C35DDE4F19820C
:10E7F0001882CD52D140C05EDE4F188219821A8233
:10E800001B82C052D140CE5CDE4F188219821A8220
:10E810001B82C253D140EE24FF2487010BBFF701B6
:10E8200007911691C45CDE4F19830883CC53D14005
:10E830000D940BFEC25EDE4F28813981CE51D1404E
:10E840002130310509F52091C600C25EDE4F1982E4
:10E850001882CE51D14022C02F5F3F4F4F4F5F4FA4
:10E86000213082E138078AE7480780E0580780F0C6
:10E87000C45CDE4FE881F981CC53D140EF5FFF4F9C
:10E8800019F0EE27FF27099420E030E040E050E047
:10E890008091C00087FFE0CF2091C600C35DDE4FAE
:10E8A00048815981CD52D1404F5F5F4FC35DDE4FEC
:10E8B00059834883CD52D140213209F063C64A3092
:10E8C000510508F05FC60894811C911C53E0851621
:10E8D000910409F059C600E010E018C081E280936D
:10E8E000C6008091C00086FFFCCF8091C00080648C
:10E8F0008093C0002F5F3F4F2931310579F70F9486
:10E90000DCF10F5F1F4F0530110519F020E030E0FA
:10E91000E5CF10920A0210920B0210920C02109294
:10E920000D02109206021092070210920802109235
:10E930000902109202021092030210920402109235
:10E9400005028FEE90EE60E00F94F5F180E191EE1C
:10E9500060E00F94C2F18091C00087FFFCCF9091DE
:10E96000C600903608F09F759032B8F09093C600BC
:10E970008091C00086FFFCCF8091C00080648093AE
:10E98000C000A0E2A093C6008091C00086FFFCCF2B
:10E990008091C00080648093C000983409F4D7C18E
:10E9A0009934B8F4923409F459C1933458F490333B
:10E9B00019F1903308F4E3C59F33A1F1903409F0C5
:10E9C000DEC5BDC0953409F470C1963409F0D7C5D1
:10E9D00098C1923509F42BC2933538F49C3409F46C
:10E9E000F5C1913509F0CBC518C2963509F445C279
:10E9F000993509F0C4C567C483E792EE62E00F94CD
:10EA0000F5F110920602109207021092080210927D
:10EA1000090210920A0210920B0210920C0210923C
:10EA20000D0213C18FE792EE62E00F94F5F18FEEC5
:10EA300090EE60E00F94F5F181E291EE60E00F94CA
:10EA4000C2F187EB91EE60E00F94F5F180E391EE77
:10EA500060E00F94C2F184EE90EE60E00F94F5F167
:10EA60008FE391EE60E00F94C2F186E090E061E008
:10EA700070E00F9434F20F94DCF18DE591EE60E0DC
:10EA80000F94C2F189EC91EE60E00F94F5F18EE401
:10EA900091EE60E00F94C2F183EC91EE60E00F9490
:10EAA000F5F18CE691EE60E00F94C2F18EE10F94E7
:10EAB0000DF288E90F940DF281E00F940DF20F949E
:10EAC000DCF18BE791EE60E00F94C2F119E0E0E039
:10EAD000F0E010935700E4918E2F0F940DF20F94F5
:10EAE000DCF18AE891EE60E00F94C2F1E3E0F0E03F
:10EAF00010935700E4918E2F0F940DF20F94DCF1D8
:10EB000089E991EE60E00F94C2F1E2E0F0E0109349
:10EB10005700E4918E2F0F940DF20F94DCF188EAE8
:10EB200091EE60E00F94C2F1E1E0F0E01093570045
:10EB30001491812F0F940DF20F94DCF107CF8BE825
:10EB400092EE62E00F94F5F18BE492EE60E00F94A8
:10EB5000F5F10F94DCF100E010E019C0C8016F2D51
:10EB60000F947FFEFF2031F489E492EE60E00F9471
:10EB7000C2F10BC0F092C6008091C00086FFFCCFAE
:10EB80008091C00080648093C0000F5F1F4FC80158
:10EB900081519F41A0E0B0E0ABBFFC01F790BAE229
:10EBA000FB1621F0E2E000301E07C1F60F94DCF105
:10EBB0000F94DCF187E592EE60E00F94F5F10F948D
:10EBC000DCF1CC24DD2400E010E01EC0C8010F946D
:10EBD00077FEF82E882331F489E492EE60E00F94FA
:10EBE000C2F10BC08093C6008091C00086FFFCCFAD
:10EBF0008091C00080648093C000FE1419F00894D6
:10EC0000C11CD11C0F5F1F4FC80181519F41A0E063
:10EC1000B0E0ABBFFC01E790FAE2EF1621F022E092
:10EC20000030120799F60F94DCF10F94DCF182E6C4
:10EC300092EE60E00F94C2F1C60161E070E00F94C3
:10EC400034F20F94DCF10F94DCF110920202109276
:10EC50000302109204021092050278CE89E992EE26
:10EC600062E00F94F5F1279A2F9A16C02F9880E052
:10EC700090E0E0EDF7E03197F1F7019684369105E9
:10EC8000C1F72F9A80E090E0E0EDF7E03197F1F7DF
:10EC9000019684369105C1F78091C00087FFE6CFC9
:10ECA0008091C00087FFFCCF64C485EA92EE62E0E9
:10ECB0000F94F5F140910202509103026091040219
:10ECC0007091050281E020E10F9491F2809102029F
:10ECD00090910302A0910402B091050280509F4FD1
:10ECE000AF4FBF4F8093020290930302A0930402A0
:10ECF000B093050280509041A040B04008F426CE69
:10ED0000A4CF83EB92EE62E00F94F5F140910602FE
:10ED100050910702609108027091090280E020E1A1
:10ED20000F9491F28091060290910702A09108023F
:10ED3000B091090280509F4FAF4FBF4F80930602A2
:10ED400090930702A0930802B0930902FFCD80ECD4
:10ED500092EE62E00F94F5F183E792EE60E00F949B
:10ED6000F5F18FE792EE60E00F94F5F18BE892EE0B
:10ED700060E00F94F5F189E992EE60E00F94F5F10F
:10ED800085EA92EE60E00F94F5F183EB92EE60E09D
:10ED90000F94F5F180EC92EE60E00F94F5F187ECC2
:10EDA00092EE60E00F94F5F188ED92EE60E00F9442
:10EDB000F5F18FED92EE60E00F94F5F18AEE92EEB0
:10EDC00060E00F94F5F183E093EEBDCD87EC92EE19
:10EDD00062E00F94F5F181E40F947BF282E40F94EA
:10EDE0007BF283E40F947BF284E40F947BF285E45E
:10EDF0000F947BF286E40F947BF287E40F947BF20E
:10EE000088E40F947BF28AE40F947BF28BE40F94F6
:10EE10007BF28CE40F947BF299CD88ED92EE62E068
:10EE20000F94F5F1772473948824992409C48FED05
:10EE300092EE62E00F94F5F140910A0250910B02BC
:10EE400060910C0270910D0282E020E10F9491F22A
:10EE500080910A0290910B02A0910C02B0910D02D8
:10EE600080509F4FAF4FBF4F80930A0290930B0289
:10EE7000A0930C02B0930D0269CD8AEE92EE62E08F
:10EE80000F94F5F184EE90EE60E00F94F5F18FECC5
:10EE900091EE60E00F94F5F1662477244301CC5D98
:10EEA000DE4F19821882C452D140D401C301B695F5
:10EEB000A79597958795CA5DDE4F88839983AA8326
:10EEC000BB83C652D140CC5DDE4FA881B981C4520C
:10EED000D1401196CC5DDE4FB983A883C452D14096
:10EEE000CD0162E070E00F9434F2B0E2B093C6005E
:10EEF0008091C00086FFFCCF8091C0008064809329
:10EF0000C000EDE2E093C6008091C00086FFFCCF18
:10EF10008091C00080648093C000F0E2F093C6004E
:10EF20008091C00086FFFCCF8091C00080648093F8
:10EF3000C000CA5DDE4FE880F9800A811B81C6529D
:10EF4000D140BB27A12F902F8F2D0F940DF2CA5DBA
:10EF5000DE4F8881C652D1400F940DF2B0E2FB2EF5
:10EF6000F092C6008091C00086FFFCCF8091C00067
:10EF700080648093C0000DE30093C6008091C000C0
:10EF800086FFFCCF8091C00080648093C00010E2B7
:10EF90001093C6008091C00086FFFCCF8091C00016
:10EFA00080648093C0008BBEF3012791C65DDE4F65
:10EFB0002883CA52D140A22EBB24CC24DD2408943D
:10EFC000611C711C811C911C8BBEF3018791282E42
:10EFD0003324442455240894611C711C811C911C09
:10EFE0008BBEF3013791C55DDE4F3883CB52D140E4
:10EFF0000894611C711C811C911C8BBEF30147910C
:10F00000C45DDE4F4883CC52D140ADEFEA2EAFEF66
:10F01000FA2EAFEF0A2FAFEF1A2F6E0C7F1C801E57
:10F02000911E142D032DF22CEE24EA0CFB1C0C1D5A
:10F030001D1D0F940DF220E22093C6008091C000A8
:10F0400086FFFCCF8091C00080648093C000C65DC5
:10F05000DE4F8881CA52D1400F940DF230E23093D6
:10F06000C6008091C00086FFFCCF8091C000806404
:10F070008093C000C45DDE4F8881CC52D1400F9494
:10F080000DF240E24093C6008091C00086FFFCCFA5
:10F090008091C00080648093C000C55DDE4F888190
:10F0A000CB52D1400F940DF250E25093C6008091A4
:10F0B000C00086FFFCCF8091C00080648093C000B8
:10F0C0008FEFE8168FEFF80680E0080780E018075A
:10F0D00031F484E092EE60E00F94C2F1DFC0D80119
:10F0E000C7018070907CA070B0708050904CA040A0
:10F0F000B040D1F52FEF3FE340E050E0E222F322B1
:10F1000004231523CA5DDE4FA880B980CA80DB8046
:10F11000C652D140AE0CBF1CC01ED11EAA0CBB1CD7
:10F12000CC1CDD1C8EE092EE60E00F94C2F1BB2798
:10F13000A12F902F8F2D0F940DF28E2D0F940DF285
:10F1400030E23093C6008091C00086FFFCCF8091F2
:10F15000C00080648093C0004EE34093C60080915D
:10F16000C00086FFFCCF87C08EE09EEFA0E0B0E03D
:10F17000E822F9220A231B239CE0E91694E9F90608
:10F1800090E0090790E0190709F088C0C45DDE4FE0
:10F19000A881CC52D140EA2EFF2400E010E0102FCD
:10F1A0000F2DFE2CEE24C55DDE4FB881CB52D14031
:10F1B000EB0EF11C011D111DD601C501817090706F
:10F1C000A070B070DC0199278827E80EF91E0A1F8D
:10F1D0001B1F20EF30E040E050E0A222B322C42207
:10F1E000D52241E1AA0CBB1CCC1CDD1C4A95D1F7F1
:10F1F000EA0CFB1C0C1D1D1D81E090E0A0E0B0E0BE
:10F20000282239224A225B2235E1220C331C441C7D
:10F21000551C3A95D1F7E20CF31C041D151D57013E
:10F220006801AA0CBB1CCC1CDD1C85E192EE60E0E1
:10F230000F94C2F1C801AA27BB270F940DF2BB2778
:10F24000A12F902F8F2D0F940DF28E2D0F940DF274
:10F2500090E29093C6008091C00086FFFCCF809121
:10F26000C00080648093C000AEE3A093C60080918C
:10F27000C00086FFFCCF8091C00080648093C000F6
:10F28000C601AA27BB270F940DF2BB27AD2D9C2DDD
:10F290008B2D0F940DF28A2D0F940DF20F94DCF14B
:10F2A000CC5DDE4FE881F981C452D140F99709F471
:10F2B0004DCBF4E0EF2EF12C012D112D6E0C7F1CA7
:10F2C000801E911EF2CD83E093EE62E00F94F5F183
:10F2D0008AE192EE60E00F94C2F18091C00087FF56
:10F2E000FCCF1091C6001F751093C6008091C0001E
:10F2F00086FFFCCF8091C00080648093C0000F9493
:10F30000DCF1812F81548A3108F036C1163409F4BA
:10F3100095C0173490F4133409F44EC0143430F40B
:10F320001134F1F0123409F01DC130C0143409F465
:10F3300059C0153409F016C16BC01A3409F4C4C0A1
:10F340001B3438F4173409F48FC0183409F00AC19B
:10F35000A1C01B3409F4D2C01C3409F003C1E8C0B9
:10F360008FEF81B90DC082B1809582B980E090E0C5
:10F37000E0EDF7E03197F1F70196883C9105C1F790
:10F380008091C00087FFEFCF12B8EFC08FEF84B934
:10F390000DC085B1809585B980E090E0E0EDF7E0A3
:10F3A0003197F1F70196883C9105C1F78091C00033
:10F3B00087FFEFCF15B8D9C08FEF87B90DC088B1DF
:10F3C000809588B980E090E0E0EDF7E03197F1F7C3
:10F3D0000196883C9105C1F78091C00087FFEFCF6F
:10F3E00018B8C3C08FEF8AB90DC08BB180958BB9A7
:10F3F00080E090E0E0EDF7E03197F1F70196883C8E
:10F400009105C1F78091C00087FFEFCF1BB8ADC059
:10F410008FEF8DB90DC08EB180958EB980E090E0F0
:10F42000E0EDF7E03197F1F70196883C9105C1F7DF
:10F430008091C00087FFEFCF1EB897C08FEF80BBD1
:10F440000DC081B3809581BB80E090E0E0EDF7E0F6
:10F450003197F1F70196883C9105C1F78091C00082
:10F4600087FFEFCF11BA81C08FEF83BB0DC084B38C
:10F47000809584BB80E090E0E0EDF7E03197F1F714
:10F480000196883C9105C1F78091C00087FFEFCFBE
:10F4900014BA6BC08FEF809301010FC080910201FD
:10F4A00080958093020180E090E0E0EDF7E03197F5
:10F4B000F1F70196883C9105C1F78091C00087FF64
:10F4C000EDCF1092020151C08FEF809304010FC065
:10F4D0008091050180958093050180E090E0E0ED4A
:10F4E000F7E03197F1F70196883C9105C1F78091DB
:10F4F000C00087FFEDCF1092050137C08FEF8093DA
:10F5000007010FC08091080180958093080180E079
:10F5100090E0E0EDF7E03197F1F70196883C910536
:10F52000C1F78091C00087FFEDCF109208011DC088
:10F530008FEF80930A010FC080910B01809580931B
:10F540000B0180E090E0E0EDF7E03197F1F70196F4
:10F55000883C9105C1F78091C00087FFEDCF1092E4
:10F560000B0103C085E292EEEEC98091C00087FFD7
:10F57000FCCF8091C600EAC988E392EEE4C98CE131
:10F5800091EEE1C988249924933011F1943028F444
:10F59000913089F09230B8F408C0953061F195301F
:10F5A000F0F0963009F048C043C02B3109F042C951
:10F5B00091E06BE13FC96227C15DDE4F2883CF52E6
:10F5C000D14092E037C9B22FA0E0622793E032C960
:10F5D000822F90E0A82BB92B622794E02BC92E3004
:10F5E00009F039C3622795E0C05DDE4F19821882A9
:10F5F000C053D1401FC9E1E0F0E0EC0FFD1FC05D3A
:10F60000DE4F08811981C053D140E00FF11F2083E4
:10F610000F5F1F4FC05DDE4F19830883C053D14079
:10F6200062270A171B0709F005C9D80196E002C92D
:10F63000261709F010C303C0973009F0FBC87724E0
:10F640009981933109F412C19431C8F4963009F4C8
:10F65000D8C0973050F4923009F406C1933009F4C1
:10F660006DC0913009F059C253C0913109F477C08F
:10F67000923108F0BBC0903109F04FC2F5C098310B
:10F6800009F487C0993150F4953109F4EFC09531F0
:10F6900008F4C6C1963109F040C2C2C19A3109F4DA
:10F6A0006CC09A3108F491C09B3109F45BC09D3164
:10F6B00009F033C29D81903359F48F81882311F46E
:10F6C0009EE11CC0813011F091E018C098E916C08D
:10F6D000892F807591F0903539F4E0E0F0E089E011
:10F6E0008093570094910AC0983539F4E3E0F0E034
:10F6F00089E080935700949101C090E01A821B82A8
:10F700008D818C831D829E831F8227E030E009C299
:10F710001A8288E08B8381E48C8386E58D8382E581
:10F720008E8389E48F8383E5888780E589878FE5E9
:10F730008A8782E38B872BE030E0F3C18A818139AD
:10F7400041F0823941F0803911F48FE005C080E04A
:10F7500003C082E001C08AE01A828B8344C0772410
:10F76000739482C08D81882311F48EE12CC0813086
:10F7700011F081E028C088E926C01A82E1E0F0E0BB
:10F7800089E08093570084918B831C8224E030E0D1
:10F79000C8C18B81803589F48C81883039F4E2E0EE
:10F7A000F0E089E08093570084910DC0E0E0F0E044
:10F7B00089E080935700849106C0E3E0F0E089E09F
:10F7C0008093570084911A82DFCF8D81836C99E0FA
:10F7D000E1E0F0E0082E90935700E89507B600FCB2
:10F7E000FDCF1A821B8223E030E09BC180EC8A832C
:10F7F000CE5CDE4F188219821A821B82C253D1401E
:10F800008EC18A8190E0A0E0B0E0582F44273327D2
:10F8100022278B8190E0A0E0B0E0DC0199278827C7
:10F82000282B392B4A2B5B2B8D8190E0A0E0B0E098
:10F83000282B392B4A2B5B2B8C8190E0A0E0B0E089
:10F84000BA2FA92F982F8827282B392B4A2B5B2BCF
:10F85000220F331F441F551FC05EDE4F288339839C
:10F860004A835B83C052D1401A8259C13A81C95C34
:10F87000DE4F3883C753D140CA5CDE4F1882C6536F
:10F88000D1408B81C82EDD24CA5CDE4F488159816E
:10F89000C653D140C42AD52A933109F082C0CE5C28
:10F8A000DE4F88819981AA81BB81C253D1408050AB
:10F8B000904CA340B04030F583E0CE5CDE4FE88052
:10F8C000F9800A811B81C253D140F70100935B008C
:10F8D00080935700E89507B600FCFDCFCE5CDE4F65
:10F8E000088119812A813B81C253D14000501F4FAA
:10F8F0002F4F3F4FCE5CDE4F088319832A833B8313
:10F90000C253D140C05EDE4F488159816A817B81FC
:10F91000C052D140DE011B9631E08C9111962C91A2
:10F9200011971296C75CDE4F2883C953D140C85C3B
:10F93000DE4F1882C853D14090E0C85CDE4FE881AA
:10F94000F981C853D1408E2B9F2B0C01FA01609393
:10F950005B0030935700E89511244E5F5F4F6F4F67
:10F960007F4F0EEFE02E0FEFF02ECE0CDF1CC114F8
:10F97000D10499F685E0C05EDE4F088119812A81A5
:10F980003B81C052D140F80120935B008093570027
:10F99000E89507B600FCFDCF81E180935700E8951C
:10F9A00035C0C05EDE4F88819981AA81BB81C0527B
:10F9B000D140B695A795979587957C018601ABE0D8
:10F9C000AA2EB12CAC0EBD1E0BC0D5016D915D01F0
:10F9D000C7010F947FFE0894E11CF11C01501040F8
:10F9E0000115110591F7A60160E070E0440F551F65
:10F9F000661F771FC05EDE4FE880F9800A811B8199
:10FA0000C052D1404E0D5F1D601F711F1A82C05E33
:10FA1000DE4F488359836A837B83C052D1407FC0C5
:10FA2000FA80C55CDE4FF882CB53D140C65CDE4F16
:10FA30001882CA53D1408B81C82EDD24C65CDE4FAC
:10FA400008811981CA53D140C02AD12A1A828981DA
:10FA5000BE016D5F7F4F843121F59601C05EDE4FA0
:10FA6000E880F9800A811B81C052D1400BBFF701A9
:10FA700087919691DB018C9311969C936E5F7F4FDB
:10FA8000D801C7010296A11DB11DC05EDE4F88835B
:10FA90009983AA83BB83C052D14022503040F1F6F3
:10FAA00036C0C05EDE4F288139814A815B81C052F9
:10FAB000D1400894C108D108760100E010E0089414
:10FAC000C11CD11C0894E11CF11C011D111DE20E8A
:10FAD000F31E041F151F21BDBB27A52F942F832FB5
:10FAE00082BD2F5F3F4F4F4F5F4FF89A80B5DB01CC
:10FAF0008D93BD012E153F054007510761F7C05E8C
:10FB0000DE4F288339834A835B83C052D1409601FC
:10FB10002D5F3F4FFB01108204C080EC8A8322E0FE
:10FB200030E08BE18093C6008091C00086FFFCCF5F
:10FB30008091C00080648093C000C15DDE4FF88179
:10FB4000CF52D140F093C6008091C00086FFFCCF19
:10FB50008091C00080648093C000432F3093C60022
:10FB60008091C00086FFFCCF8091C00080648093AC
:10FB7000C000922F2093C6008091C00086FFFCCF6A
:10FB80008091C00080648093C0008EE08093C600A6
:10FB90008091C00086FFFCCF8091C000806480937C
:10FBA000C00065E1C15DDE4FE880CF52D1406E25D7
:10FBB00069276427FE01319610C090819093C6009A
:10FBC0008091C00086FFFCCF31968091C000806498
:10FBD0008093C0006927215030402115310569F715
:10FBE0006093C6008091C00086FFFCCF8091C0006A
:10FBF00080648093C00085B1805885B9772081F4F6
:10FC0000C15DDE4F0881CF52D1400F5FC15DDE4F35
:10FC10000883CF52D14090E0A0E0B0E00D941AF4F8
:10FC200027982F9880E090E020ED37E0F901319798
:10FC3000F1F7019684369105C9F700008091C00064
:10FC40008D7F8093C00081E180935700E895EE2777
:10FC5000FF270994FFCF90E00D941AF497FB092E2B
:10FC600007260AD077FD04D02ED006D000201AF443
:10FC7000709561957F4F0895F6F7909581959F4F08
:10FC80000895A1E21A2EAA1BBB1BFD010DC0AA1FDD
:10FC9000BB1FEE1FFF1FA217B307E407F50720F0F5
:10FCA000A21BB30BE40BF50B661F771F881F991F70
:10FCB0001A9469F760957095809590959B01AC01B9
:10FCC000BD01CF010895AA1BBB1B51E107C0AA1FAC
:10FCD000BB1FA617B70710F0A61BB70B881F991FED
:10FCE0005A95A9F780959095BC01CD010895F99991
:10FCF000FECF92BD81BDF89A992780B50895262F31
:10FD0000F999FECF1FBA92BD81BD20BD0FB6F89400
:0EFD1000FA9AF99A0FBE01960895F894FFCF63
:00000001FF
