:020000040000FA
:100000000C9449010C947A010C947A010C947A01B5
:100010000C947A010C947A010C947A010C947A0174
:100020000C947A010C947A010C947A010C947A0164
:100030000C947A010C947A010C947A010C947A0154
:100040000C947A010C947A010C947A010C947A0144
:100050000C947A010C947A010C947A010C94F505B5
:100060000C947A010C9469060C943F060C947A0166
:100070000C947A010C947A010C947A010C947A0114
:100080000C947A010C947A010C947A010C947A0104
:100090000C947A010C947A010C947A010C947A01F4
:1000A0000C947A010C947A010C947A010C947A01E4
:1000B0000C947A010C947A010C947A010C947A01D4
:1000C0000C947A010C947A010C947A010C947A01C4
:1000D0000C947A010C947A010C947A010C947A01B4
:1000E0000C947A010C941E030C9449040C94B103F3
:1000F0000C94D1010C94CD010C94DB010C940A03F7
:100100000C94FB020C94A4010C9441040C94AC01DB
:100110000C942D040C9431040C949A010C94390421
:100120000C94BF010C949F060C94DF010C944504C1
:100130000C94B9010C94A0010C94CE020C94B5015E
:100140000C9464030C9429040C942C030C943D042B
:100150000C94C7010C9435040C94DA010C94C3017F
:100160000C94AF010C9421040C94A8010C94D501BB
:1001700000002100240027002A002D003000330059
:1001800001010000040107010A010000220025000E
:1001900028002B002E003100340002010000050170
:1001A00008010B01000020002300260029002C007C
:1001B0002F003200000100000301060109010505BE
:1001C0000505070508080808020202020A0A0808CD
:1001D00004040404010101010101010103030303FB
:1001E00003030303040707070C0C0C0C0C0C0C0C8A
:1001F0000202020206060606060606060B0B0B0B9B
:100200000B0B0B0B010210202008081020401020BF
:1002100040800201020108040201010204081020CA
:1002200040808040201008040201800402018040C8
:100230002010080402010804020101020408102031
:100240004080010204081020408000000A0B0209CF
:100250000C0D0E0807030401000000000000000060
:10026000000000000000000000000000000000008E
:10027000000000000000121110000000000000004B
:10028000000000000000000000000000000000006E
:100290009F0611241FBECFEFD1E2DEBFCDBF00E02D
:1002A0000CBF13E0A0E0B2E0EAE2FCE100E00BBF2B
:1002B00002C007900D92A031B107D9F725E0A0E167
:1002C000B3E001C01D92AA30B207E1F711E0C9E422
:1002D000D1E000E006C021970109802FFE010E94B5
:1002E000EA0DC834D10780E00807A9F70E94AB07E0
:1002F0000C94130E0C9400008150823108F05AC007
:10030000E82FF0E08827E857FE4F8F4F0C94EA0D56
:10031000A801AC019A01A001A401DA01AF01B50165
:10032000B901BF01C301C701CD01D101DA01D50176
:10033000DB01DF01809180008F778093800008953A
:10034000809180008F7DF9CF80918000877FF5CFED
:1003500084B58F7784BD089584B58F7DFBCF809160
:10036000B0008F778093B00008958091B0008F7DAA
:10037000F9CF809190008F778093900008958091BD
:1003800090008F7DF9CF80919000877FF5CF80918D
:10039000A0008F778093A00008958091A0008F7DAA
:1003A000F9CF8091A000877FF5CF809120018F77D2
:1003B000809320010895809120018F7DF9CF809155
:1003C0002001877FF5CFCF93DF93282F30E0F9010D
:1003D000E65BFD4F8491F901EC5FFD4FD491F9018B
:1003E000E254FE4FC491CC23A1F081110E947C0104
:1003F000EC2FF0E0EE0FFF1FEC55FE4FA591B491EE
:10040000EC91ED2381E090E009F480E0DF91CF9161
:10041000089580E090E0FACF1F93CF93DF93282FC9
:1004200030E0F901E65BFD4F8491F901EC5FFD4F8F
:10043000D491F901E254FE4FC491CC23A9F0162FB8
:1004400081110E947C01EC2FF0E0EE0FFF1FE657B8
:10045000FE4FA591B4918FB7F894EC91111108C09B
:10046000D095DE23DC938FBFDF91CF911F9108954C
:10047000DE2BF8CFCF93DF9390E0FC01EC5FFD4FD4
:10048000249182549E4FFC0184918823D1F090E006
:10049000880F991FFC01E059FE4FA591B491FC0112
:1004A000E657FE4FC591D49161110EC09FB7F894E5
:1004B0008C91E22FE0958E238C932881E223E883B0
:1004C0009FBFDF91CF9108958FB7F894EC91E22B05
:1004D000EC938FBFF6CF3FB7F89480913A03909199
:1004E0003B03A0913C03B0913D0326B5A89B05C0FA
:1004F0002F3F19F00196A11DB11D3FBFBA2FA92FA3
:10050000982F8827BC01CD01620F711D811D911D9F
:1005100042E0660F771F881F991F4A95D1F708950B
:100520008F929F92AF92BF92CF92DF92EF92FF9203
:100530004B015C010E946B026B017C010E946B020B
:100540006C197D098E099F09683E734081059105EC
:10055000A8F321E0821A9108A108B10888EEC80E1C
:1005600083E0D81EE11CF11C81149104A104B104A4
:1005700029F7FF90EF90DF90CF90BF90AF909F90C2
:100580008F9008952FB7F8946091360370913703D8
:1005900080913803909139032FBF0895AF92BF9295
:1005A000CF92DF92EF92FF920F931F93CF93DF933F
:1005B0006C017B018B01040F151FEB015E01AE186E
:1005C000BF08C017D10759F06991D601ED91FC9190
:1005D0000190F081E02DC6011995892B79F7C501AD
:1005E000DF91CF911F910F91FF90EF90DF90CF900F
:1005F000BF90AF900895FC01538D448D252F30E0BE
:10060000842F90E0821B930B541710F0CF9608951F
:1006100001970895FC01918D828D981761F0A28D4C
:10062000AE0FBF2FB11D5D968C91928D9F5F9F7312
:10063000928F90E008958FEF9FEF0895FC01918DC8
:10064000828D981731F0828DE80FF11D858D90E035
:1006500008958FEF9FEF0895FC01918D228D892FD2
:1006600090E0805C9F4F821B91098F7399270895BA
:100670008EE393E00E942C0321E0892B09F420E013
:10068000822F0895FC01A48DA80FB92FB11DA35A84
:10069000BF4F2C91848D90E001968F739927848FA2
:1006A000A689B7892C93A089B1898C9183708064C5
:1006B0008C93938D848D981306C00288F389E02D66
:1006C00080818F7D80830895EF92FF920F931F9317
:1006D000CF93DF93EC0181E0888F9B8D8C8D9813F5
:1006E0001AC0E889F989808185FF15C09FB7F89401
:1006F000EE89FF896083E889F9898081837080644D
:1007000080839FBF81E090E0DF91CF911F910F9197
:10071000FF90EF900895F62E0B8D10E00F5F1F4FA6
:100720000F731127E02E8C8D8E110CC00FB607FCB5
:10073000FACFE889F989808185FFF5CFCE010E9443
:100740004203F1CFEB8DEC0FFD2FF11DE35AFF4F6C
:10075000F0829FB7F8940B8FEA89FB8980818062D1
:10076000CFCFCF93DF93EC01888D8823B9F0AA898E
:10077000BB89E889F9898C9185FD03C0808186FD5C
:100780000DC00FB607FCF7CF8C9185FFF2CF8081AB
:1007900085FFEDCFCE010E944203E9CFDF91CF91DB
:1007A000089580E090E0892B29F00E9438038111A0
:1007B0000E94000080E090E0892B49F080E090E00A
:1007C000892B29F00E94000081110E94000080E026
:1007D00090E0892B49F080E090E0892B29F00E947D
:1007E000000081110E94000080E090E0892B49F018
:1007F00080E090E0892B29F00E94000081110C9488
:100800000000089580E1EFE4F2E0A3E2B3E001909C
:100810000D928A95E1F70895DB018A309105C0F4C5
:10082000FC018827E95EFB4F8F4F0C94EA0D4904C9
:10083000210429042D043104350439043D04410404
:10084000450488E0E7E4F2E001900D928A95E1F733
:10085000089588E0EFE3F2E0F7CF88E0E7E3F2E025
:10086000F3CF88E0EFE2F2E0EFCF88E0E7E2F2E0FA
:10087000EBCF88E0EFE1F2E0E7CF88E0E7E1F2E0FC
:10088000E3CF88E0EFE0F2E0DFCF88E0E7E0F2E0FE
:10089000DBCF88E0E4EDF2E0D7CFCF92DF92EF92AA
:1008A000FF920F931F93CF93DF931F921F92CDB7A9
:1008B000DEB769834A83880F991F0091080510915C
:1008C0000905000F111FE2EBF4E09F01225B3440A9
:1008D0002017310714F41192F8CF2981FC01EE544E
:1008E000FB4F21838A81808360E0809106050E940E
:1008F0000C021016110604F501501109F801EE540E
:10090000FB4FE080D0900405C090020588E0F82EEF
:100910006E2D661F6627661F8C2D0E940C02EE0C42
:1009200061E08D2D0E940C0260E08D2D0E940C0272
:10093000FA94F110EDCFDDCF61E0809106050F90C4
:100940000F90DF91CF911F910F91FF90EF90DF906B
:10095000CF900C940C028F929F92AF92BF92CF9245
:10096000DF92EF92FF920F931F93CF93DF9320912B
:10097000080530910905821793070CF03FC06830D5
:100980007105E0F58C016C0183E0CC0CDD1C8A95CF
:10099000E1F780E890E002C0959587956A95E2F7C7
:1009A000882E982E9094D0E0C0E0E42EF12C97E0B1
:1009B000A92EB12C809108059091090508171907F7
:1009C000CCF4F601EC0FFD1FEE54FB4F808995012E
:1009D0002C1B3D0BA70102C0559547952A95E2F7C0
:1009E00040FF19C08829808B40896C2F6F5FC80138
:1009F0000E944D042196C830D105E1F6DF91CF91D8
:100A00001F910F91FF90EF90DF90CF90BF90AF902C
:100A10009F908F9008958921E6CF0F931F93CF93D6
:100A2000DF9303E213E0D0E0C0E0F80141918F01D1
:100A3000BE0190E080E0C830D10524F06850710913
:100A400081E090E00E94AB042196C031D10569F7A6
:100A5000DF91CF911F910F910895EF92FF921F9315
:100A6000CF93DF93209108053091090582179307F2
:100A7000B4F4EC0123E0880F991F2A95E1F79C015B
:100A80002E533B4F790111E0F70111927F0140E0B5
:100A9000612FCE010E944D041F5F1930A9F7DF912D
:100AA000CF911F91FF90EF900895FC0101900020DD
:100AB000E9F73197AF01481B590BBC018EE393E076
:100AC0000C94CE02CF93DF930E945505EC018EEE7D
:100AD00092E00E9455058C0F9D1FDF91CF910895E4
:100AE0008F929F92AF92BF92CF92DF92EF92FF923E
:100AF0000F931F93CF93DF93CDB7DEB7A1970FB6B8
:100B0000F894DEBF0FBECDBF6C01990FEE08FF0851
:100B1000F7FE47C06DE28EE393E00E9464038C0110
:100B200022273327A9012C193D094E095F0919A273
:100B3000CE0181967C019AE0892E912CA12CB12CBA
:100B4000CA01B901A50194010E94A50D605DF701DC
:100B500062937F01211531054105510589F790E028
:100B600080E0309719F0CF010E945505080F191F3A
:100B70008EEE92E00E945505800F911FA1960FB650
:100B8000F894DEBF0FBECDBFDF91CF911F910F91C3
:100B9000FF90EF90DF90CF90BF90AF909F908F909D
:100BA0000895A701960119A28E010F5D1F4F8AE0DB
:100BB000C82ED12CE12CF12CCA01B901A701960154
:100BC0000E94A50D605DF80162938F01211531052A
:100BD0004105510589F7309729F0CF010E9455054D
:100BE0008C01C6CF10E000E0C3CF1F920F920FB66A
:100BF0000F9211242F933F938F939F93AF93BF93A3
:100C00008091360390913703A0913803B091390356
:100C10003091350323E0230F2D3758F50196A11DA0
:100C2000B11D209335038093360390933703A0932F
:100C30003803B093390380913A0390913B03A0911C
:100C40003C03B0913D030196A11DB11D80933A0371
:100C500090933B03A0933C03B0933D03BF91AF91AE
:100C60009F918F913F912F910F900FBE0F901F90EA
:100C7000189526E8230F0296A11DB11DD2CF1F9211
:100C80000F920FB60F9211240BB60F922F933F9332
:100C90004F935F936F937F938F939F93AF93BF9384
:100CA000EF93FF938EE393E00E944203FF91EF9155
:100CB000BF91AF919F918F917F916F915F914F9174
:100CC0003F912F910F900BBE0F900FBE0F901F9072
:100CD00018951F920F920FB60F9211240BB60F9218
:100CE0002F938F939F93EF93FF93E0914E03F09197
:100CF0004F038081E0915403F091550382FD1DC0A4
:100D00009081809157038F5F8F73209158038217D2
:100D100041F0E0915703F0E0E25CFC4F958F809347
:100D20005703FF91EF919F918F912F910F900BBEE1
:100D30000F900FBE0F901F9018958081F2CFCF9229
:100D4000DF92EF92FF92CF93DF93109241031092C4
:100D5000400388EE93E0A0E0B0E0809342039093DC
:100D60004303A0934403B093450380EE92E0909335
:100D70003F0380933E0385EC90E090934B03809378
:100D80004A0384EC90E090934D0380934C0380ECF5
:100D900090E090934F0380934E0381EC90E090930A
:100DA00051038093500382EC90E09093530380931F
:100DB000520386EC90E09093550380935403109275
:100DC0005703109258031092590310925A03C3E329
:100DD000D0E0D0930305C093020584E390E09093A4
:100DE00005058093040585E390E0909307058093C3
:100DF000060582E090E0909309058093080561E084
:100E000083E30E943A0261E0809104050E943A0265
:100E100061E0809106050E943A0261E0809106053A
:100E20000E940C02D0930305C0930205E2ECF4E0AB
:100E300082E095E011928E179F07E1F7D0E0C0E0C5
:100E40008091080590910905C817D9073CF540E045
:100E50006FE0CE010E944D04809108059091090534
:100E6000C817D9072CF447E06BE0CE010E944D046F
:100E700040E069E0CE010E944D04CE010E942D05A4
:100E80008091080590910905C817D9072CF440E016
:100E90006CE0CE010E944D042196D2CF0E941B0D22
:100EA0002FE030E040E050E00E94730D7093AF04FB
:100EB0006093AE040E941B0D27E030E040E050E05C
:100EC0000E94730D7093B1046093B00487E0C82E44
:100ED000D12CE12CF12C2091B0043091B1042430BC
:100EE000310559F40E941B0DA70196010E94730D54
:100EF0007093B1046093B004EECF81E0982F01C0ED
:100F0000990F2A95EAF79093AD0422E030E03093F0
:100F1000A3042093A2041092DC031092DB0310922E
:100F2000DE031092DD0398E090935D0494E09093CB
:100F30005E0410929D041092A10491E09093A0048D
:100F400080939E0410929F04DF91CF91FF90EF90C9
:100F5000DF90CF900895789484B5826084BD84B585
:100F6000816084BD85B5826085BD85B5816085BDA4
:100F700080916E00816080936E001092810080915C
:100F800081008260809381008091810081608093E4
:100F90008100809180008160809380008091B10009
:100FA00084608093B1008091B00081608093B00034
:100FB0008091910082608093910080919100816086
:100FC0008093910080919000816080939000809147
:100FD000A10082608093A1008091A1008160809334
:100FE000A1008091A00081608093A00080912101E8
:100FF0008260809321018091210181608093210191
:101000008091200181608093200180917A0084602A
:1010100080937A0080917A00826080937A00809138
:101020007A00816080937A0080917A008068809352
:101030007A001092C100E0914E03F0914F0382E0DC
:101040008083E0914A03F0914B031082E0914C03BE
:10105000F0914D038FEC808310925603E091520380
:10106000F091530386E08083E0915003F0915103A7
:10107000808180618083E0915003F09151038081F1
:1010800088608083E0915003F091510380818068F3
:101090008083E0915003F091510380818F7D8083A4
:1010A00080910805909109051816190634F441E05D
:1010B0006CE090E080E00E944D04809108059091E2
:1010C00009051816190634F44FE06AE090E080E054
:1010D0000E944D0490E080E00E942D05809108055B
:1010E00090910905029734F041E06CE081E090E0D6
:1010F0000E944D048091080590910905029734F0F3
:101100004FE06AE081E090E00E944D0481E090E0D1
:101110000E942D0560E086E10E943A0260E088E1CD
:101120000E943A0260E087E10E943A0260E089E1B1
:101130000E943A021092340310923303C1E0D4E0CB
:10114000F3E04F2E512C612C712CAAE02A2E312C69
:1011500080913303909134038130910509F4C6C026
:1011600050F08230910509F4CCC3039709F454C3BD
:101170000E94D103EDCF0E94020400910102109160
:1011800002026AE173E0C8010E940C0488E0E4ED09
:10119000F2E0A3E2B3E001900D928A95E1F788E0D6
:1011A000EAE1F3E0ABE2B3E001900D928A95E1F75A
:1011B0000E940D0582E090E09093A3048093A20426
:1011C0001092DC031092DB031092DE031092DD0319
:1011D00028E020935D04D0935E0410929D04109249
:1011E000A104C093A00481E090E090939F048093B9
:1011F0009E046801012E000CEE08FF0831E0C31ABE
:10120000D108E108F108A0E0BDEFA70196010E9416
:10121000A00DA30192010E94730D3C5F4F4F5F4FE1
:101220003093A8042093A704A8E8BFEFA701960174
:101230000E94A00DA30192010E94730D20583F4F00
:101240004F4F5F4F3093AC042093AB0487E10E9473
:10125000E301892B69F489E10E94E301892B41F4C0
:101260008AE10E94E301892B19F4C093000280CF28
:1012700087E10E94E301019721F48091000281112E
:1012800017C089E10E94E30181309105E9F08AE10C
:101290000E94E3018130910509F06ACF209100029C
:1012A000222309F465CF909334038093330360CFF6
:1012B0000F5F1F4F84E090E00530110564F4109338
:1012C0000202009301020BC0209100022223F9F2D6
:1012D00001501109A1F7909302028093010264EF7B
:1012E00071E080E090E00E94900242CF0E940204F0
:1012F0004091A2045091A3040BED13E0ADE5B4E0DE
:10130000980190E080E04817590769F0F901619170
:1013100071919F01FB01ED5DFC4F7D916081672B19
:1013200060830196F0CFE091AE04F091AF04ED5DE3
:10133000FC4F80819091AD04892B808380912203A2
:10134000882309F471C10E94C20220915B0430918C
:101350005C046901330FEE08FF08AB01BC014C19B6
:101360005D096E097F098091A7049091A804092E58
:10137000000CAA0BBB0B84179507A607B70708F04C
:1013800034C180919D048823D1F12091DB033091F9
:10139000DC033093A5042093A40480915D04809322
:1013A000A60480919E0490919F04820F931F9093B6
:1013B000DC038093DB032091A2043091A304E0902E
:1013C000A4045091A5044091A604EEE5F4E081E068
:1013D00090E00E5F1F4F82179307C8F5D8017C91EC
:1013E00011966C911197F190EC9211965C93DF013C
:1013F00011974C9301964F2DE72E562FEACF8091EF
:10140000A004882381F08091DB039091DC0390930A
:10141000A5048093A40480915D048093A604880FA2
:1014200080935D04C8CF8091A104882321F280912C
:10143000DB039091DC039093A5048093A404809136
:101440005D048093A60490E095958795E9CFE0929E
:10145000A4045093A5044093A6040E94C202709372
:101460005C0460935B042091DB033091DC0380918A
:10147000AE049091AF042817390709F0B6C0609107
:10148000AD0470E080915D0448E050E090E00E947F
:10149000060E892B09F0A9C00091A2041091A304A3
:1014A000F801EE0FFF1FE552FC4F8091A4049091CC
:1014B000A50491838083F801E35AFB4F8091A60431
:1014C00080830F5F1F4F1093A3040093A2040E9418
:1014D0001B0D2FE030E040E050E00E94730D709350
:1014E000AF046093AE040E941B0D27E030E040E0A3
:1014F00050E00E94730D7093B1046093B00490E0CB
:1015000080E080179107F0F4FC01EE0FFF1FE55219
:10151000FC4F408151812091AE043091AF044217BD
:10152000530771F40E941B0D2FE030E040E050E0C3
:101530000E94730D7093AF046093AE0490E080E05E
:101540000196DFCFF12CE12CCC24C394D12CB60131
:101550000090B00402C0660F771F0A94E2F7E0160D
:10156000F106E8F4F701E35AFB4F808148E050E0D0
:1015700090E00E94060E892B71F40E941B0D27E05B
:1015800030E040E050E00E94730D7093B10460932E
:10159000B004F12CE12CBFEFEB1AFB0AD8CF60931B
:1015A000AD0481EF92E00E9462058091A7049091C2
:1015B000A8042091AB043091AC04821B930B909350
:1015C000A8048093A7048130924034F420E230E0F4
:1015D0003093AC042093AB048091A9049091AA04A9
:1015E00001969093AA048093A904E0905D04F12CE5
:1015F00048E050E070E060E0C7010E94060E892BD1
:1016000009F057C081E093E00E9462058091A9042F
:101610009091AA040E94700583E090E090933403B7
:10162000809333030E9470050E940D0586E10E949D
:10163000E301892B09F070C087E10E94E301892B47
:1016400009F06AC088E10E94E301892B09F064C0B7
:1016500089E10E94E301892B09F05EC08AE10E94C2
:10166000E301892B09F058C0C0901003D0901103FA
:10167000C114D10409F4F9CD0E94C2020D2C000C52
:10168000EE08FF086C197D098E099F09683C7105F9
:101690008105910508F46CC082E090E090933403DA
:1016A00080933303109222031092110310921003BF
:1016B000DCCDC090DB03D090DC0330E1C316D10455
:1016C00009F4A0CF8FEFC816D80609F49BCF8090FD
:1016D000A2049090A3044DEDA42E43E0B42E01E0AB
:1016E00010E00815190508F09FCFD5018D919D9147
:1016F0005D01C816D90669F4F801E35AFB4F608111
:1017000070E048E050E0C7010E94060E892B09F402
:1017100079CF0F5F1F4FE5CF86E10E94E30101976C
:10172000C1F187E10E94E301019709F447C088E114
:101730000E94E3018C01019709F452C089E10E94E3
:10174000E301019709F45AC08AE10E94E30101977D
:1017500009F00ECD80910002882309F409CDC093D1
:1017600022030E94C202709311036093100335C0DC
:101770000E94C2026C197D098E099F09683B7B405B
:101780008105910508F490CF88E093E00E946205FE
:101790008BCF80910002882321F281E090E00E94AB
:1017A0007005EFEFFFEFF0939F04E0939E04C0936A
:1017B0009D041092A0041092A1040FC08091000219
:1017C000882309F4B4CF83E090E00E947005C093B1
:1017D000A0041092A10410929D0410920002C8CCA3
:1017E00080910002882309F4A9CF82E090E00E9452
:1017F000700510939F0400939E04D9CF809100023E
:10180000882309F4A1CF84E090E00E947005109233
:10181000A004C093A104DFCF33E8C32E32E0D32E5F
:1018200000E110E0C8010E947005C801880F991FEF
:101830009C01215A3D4F7901B12CA12CF601EA0DF2
:10184000FB1D9080D7016D917D917D01492D90E028
:1018500080E00E94AB04083011054CF0F70172974C
:1018600060817181492D81E090E00E94AB04BFEF5F
:10187000AB1ABB0AE5E0AE16B10401F762E370E013
:1018800080E090E00E94900290E080E00E942D05B0
:1018900081E090E00E942D050150110918F629E021
:1018A000C20ED11C34EDC31632E0D30609F0B8CF16
:1018B00000E110E0780182E0E80EF11C4091A904FB
:1018C000B70190E080E00E94AB04083011053CF0C5
:1018D0004091A904B70181E090E00E94AB0462E36B
:1018E00070E080E090E00E94900290E080E00E9432
:1018F0002D0581E090E00E942D0501501109D0F6E0
:1019000037CC8091A9049091AA048A3091059CF566
:101910006AE173E00E940C0488E0E4EDF2E0A3E2E7
:10192000B3E001900D928A95E1F788E0EAE1F3E0F7
:10193000ABE2B3E001900D928A95E1F70E940D05AC
:101940008AE10E94E301892B09F48FCC8AE10E948D
:10195000E3018130910509F00BCC20910002222394
:1019600009F406CC909334038093330368EC70E061
:1019700080E090E0B8CCB1010E94D60D8B016AE105
:1019800073E00E940C04C801B1010E94D60D62E10F
:1019900073E00E940C0488E0E2E1F3E0C0CF8F9294
:1019A0009F92AF92BF92CF92DF92EF92FF92CF932E
:1019B000DF93EC01688179818A819B8161157105D2
:1019C0008105910521F464E279ED8BE597E02DE145
:1019D00033EF41E050E00E94730D49015A019B0131
:1019E000AC01A7EAB1E40E94920D6B017C01ACEE60
:1019F000B4EFA50194010E94A00DC60ED71EE81EEB
:101A0000F91EF7FE06C081E0C81AD108E10880E897
:101A1000F80AC882D982EA82FB82C701B6019F77A1
:101A2000DF91CF91FF90EF90DF90CF90BF90AF907C
:101A30009F908F9008958F929F92AF92BF92CF9276
:101A4000DF92EF92FF926091030270910402809105
:101A5000050290910602611571058105910521F439
:101A600064E279ED8BE597E02DE133EF41E050E062
:101A70000E94730D49015A019B01AC01A7EAB1E430
:101A80000E94920D6B017C01ACEEB4EFA5019401B4
:101A90000E94A00DC60ED71EE81EF91EF7FE06C056
:101AA00081E0C81AD108E10880E8F80AC092030270
:101AB000D0920402E0920502F0920602C701B6013C
:101AC0009F77FF90EF90DF90CF90BF90AF909F9067
:101AD0008F9008956093030270930402809305022F
:101AE000909306020895052E97FB1EF400940E9421
:101AF0008A0D57FD07D00E94A50D07FC03D04EF4B8
:101B00000C948A0D50954095309521953F4F4F4F3D
:101B10005F4F089590958095709561957F4F8F4F99
:101B20009F4F08950E94C70DA59F900DB49F900DE3
:101B3000A49F800D911D11240895B7FF0C94920D60
:101B40000E94920D821B930B0895A1E21A2EAA1BEC
:101B5000BB1BFD010DC0AA1FBB1FEE1FFF1FA2175D
:101B6000B307E407F50720F0A21BB30BE40BF50B5A
:101B7000661F771F881F991F1A9469F760957095E3
:101B8000809590959B01AC01BD01CF010895A29F66
:101B9000B001B39FC001A39F700D811D1124911D41
:101BA000B29F700D811D1124911D089597FB072E82
:101BB00016F4009407D077FD09D00E94F20D07FCBF
:101BC00005D03EF4909581959F4F0895709561954D
:101BD0007F4F0895EE0FFF1F881F8BBF0790F69170
:101BE000E02D1994AA1BBB1B51E107C0AA1FBB1F04
:101BF000A617B70710F0A61BB70B881F991F5A9599
:101C0000A9F780959095BC01CD010895FB01DC01F9
:101C100004C08D910190801921F441505040C8F7C3
:101C2000881B990B0895F894FFCF01010001000073
:101C30000000007050507E000000007E4A4A7E0086
:101C40000000004040507E100000003C4A0A0E0098
:101C50000000007252525E000000007010107E0002
:101C60000000005252527E0000002266464E7A3238
:101C7000000002227E7E0202000000000000000040
:101C8000000000000000000000FBFFFCFFFDFFFE65
:101C9000FFFFFF0000010002000300040005000632
:101CA000000700080009000A000B000C003E41413B
:101CB0004526000000001F2444241F000000007F70
:101CC0002010207F000000007F49494141000000B2
:101CD000000000000000000000003E4141413E00C5
:101CE0000000007C0201027C000000007F494941A5
:101CF00041000000007F484C4A3100000000000015
:101D00007E42427E0000000000006403CE02FB021F
:101D1000B1032C030A031E030D0A00436F6D696FA4
:101D2000204F626A657469766F73007072756562C0
:0A1D300061004D656E73616A650085
:020000040003F7
:10E000000D9489F10D94B2F10D94B2F10D94B2F129
:10E010000D94B2F10D94B2F10D94B2F10D94B2F1F0
:10E020000D94B2F10D94B2F10D94B2F10D94B2F1E0
:10E030000D94B2F10D94B2F10D94B2F10D94B2F1D0
:10E040000D94B2F10D94B2F10D94B2F10D94B2F1C0
:10E050000D94B2F10D94B2F10D94B2F10D94B2F1B0
:10E060000D94B2F10D94B2F10D94B2F10D94B2F1A0
:10E070000D94B2F10D94B2F10D94B2F10D94B2F190
:10E080000D94B2F10D94B2F10D94B2F10D94B2F180
:10E090000D94B2F10D94B2F10D94B2F10D94B2F170
:10E0A0000D94B2F10D94B2F10D94B2F10D94B2F160
:10E0B0000D94B2F10D94B2F10D94B2F10D94B2F150
:10E0C0000D94B2F10D94B2F10D94B2F10D94B2F140
:10E0D0000D94B2F10D94B2F10D94B2F10D94B2F130
:10E0E0000D94B2F141546D656761323536300041AF
:10E0F000726475696E6F206578706C6F72657220DE
:10E1000073746B3530305632206279204D4C530099
:10E11000426F6F746C6F616465723E004875683F52
:10E1200000436F6D70696C6564206F6E203D200048
:10E130004350552054797065202020203D20005FF9
:10E140005F4156525F415243485F5F3D2000415658
:10E1500052204C696243205665723D20004743437C
:10E160002056657273696F6E203D20004350552024
:10E1700049442020202020203D20004C6F7720663D
:10E18000757365202020203D20004869676820665F
:10E190007573652020203D200045787420667573D6
:10E1A00065202020203D20004C6F636B2066757336
:10E1B000652020203D20004D617220203720323024
:10E1C000313300312E362E3800342E332E350056A2
:10E1D00023202020414444522020206F7020636F70
:10E1E00064652020202020696E73747275637469E1
:10E1F0006F6E2061646472202020496E74657272B3
:10E20000757074006E6F20766563746F7200726A49
:10E210006D702020006A6D70200057686174207056
:10E220006F72743A00506F7274206E6F7420737541
:10E2300070706F72746564004D7573742062652030
:10E2400061206C6574746572002000577269747483
:10E25000696E672045450052656164696E672045B7
:10E26000450045452065727220636E743D00504F35
:10E27000525400303D5A65726F2061646472003FF1
:10E280003D43505520737461747300403D454550C3
:10E29000524F4D207465737400423D426C696E6B41
:10E2A000204C454400453D44756D70204545505215
:10E2B0004F4D00463D44756D7020464C415348001B
:10E2C000483D48656C70004C3D4C69737420492F83
:10E2D0004F20506F72747300513D51756974005234
:10E2E0003D44756D702052414D00563D73686F7707
:10E2F00020696E7465727275707420566563746FF0
:10E30000727300593D506F727420626C696E6B00BD
:10E310002A0011241FBECFEFD1E2DEBFCDBF01E046
:10E320000CBF12E0A0E0B2E0EEE1FDEF03E00BBFB6
:10E3300002C007900D92A030B107D9F712E0A0E01B
:10E34000B2E001C01D92AE30B107E1F70F9460F367
:10E350000D948DFE01E20EBF0FEF0DBF11241FBE05
:10E360000D9460F30D9400F020E030E040ED57E0B4
:10E3700005C0FA013197F1F72F5F3F4F2817390792
:10E38000C0F308959C01260F311DC901A0E0B0E043
:10E390002F5F3F4FABBFFC018791882361F08093D3
:10E3A000C6008091C00086FFFCCF8091C0008064D1
:10E3B0008093C000EACF08958DE08093C6008091DD
:10E3C000C00086FFFCCF8091C00080648093C000B5
:10E3D0008AE08093C6008091C00086FFFCCF8091C8
:10E3E000C00080648093C00008950F94C2F10F9420
:10E3F000DCF10895FC019081992359F09093C600B7
:10E400008091C00086FFFCCF8091C0008064809323
:10E41000C0003196992379F70895282F982F929567
:10E420009F70892F805D8A3308F0895F8093C600D2
:10E430008091C00086FFFCCF8091C00080648093F3
:10E44000C000822F8F70982F905D9A3308F0995FEB
:10E450009093C6008091C00086FFFCCF8091C000E1
:10E4600080648093C00008959C01FB01853691056E
:10E470001CF46330710594F0C90164E670E00F94F8
:10E480002EFE605D7F4F6093C6008091C00086FFC6
:10E49000FCCF8091C00080648093C0002B30310598
:10E4A00014F43297B4F0C90164E670E00F942EFEC4
:10E4B0006AE070E00F942EFE605D7F4F6093C600AF
:10E4C0008091C00086FFFCCF8091C0008064809363
:10E4D000C000C9016AE070E00F942EFEC0968093E0
:10E4E000C6008091C00086FFFCCF8091C000806490
:10E4F0008093C00008951F93182F8EE692EE60E07F
:10E500000F94C2F11093C6008091C00086FFFCCF2B
:10E510008091C00080648093C0000F94DCF11F9153
:10E5200008952F923F924F925F926F927F928F92B7
:10E530009F92AF92BF92CF92DF92EF92FF920F9392
:10E540001F93DF93CF93CDB7DEB762970FB6F894E2
:10E55000DEBF0FBECDBF382E622ECA01DB015C01CB
:10E560006D01772420E2222E2E010894411C511CBB
:10E570008BC081E0A81680E0B80681E0C80680E084
:10E58000D80628F0C601AA27BB270F940DF2BB2797
:10E59000AD2D9C2D8B2D0F940DF28A2D0F940DF225
:10E5A0002092C6008091C00086FFFCCF8091C00001
:10E5B00080648093C0009DE29093C6008091C0006B
:10E5C00086FFFCCF8091C00080648093C0002092C1
:10E5D000C6008091C00086FFFCCF8091C00080649F
:10E5E0008093C00019828601750188249924A1E0D6
:10E5F0003A1651F03A1620F0B2E03B1661F409C029
:10E600000BBFF701779007C0C7010F9477FE782EF4
:10E6100002C0F7017080872D0F940DF22092C60082
:10E620008091C00086FFFCCF8091C0008064809301
:10E63000C000872D8052F401EF70F0708F3520F408
:10E64000E40DF51D708204C0E40DF51D8EE280839B
:10E650000894E11CF11C011D111D0894811C911CE2
:10E6600090E18916910409F0C2CF80E190E0A0E02A
:10E67000B0E0A80EB91ECA1EDB1E198AC2010F9493
:10E68000FAF10F94DCF16A94662009F072CF629679
:10E690000FB6F894DEBF0FBECDBFCF91DF911F91B3
:10E6A0000F91FF90EF90DF90CF90BF90AF909F9031
:10E6B0008F907F906F905F904F903F902F90089534
:10E6C0002F923F924F925F926F927F928F929F9282
:10E6D000AF92BF92CF92DF92EF92FF920F931F9370
:10E6E000DF93CF93CDB7DEB7CD53D1400FB6F894BB
:10E6F000DEBF0FBECDBF01E20EBF0FEF0DBF94B75F
:10E70000F894A89514BE80916000886180936000A1
:10E7100010926000789493FF05C0E0910002F091A0
:10E7200001021995279A2F9A8091C00082608093E8
:10E73000C00080E18093C40088E18093C1000000A4
:10E74000EE24FF24870144E0A42EB12CCC24DD2448
:10E7500024C0C5010197F1F70894E11CF11C011DCB
:10E76000111D21E2E2162EE4F20620E0020720E06D
:10E77000120718F031E0C32ED12CC801B70127ECE5
:10E780003BE140E050E00F9441FE611571058105C9
:10E79000910519F485B1805885B98091C00087FD35
:10E7A00003C0C114D104A9F2A6014F5F5F4FC25E3E
:10E7B000DE4F59834883CE51D140C25EDE4F8881FF
:10E7C0009981CE51D140019711F00D9410FEC05D9A
:10E7D000DE4F19821882C053D14060E0C15DDE4F28
:10E7E0001882CF52D14088249924C35DDE4F19820C
:10E7F0001882CD52D140C05EDE4F188219821A8233
:10E800001B82C052D140CE5CDE4F188219821A8220
:10E810001B82C253D140EE24FF2487010BBFF701B6
:10E8200007911691C45CDE4F19830883CC53D14005
:10E830000D940BFEC25EDE4F28813981CE51D1404E
:10E840002130310509F52091C600C25EDE4F1982E4
:10E850001882CE51D14022C02F5F3F4F4F4F5F4FA4
:10E86000213082E138078AE7480780E0580780F0C6
:10E87000C45CDE4FE881F981CC53D140EF5FFF4F9C
:10E8800019F0EE27FF27099420E030E040E050E047
:10E890008091C00087FFE0CF2091C600C35DDE4FAE
:10E8A00048815981CD52D1404F5F5F4FC35DDE4FEC
:10E8B00059834883CD52D140213209F063C64A3092
:10E8C000510508F05FC60894811C911C53E0851621
:10E8D000910409F059C600E010E018C081E280936D
:10E8E000C6008091C00086FFFCCF8091C00080648C
:10E8F0008093C0002F5F3F4F2931310579F70F9486
:10E90000DCF10F5F1F4F0530110519F020E030E0FA
:10E91000E5CF10920A0210920B0210920C02109294
:10E920000D02109206021092070210920802109235
:10E930000902109202021092030210920402109235
:10E9400005028FEE90EE60E00F94F5F180E191EE1C
:10E9500060E00F94C2F18091C00087FFFCCF9091DE
:10E96000C600903608F09F759032B8F09093C600BC
:10E970008091C00086FFFCCF8091C00080648093AE
:10E98000C000A0E2A093C6008091C00086FFFCCF2B
:10E990008091C00080648093C000983409F4D7C18E
:10E9A0009934B8F4923409F459C1933458F490333B
:10E9B00019F1903308F4E3C59F33A1F1903409F0C5
:10E9C000DEC5BDC0953409F470C1963409F0D7C5D1
:10E9D00098C1923509F42BC2933538F49C3409F46C
:10E9E000F5C1913509F0CBC518C2963509F445C279
:10E9F000993509F0C4C567C483E792EE62E00F94CD
:10EA0000F5F110920602109207021092080210927D
:10EA1000090210920A0210920B0210920C0210923C
:10EA20000D0213C18FE792EE62E00F94F5F18FEEC5
:10EA300090EE60E00F94F5F181E291EE60E00F94CA
:10EA4000C2F187EB91EE60E00F94F5F180E391EE77
:10EA500060E00F94C2F184EE90EE60E00F94F5F167
:10EA60008FE391EE60E00F94C2F186E090E061E008
:10EA700070E00F9434F20F94DCF18DE591EE60E0DC
:10EA80000F94C2F189EC91EE60E00F94F5F18EE401
:10EA900091EE60E00F94C2F183EC91EE60E00F9490
:10EAA000F5F18CE691EE60E00F94C2F18EE10F94E7
:10EAB0000DF288E90F940DF281E00F940DF20F949E
:10EAC000DCF18BE791EE60E00F94C2F119E0E0E039
:10EAD000F0E010935700E4918E2F0F940DF20F94F5
:10EAE000DCF18AE891EE60E00F94C2F1E3E0F0E03F
:10EAF00010935700E4918E2F0F940DF20F94DCF1D8
:10EB000089E991EE60E00F94C2F1E2E0F0E0109349
:10EB10005700E4918E2F0F940DF20F94DCF188EAE8
:10EB200091EE60E00F94C2F1E1E0F0E01093570045
:10EB30001491812F0F940DF20F94DCF107CF8BE825
:10EB400092EE62E00F94F5F18BE492EE60E00F94A8
:10EB5000F5F10F94DCF100E010E019C0C8016F2D51
:10EB60000F947FFEFF2031F489E492EE60E00F9471
:10EB7000C2F10BC0F092C6008091C00086FFFCCFAE
:10EB80008091C00080648093C0000F5F1F4FC80158
:10EB900081519F41A0E0B0E0ABBFFC01F790BAE229
:10EBA000FB1621F0E2E000301E07C1F60F94DCF105
:10EBB0000F94DCF187E592EE60E00F94F5F10F948D
:10EBC000DCF1CC24DD2400E010E01EC0C8010F946D
:10EBD00077FEF82E882331F489E492EE60E00F94FA
:10EBE000C2F10BC08093C6008091C00086FFFCCFAD
:10EBF0008091C00080648093C000FE1419F00894D6
:10EC0000C11CD11C0F5F1F4FC80181519F41A0E063
:10EC1000B0E0ABBFFC01E790FAE2EF1621F022E092
:10EC20000030120799F60F94DCF10F94DCF182E6C4
:10EC300092EE60E00F94C2F1C60161E070E00F94C3
:10EC400034F20F94DCF10F94DCF110920202109276
:10EC50000302109204021092050278CE89E992EE26
:10EC600062E00F94F5F1279A2F9A16C02F9880E052
:10EC700090E0E0EDF7E03197F1F7019684369105E9
:10EC8000C1F72F9A80E090E0E0EDF7E03197F1F7DF
:10EC9000019684369105C1F78091C00087FFE6CFC9
:10ECA0008091C00087FFFCCF64C485EA92EE62E0E9
:10ECB0000F94F5F140910202509103026091040219
:10ECC0007091050281E020E10F9491F2809102029F
:10ECD00090910302A0910402B091050280509F4FD1
:10ECE000AF4FBF4F8093020290930302A0930402A0
:10ECF000B093050280509041A040B04008F426CE69
:10ED0000A4CF83EB92EE62E00F94F5F140910602FE
:10ED100050910702609108027091090280E020E1A1
:10ED20000F9491F28091060290910702A09108023F
:10ED3000B091090280509F4FAF4FBF4F80930602A2
:10ED400090930702A0930802B0930902FFCD80ECD4
:10ED500092EE62E00F94F5F183E792EE60E00F949B
:10ED6000F5F18FE792EE60E00F94F5F18BE892EE0B
:10ED700060E00F94F5F189E992EE60E00F94F5F10F
:10ED800085EA92EE60E00F94F5F183EB92EE60E09D
:10ED90000F94F5F180EC92EE60E00F94F5F187ECC2
:10EDA00092EE60E00F94F5F188ED92EE60E00F9442
:10EDB000F5F18FED92EE60E00F94F5F18AEE92EEB0
:10EDC00060E00F94F5F183E093EEBDCD87EC92EE19
:10EDD00062E00F94F5F181E40F947BF282E40F94EA
:10EDE0007BF283E40F947BF284E40F947BF285E45E
:10EDF0000F947BF286E40F947BF287E40F947BF20E
:10EE000088E40F947BF28AE40F947BF28BE40F94F6
:10EE10007BF28CE40F947BF299CD88ED92EE62E068
:10EE20000F94F5F1772473948824992409C48FED05
:10EE300092EE62E00F94F5F140910A0250910B02BC
:10EE400060910C0270910D0282E020E10F9491F22A
:10EE500080910A0290910B02A0910C02B0910D02D8
:10EE600080509F4FAF4FBF4F80930A0290930B0289
:10EE7000A0930C02B0930D0269CD8AEE92EE62E08F
:10EE80000F94F5F184EE90EE60E00F94F5F18FECC5
:10EE900091EE60E00F94F5F1662477244301CC5D98
:10EEA000DE4F19821882C452D140D401C301B695F5
:10EEB000A79597958795CA5DDE4F88839983AA8326
:10EEC000BB83C652D140CC5DDE4FA881B981C4520C
:10EED000D1401196CC5DDE4FB983A883C452D14096
:10EEE000CD0162E070E00F9434F2B0E2B093C6005E
:10EEF0008091C00086FFFCCF8091C0008064809329
:10EF0000C000EDE2E093C6008091C00086FFFCCF18
:10EF10008091C00080648093C000F0E2F093C6004E
:10EF20008091C00086FFFCCF8091C00080648093F8
:10EF3000C000CA5DDE4FE880F9800A811B81C6529D
:10EF4000D140BB27A12F902F8F2D0F940DF2CA5DBA
:10EF5000DE4F8881C652D1400F940DF2B0E2FB2EF5
:10EF6000F092C6008091C00086FFFCCF8091C00067
:10EF700080648093C0000DE30093C6008091C000C0
:10EF800086FFFCCF8091C00080648093C00010E2B7
:10EF90001093C6008091C00086FFFCCF8091C00016
:10EFA00080648093C0008BBEF3012791C65DDE4F65
:10EFB0002883CA52D140A22EBB24CC24DD2408943D
:10EFC000611C711C811C911C8BBEF3018791282E42
:10EFD0003324442455240894611C711C811C911C09
:10EFE0008BBEF3013791C55DDE4F3883CB52D140E4
:10EFF0000894611C711C811C911C8BBEF30147910C
:10F00000C45DDE4F4883CC52D140ADEFEA2EAFEF66
:10F01000FA2EAFEF0A2FAFEF1A2F6E0C7F1C801E57
:10F02000911E142D032DF22CEE24EA0CFB1C0C1D5A
:10F030001D1D0F940DF220E22093C6008091C000A8
:10F0400086FFFCCF8091C00080648093C000C65DC5
:10F05000DE4F8881CA52D1400F940DF230E23093D6
:10F06000C6008091C00086FFFCCF8091C000806404
:10F070008093C000C45DDE4F8881CC52D1400F9494
:10F080000DF240E24093C6008091C00086FFFCCFA5
:10F090008091C00080648093C000C55DDE4F888190
:10F0A000CB52D1400F940DF250E25093C6008091A4
:10F0B000C00086FFFCCF8091C00080648093C000B8
:10F0C0008FEFE8168FEFF80680E0080780E018075A
:10F0D00031F484E092EE60E00F94C2F1DFC0D80119
:10F0E000C7018070907CA070B0708050904CA040A0
:10F0F000B040D1F52FEF3FE340E050E0E222F322B1
:10F1000004231523CA5DDE4FA880B980CA80DB8046
:10F11000C652D140AE0CBF1CC01ED11EAA0CBB1CD7
:10F12000CC1CDD1C8EE092EE60E00F94C2F1BB2798
:10F13000A12F902F8F2D0F940DF28E2D0F940DF285
:10F1400030E23093C6008091C00086FFFCCF8091F2
:10F15000C00080648093C0004EE34093C60080915D
:10F16000C00086FFFCCF87C08EE09EEFA0E0B0E03D
:10F17000E822F9220A231B239CE0E91694E9F90608
:10F1800090E0090790E0190709F088C0C45DDE4FE0
:10F19000A881CC52D140EA2EFF2400E010E0102FCD
:10F1A0000F2DFE2CEE24C55DDE4FB881CB52D14031
:10F1B000EB0EF11C011D111DD601C501817090706F
:10F1C000A070B070DC0199278827E80EF91E0A1F8D
:10F1D0001B1F20EF30E040E050E0A222B322C42207
:10F1E000D52241E1AA0CBB1CCC1CDD1C4A95D1F7F1
:10F1F000EA0CFB1C0C1D1D1D81E090E0A0E0B0E0BE
:10F20000282239224A225B2235E1220C331C441C7D
:10F21000551C3A95D1F7E20CF31C041D151D57013E
:10F220006801AA0CBB1CCC1CDD1C85E192EE60E0E1
:10F230000F94C2F1C801AA27BB270F940DF2BB2778
:10F24000A12F902F8F2D0F940DF28E2D0F940DF274
:10F2500090E29093C6008091C00086FFFCCF809121
:10F26000C00080648093C000AEE3A093C60080918C
:10F27000C00086FFFCCF8091C00080648093C000F6
:10F28000C601AA27BB270F940DF2BB27AD2D9C2DDD
:10F290008B2D0F940DF28A2D0F940DF20F94DCF14B
:10F2A000CC5DDE4FE881F981C452D140F99709F471
:10F2B0004DCBF4E0EF2EF12C012D112D6E0C7F1CA7
:10F2C000801E911EF2CD83E093EE62E00F94F5F183
:10F2D0008AE192EE60E00F94C2F18091C00087FF56
:10F2E000FCCF1091C6001F751093C6008091C0001E
:10F2F00086FFFCCF8091C00080648093C0000F9493
:10F30000DCF1812F81548A3108F036C1163409F4BA
:10F3100095C0173490F4133409F44EC0143430F40B
:10F320001134F1F0123409F01DC130C0143409F465
:10F3300059C0153409F016C16BC01A3409F4C4C0A1
:10F340001B3438F4173409F48FC0183409F00AC19B
:10F35000A1C01B3409F4D2C01C3409F003C1E8C0B9
:10F360008FEF81B90DC082B1809582B980E090E0C5
:10F37000E0EDF7E03197F1F70196883C9105C1F790
:10F380008091C00087FFEFCF12B8EFC08FEF84B934
:10F390000DC085B1809585B980E090E0E0EDF7E0A3
:10F3A0003197F1F70196883C9105C1F78091C00033
:10F3B00087FFEFCF15B8D9C08FEF87B90DC088B1DF
:10F3C000809588B980E090E0E0EDF7E03197F1F7C3
:10F3D0000196883C9105C1F78091C00087FFEFCF6F
:10F3E00018B8C3C08FEF8AB90DC08BB180958BB9A7
:10F3F00080E090E0E0EDF7E03197F1F70196883C8E
:10F400009105C1F78091C00087FFEFCF1BB8ADC059
:10F410008FEF8DB90DC08EB180958EB980E090E0F0
:10F42000E0EDF7E03197F1F70196883C9105C1F7DF
:10F430008091C00087FFEFCF1EB897C08FEF80BBD1
:10F440000DC081B3809581BB80E090E0E0EDF7E0F6
:10F450003197F1F70196883C9105C1F78091C00082
:10F4600087FFEFCF11BA81C08FEF83BB0DC084B38C
:10F47000809584BB80E090E0E0EDF7E03197F1F714
:10F480000196883C9105C1F78091C00087FFEFCFBE
:10F4900014BA6BC08FEF809301010FC080910201FD
:10F4A00080958093020180E090E0E0EDF7E03197F5
:10F4B000F1F70196883C9105C1F78091C00087FF64
:10F4C000EDCF1092020151C08FEF809304010FC065
:10F4D0008091050180958093050180E090E0E0ED4A
:10F4E000F7E03197F1F70196883C9105C1F78091DB
:10F4F000C00087FFEDCF1092050137C08FEF8093DA
:10F5000007010FC08091080180958093080180E079
:10F5100090E0E0EDF7E03197F1F70196883C910536
:10F52000C1F78091C00087FFEDCF109208011DC088
:10F530008FEF80930A010FC080910B01809580931B
:10F540000B0180E090E0E0EDF7E03197F1F70196F4
:10F55000883C9105C1F78091C00087FFEDCF1092E4
:10F560000B0103C085E292EEEEC98091C00087FFD7
:10F57000FCCF8091C600EAC988E392EEE4C98CE131
:10F5800091EEE1C988249924933011F1943028F444
:10F59000913089F09230B8F408C0953061F195301F
:10F5A000F0F0963009F048C043C02B3109F042C951
:10F5B00091E06BE13FC96227C15DDE4F2883CF52E6
:10F5C000D14092E037C9B22FA0E0622793E032C960
:10F5D000822F90E0A82BB92B622794E02BC92E3004
:10F5E00009F039C3622795E0C05DDE4F19821882A9
:10F5F000C053D1401FC9E1E0F0E0EC0FFD1FC05D3A
:10F60000DE4F08811981C053D140E00FF11F2083E4
:10F610000F5F1F4FC05DDE4F19830883C053D14079
:10F6200062270A171B0709F005C9D80196E002C92D
:10F63000261709F010C303C0973009F0FBC87724E0
:10F640009981933109F412C19431C8F4963009F4C8
:10F65000D8C0973050F4923009F406C1933009F4C1
:10F660006DC0913009F059C253C0913109F477C08F
:10F67000923108F0BBC0903109F04FC2F5C098310B
:10F6800009F487C0993150F4953109F4EFC09531F0
:10F6900008F4C6C1963109F040C2C2C19A3109F4DA
:10F6A0006CC09A3108F491C09B3109F45BC09D3164
:10F6B00009F033C29D81903359F48F81882311F46E
:10F6C0009EE11CC0813011F091E018C098E916C08D
:10F6D000892F807591F0903539F4E0E0F0E089E011
:10F6E0008093570094910AC0983539F4E3E0F0E034
:10F6F00089E080935700949101C090E01A821B82A8
:10F700008D818C831D829E831F8227E030E009C299
:10F710001A8288E08B8381E48C8386E58D8382E581
:10F720008E8389E48F8383E5888780E589878FE5E9
:10F730008A8782E38B872BE030E0F3C18A818139AD
:10F7400041F0823941F0803911F48FE005C080E04A
:10F7500003C082E001C08AE01A828B8344C0772410
:10F76000739482C08D81882311F48EE12CC0813086
:10F7700011F081E028C088E926C01A82E1E0F0E0BB
:10F7800089E08093570084918B831C8224E030E0D1
:10F79000C8C18B81803589F48C81883039F4E2E0EE
:10F7A000F0E089E08093570084910DC0E0E0F0E044
:10F7B00089E080935700849106C0E3E0F0E089E09F
:10F7C0008093570084911A82DFCF8D81836C99E0FA
:10F7D000E1E0F0E0082E90935700E89507B600FCB2
:10F7E000FDCF1A821B8223E030E09BC180EC8A832C
:10F7F000CE5CDE4F188219821A821B82C253D1401E
:10F800008EC18A8190E0A0E0B0E0582F44273327D2
:10F8100022278B8190E0A0E0B0E0DC0199278827C7
:10F82000282B392B4A2B5B2B8D8190E0A0E0B0E098
:10F83000282B392B4A2B5B2B8C8190E0A0E0B0E089
:10F84000BA2FA92F982F8827282B392B4A2B5B2BCF
:10F85000220F331F441F551FC05EDE4F288339839C
:10F860004A835B83C052D1401A8259C13A81C95C34
:10F87000DE4F3883C753D140CA5CDE4F1882C6536F
:10F88000D1408B81C82EDD24CA5CDE4F488159816E
:10F89000C653D140C42AD52A933109F082C0CE5C28
:10F8A000DE4F88819981AA81BB81C253D1408050AB
:10F8B000904CA340B04030F583E0CE5CDE4FE88052
:10F8C000F9800A811B81C253D140F70100935B008C
:10F8D00080935700E89507B600FCFDCFCE5CDE4F65
:10F8E000088119812A813B81C253D14000501F4FAA
:10F8F0002F4F3F4FCE5CDE4F088319832A833B8313
:10F90000C253D140C05EDE4F488159816A817B81FC
:10F91000C052D140DE011B9631E08C9111962C91A2
:10F9200011971296C75CDE4F2883C953D140C85C3B
:10F93000DE4F1882C853D14090E0C85CDE4FE881AA
:10F94000F981C853D1408E2B9F2B0C01FA01609393
:10F950005B0030935700E89511244E5F5F4F6F4F67
:10F960007F4F0EEFE02E0FEFF02ECE0CDF1CC114F8
:10F97000D10499F685E0C05EDE4F088119812A81A5
:10F980003B81C052D140F80120935B008093570027
:10F99000E89507B600FCFDCF81E180935700E8951C
:10F9A00035C0C05EDE4F88819981AA81BB81C0527B
:10F9B000D140B695A795979587957C018601ABE0D8
:10F9C000AA2EB12CAC0EBD1E0BC0D5016D915D01F0
:10F9D000C7010F947FFE0894E11CF11C01501040F8
:10F9E0000115110591F7A60160E070E0440F551F65
:10F9F000661F771FC05EDE4FE880F9800A811B8199
:10FA0000C052D1404E0D5F1D601F711F1A82C05E33
:10FA1000DE4F488359836A837B83C052D1407FC0C5
:10FA2000FA80C55CDE4FF882CB53D140C65CDE4F16
:10FA30001882CA53D1408B81C82EDD24C65CDE4FAC
:10FA400008811981CA53D140C02AD12A1A828981DA
:10FA5000BE016D5F7F4F843121F59601C05EDE4FA0
:10FA6000E880F9800A811B81C052D1400BBFF701A9
:10FA700087919691DB018C9311969C936E5F7F4FDB
:10FA8000D801C7010296A11DB11DC05EDE4F88835B
:10FA90009983AA83BB83C052D14022503040F1F6F3
:10FAA00036C0C05EDE4F288139814A815B81C052F9
:10FAB000D1400894C108D108760100E010E0089414
:10FAC000C11CD11C0894E11CF11C011D111DE20E8A
:10FAD000F31E041F151F21BDBB27A52F942F832FB5
:10FAE00082BD2F5F3F4F4F4F5F4FF89A80B5DB01CC
:10FAF0008D93BD012E153F054007510761F7C05E8C
:10FB0000DE4F288339834A835B83C052D1409601FC
:10FB10002D5F3F4FFB01108204C080EC8A8322E0FE
:10FB200030E08BE18093C6008091C00086FFFCCF5F
:10FB30008091C00080648093C000C15DDE4FF88179
:10FB4000CF52D140F093C6008091C00086FFFCCF19
:10FB50008091C00080648093C000432F3093C60022
:10FB60008091C00086FFFCCF8091C00080648093AC
:10FB7000C000922F2093C6008091C00086FFFCCF6A
:10FB80008091C00080648093C0008EE08093C600A6
:10FB90008091C00086FFFCCF8091C000806480937C
:10FBA000C00065E1C15DDE4FE880CF52D1406E25D7
:10FBB00069276427FE01319610C090819093C6009A
:10FBC0008091C00086FFFCCF31968091C000806498
:10FBD0008093C0006927215030402115310569F715
:10FBE0006093C6008091C00086FFFCCF8091C0006A
:10FBF00080648093C00085B1805885B9772081F4F6
:10FC0000C15DDE4F0881CF52D1400F5FC15DDE4F35
:10FC10000883CF52D14090E0A0E0B0E00D941AF4F8
:10FC200027982F9880E090E020ED37E0F901319798
:10FC3000F1F7019684369105C9F700008091C00064
:10FC40008D7F8093C00081E180935700E895EE2777
:10FC5000FF270994FFCF90E00D941AF497FB092E2B
:10FC600007260AD077FD04D02ED006D000201AF443
:10FC7000709561957F4F0895F6F7909581959F4F08
:10FC80000895A1E21A2EAA1BBB1BFD010DC0AA1FDD
:10FC9000BB1FEE1FFF1FA217B307E407F50720F0F5
:10FCA000A21BB30BE40BF50B661F771F881F991F70
:10FCB0001A9469F760957095809590959B01AC01B9
:10FCC000BD01CF010895AA1BBB1B51E107C0AA1FAC
:10FCD000BB1FA617B70710F0A61BB70B881F991FED
:10FCE0005A95A9F780959095BC01CD010895F99991
:10FCF000FECF92BD81BDF89A992780B50895262F31
:10FD0000F999FECF1FBA92BD81BD20BD0FB6F89400
:0EFD1000FA9AF99A0FBE01960895F894FFCF63
:00000001FF
