:100000000C9435010C9466010C9466010C94660105
:100010000C9466010C9466010C9466010C946601C4
:100020000C9466010C9466010C9466010C946601B4
:100030000C9466010C9466010C9466010C946601A4
:100040000C9466010C9466010C9466010C94660194
:100050000C9466010C9466010C9466010C94A10446
:100060000C9466010C9415050C94EB040C94660139
:100070000C9466010C9466010C9466010C94660164
:100080000C9466010C9466010C9466010C94660154
:100090000C9466010C9466010C9466010C94660144
:1000A0000C9466010C9466010C9466010C94660134
:1000B0000C9466010C9466010C9466010C94660124
:1000C0000C9466010C9466010C9466010C94660114
:1000D0000C9466010C9466010C9466010C94660104
:1000E0000C9466010C94A1010C9493020C94BD0134
:1000F0000C9494010C949B010C94B9010C943A0358
:100100000C9490010C94A5010C94AF010C94ED0299
:100110000C94AB010C94B3010C94C1010C94B50286
:100120000C944B050C94CB010C9484020C94C701E5
:100130000C9498010C94A7020C9457020C9486011D
:100140000C948C010C94C6010000210024002700AF
:100150002A002D00300033000101000004010701D6
:100160000A0100002200250028002B002E0031008B
:10017000340002010000050108010B01000020000D
:100180002300260029002C002F003200000100006F
:10019000030106010901050505050705080808080A
:1001A000020202020A0A080804040404010101010F
:1001B000010101010303030303030303040707070A
:1001C0000C0C0C0C0C0C0C0C0202020206060606AF
:1001D000060606060B0B0B0B0B0B0B0B010210207C
:1001E000200808102040102040800201020108046D
:1001F0000201010204081020408080402010080401
:100200000201800402018040201008040201080459
:10021000020101020408102040800102040810209D
:10022000408000000A0B02090C0D0E0807030401B0
:1002300000000000000000000000000000000000BE
:10024000000000000000000000000000000012118B
:10025000100000000000000000000000000000008E
:1002600000000000000000004B0511241FBECFEF6E
:10027000D1E2DEBFCDBF00E00CBF12E0A0E0B2E0F3
:10028000EEE5F2E100E00BBF02C007900D92AA3349
:10029000B107D9F724E0AAE3B2E001C01D92A3316F
:1002A000B207E1F711E0C5E3D1E000E006C0219715
:1002B0000109802FFE010E942509C433D10780E087
:1002C0000807A9F70E9423060C942D090C9400003E
:1002D0008150823108F05AC0E82FF0E08827EC58AE
:1002E000FE4F8F4F0C9425099401980186018C01D3
:1002F0009001C6019B01A101A501AB01AF01B301B2
:10030000B901BD01C601C101C701CB0180918000C7
:100310008F77809380000895809180008F7DF9CF42
:1003200080918000877FF5CF84B58F7784BD089555
:1003300084B58F7DFBCF8091B0008F778093B00024
:1003400008958091B0008F7DF9CF809190008F77D4
:10035000809390000895809190008F7DF9CF8091D7
:100360009000877FF5CF8091A0008F778093A000C9
:1003700008958091A0008F7DF9CF8091A000877FA4
:10038000F5CF809120018F7780932001089580918F
:1003900020018F7DF9CF80912001877FF5CFCF930A
:1003A000DF93282F30E0F901EE5DFD4F8491F901D4
:1003B000E452FE4FD491F901EA56FE4FC491CC238A
:1003C000A1F081110E946801EC2FF0E0EE0FFF1FF9
:1003D000E458FE4FA591B491EC91ED2381E090E0BB
:1003E00009F480E0DF91CF91089580E090E0FACFAA
:1003F0001F93CF93DF93282F30E0F901EE5DFD4F7F
:100400008491F901E452FE4FD491F901EA56FE4F6E
:10041000C491CC23A9F0162F81110E946801EC2F02
:10042000F0E0EE0FFF1FEE59FE4FA591B4918FB78C
:10043000F894EC91111108C0D095DE23DC938FBFA6
:10044000DF91CF911F910895DE2BF8CFCF93DF93EB
:1004500090E0FC01E452FE4F24918A569E4FFC012D
:1004600084918823D1F090E0880F991FFC01E85B0C
:10047000FE4FA591B491FC01EE59FE4FC591D49168
:1004800061110EC09FB7F8948C91E22FE0958E23F6
:100490008C932881E223E8839FBFDF91CF91089559
:1004A0008FB7F894EC91E22BEC938FBFF6CFAF921D
:1004B000BF92CF92DF92EF92FF920F931F93CF9351
:1004C000DF936C017B018B01040F151FEB015E01B3
:1004D000AE18BF08C017D10759F06991D601ED9148
:1004E000FC910190F081E02DC6011995892B79F7D7
:1004F000C501DF91CF911F910F91FF90EF90DF9099
:10050000CF90BF90AF900895FC01538D448D252F5F
:1005100030E0842F90E0821B930B541710F0CF969D
:10052000089501970895FC01918D828D981761F0CF
:10053000A28DAE0FBF2FB11D5D968C91928D9F5FE6
:100540009F73928F90E008958FEF9FEF0895FC01C5
:10055000918D828D981731F0828DE80FF11D858D78
:1005600090E008958FEF9FEF0895FC01918D228D0B
:10057000892F90E0805C9F4F821B91098F73992790
:10058000089585E592E00E94B50221E0892B09F4E7
:1005900020E0822F0895FC01A48DA80FB92FB11D72
:1005A000A35ABF4F2C91848D90E001968F739927A9
:1005B000848FA689B7892C93A089B1898C91837087
:1005C00080648C93938D848D981306C00288F38980
:1005D000E02D80818F7D80830895EF92FF920F93AD
:1005E0001F93CF93DF93EC0181E0888F9B8D8C8DDF
:1005F00098131AC0E889F989808185FF15C09FB7D3
:10060000F894EE89FF896083E889F9898081837095
:10061000806480839FBF81E090E0DF91CF911F9144
:100620000F91FF90EF900895F62E0B8D10E00F5F65
:100630001F4F0F731127E02E8C8D8E110CC00FB63B
:1006400007FCFACFE889F989808185FFF5CFCE01D3
:100650000E94CB02F1CFEB8DEC0FFD2FF11DE35A81
:10066000FF4FF0829FB7F8940B8FEA89FB89808156
:100670008062CFCFCF93DF93EC01888D8823B9F0D0
:10068000AA89BB89E889F9898C9185FD03C080819D
:1006900086FD0DC00FB607FCF7CF8C9185FFF2CF1A
:1006A000808185FFEDCFCE010E94CB02E9CFDF91A3
:1006B000CF91089580E090E0892B29F00E94C1023B
:1006C00081110E94000080E090E0892B49F080E0D9
:1006D00090E0892B29F00E94000081110E94000007
:1006E00080E090E0892B49F080E090E0892B29F0B0
:1006F0000E94000081110E94000080E090E0892BA0
:1007000049F080E090E0892B29F00E9400008111DF
:100710000C9400000895CF92DF92EF92FF920F9316
:100720001F93CF93DF931F921F92CDB7DEB76983DC
:100730004A83880F991F0091110410911204000F31
:10074000111FEBEBF3E09F012B5B334020173107C8
:1007500014F41192F8CF2981FC01E554FC4F218358
:100760008A81808360E080910F040E94F801101656
:10077000110604F501501109F801E554FC4FE08021
:10078000D0900D04C0900B0488E0F82E6E2D661FEB
:100790006627661F8C2D0E94F801EE0C61E08D2DFE
:1007A0000E94F80160E08D2D0E94F801FA94F1108A
:1007B000EDCFDDCF61E080910F040F900F90DF91BE
:1007C000CF911F910F91FF90EF90DF90CF900C94FD
:1007D000F801EF92FF920F931F93CF937C018C014E
:1007E00083E0000F111F8A95E1F705531C4FC1E00C
:1007F000F80111928F0140E06C2FC7010E948B031A
:10080000CF5FC930A9F7CF911F910F91FF90EF9063
:100810000895FC0101900020E9F73197AF01481BD2
:10082000590BBC0185E592E00C9457028F929F9280
:10083000AF92BF920F931F93CF93DF93CDB7DEB7E5
:10084000A1970FB6F894DEBF0FBECDBF19A24230FC
:1008500008F44AE08E010F5D1F4F842E912CB12CBD
:10086000A12CA50194010E940309E62FB901CA0138
:10087000EA30F4F4E05DD801EE938D01232B242BB4
:10088000252B79F790E080E0109719F0CD010E94B8
:100890000904A1960FB6F894DEBF0FBECDBFDF915D
:1008A000CF911F910F91BF90AF909F908F9008951F
:1008B000E95CE1CFCF92DF92EF92FF92CF93DF938B
:1008C0006B017C016DE285E592E00E94ED02EC0196
:1008D00066277727CB016C197D098E099F094AE0AD
:1008E0000E9416048C0F9D1FDF91CF91FF90EF9017
:1008F000DF90CF900895CF93DF93BC01990F880BC1
:10090000990B97FF0CC00E945A04EC0183E292E01D
:100910000E9409048C0F9D1FDF91CF9108954AE03A
:100920000E941604F2CFCF93DF930E940904EC01DA
:1009300083E292E00E9409048C0F9D1FDF91CF910A
:1009400008951F920F920FB60F9211242F933F9389
:100950008F939F93AF93BF938091510290915202D6
:10096000A0915302B09154023091500223E0230F22
:100970002D3758F50196A11DB11D2093500280938B
:10098000510290935202A0935302B093540280916B
:100990004C0290914D02A0914E02B0914F020196EF
:1009A000A11DB11D80934C0290934D02A0934E0265
:1009B000B0934F02BF91AF919F918F913F912F9133
:1009C0000F900FBE0F901F90189526E8230F0296E8
:1009D000A11DB11DD2CF1F920F920FB60F921124FD
:1009E0000BB60F922F933F934F935F936F937F9329
:1009F0008F939F93AF93BF93EF93FF9385E592E01F
:100A00000E94CB02FF91EF91BF91AF919F918F9187
:100A10007F916F915F914F913F912F910F900BBEFE
:100A20000F900FBE0F901F9018951F920F920FB648
:100A30000F9211240BB60F922F938F939F93EF93E6
:100A4000FF93E0916502F09166028081E0916B0274
:100A5000F0916C0282FD1DC0908180916E028F5FCB
:100A60008F7320916F02821741F0E0916E02F0E0E7
:100A7000EB5AFD4F958F80936E02FF91EF919F91FE
:100A80008F912F910F900BBE0F900FBE0F901F9064
:100A900018958081F2CFCF93DF9310925802109275
:100AA000570288EE93E0A0E0B0E080935902909363
:100AB0005A02A0935B02B0935C0285E192E09093AE
:100AC00056028093550285EC90E0909362028093E9
:100AD000610284EC90E0909364028093630280EC66
:100AE00090E0909366028093650281EC90E0909391
:100AF00068028093670282EC90E090936A02809390
:100B0000690286EC90E090936C0280936B021092E5
:100B10006E0210926F021092700210927102C3E383
:100B2000D0E0D0930C04C0930B0484E390E0909346
:100B30000E0480930D0485E390E09093100480935D
:100B40000F0482E090E0909312048093110461E01E
:100B500083E30E94260261E080910D040E94260238
:100B600061E080910F040E94260261E080910F04F1
:100B70000E94F801D0930C04C0930B04EBECF3E05B
:100B8000119284E0EB30F807D9F7D0E0C0E0809113
:100B9000110490911204C817D90774F540E06FE072
:100BA000CE010E948B038091110490911204C8170A
:100BB000D9072CF447E06BE0CE010E948B0340E0A4
:100BC00069E0CE010E948B03809111049091120480
:100BD000C817D9071CF4CE010E94E90380911104C3
:100BE00090911204C817D9072CF440E06CE0CE01B4
:100BF0000E948B032196CBCF82E090E09093BA03C2
:100C00008093B90386E090E09093F3028093F20220
:100C100085E090E09093F5028093F40288E0809361
:100C200074038093750381E08093B4031092B8033A
:100C30001092B70381E090E09093B6038093B503E0
:100C4000DF91CF910895CF93DF9300D01F92CDB75E
:100C5000DEB7789484B5826084BD84B5816084BD3C
:100C600085B5826085BD85B5816085BD80916E004A
:100C7000816080936E00109281008091810082607B
:100C800080938100809181008160809381008091B8
:100C900080008160809380008091B10084608093A7
:100CA000B1008091B00081608093B000809191008C
:100CB0008260809391008091910081608093910087
:100CC000809190008160809390008091A10082606B
:100CD0008093A1008091A10081608093A100809108
:100CE000A00081608093A0008091210182608093A8
:100CF0002101809121018160809321018091200157
:100D000081608093200180917A00846080937A00D2
:100D100080917A00826080937A0080917A0081606D
:100D200080937A0080917A00806880937A00109294
:100D3000C100E0916502F091660282E08083E0915B
:100D40006102F09162021082E0916302F09164020C
:100D50008FEC808310926D02E0916902F0916A023B
:100D600086E08083E0916702F09168028081806173
:100D70008083E0916702F0916802808188608083BF
:100D8000E0916702F0916802808180688083E09141
:100D90006702F091680280818F7D808380911104C9
:100DA000909112041816190634F441E06CE090E0BA
:100DB00080E00E948B038091110490911204181618
:100DC000190634F44FE06AE090E080E00E948B0363
:100DD00080911104909112041816190624F490E0E1
:100DE00080E00E94E903809111049091120402971F
:100DF00034F041E06CE081E090E00E948B03809150
:100E0000110490911204029734F04FE06AE081E0FF
:100E100090E00E948B03809111049091120402973C
:100E200024F081E090E00E94E90360E086E10E9406
:100E3000260260E088E10E94260260E087E10E94CD
:100E4000260260E089E10E94260210924B02109275
:100E50004A0240E8A42EB12C6624639422242A94EA
:100E6000322C80914A0290914B02892B09F0A8C143
:100E700080E1E1E0F2E0AAE3B2E001900D928A9510
:100E8000E1F74091B9035091BA0302EF12E0A4E7F1
:100E9000B3E0980190E080E04817590769F0F90144
:100EA000619171919F01FB01E65CFD4F7D91608135
:100EB000672B60830196F0CF2FB7F8948091510291
:100EC00090915202A0915302B09154022FBF4091D1
:100ED000720350917303052E000C660B770B841B75
:100EE000950BA60BB70B893E9340A105B10508F4FD
:100EF00074C08091B4038823D9F16091B5037091D7
:100F0000B603072E000C880B990B97FF2DC00E948B
:100F10005A0483E292E00E94090486E292E00E9471
:100F20009304E090F202F090F302709074038091C9
:100F3000B5039091B6038E0D9F1D9093F30280939D
:100F4000F2022091B9033091BA03E5E7F3E081E0C2
:100F500090E00E5F1F4F8217930780F5D801ED9246
:100F6000FC9271920196F5CF4AE00E941604D1CF0F
:100F70008091B703882379F08DE292E00E94930478
:100F8000E090F202F090F30270907403872D880FC6
:100F900080937403D6CF8091B803882391F284E3C1
:100FA00092E00E949304E090F202F090F3027090BD
:100FB0007403872D90E095958795EACF2FB7F89425
:100FC0008091510290915202A0915302B09154022B
:100FD0002FBF90937303809372032AE3C22E22E003
:100FE000D22E1C821B82F60141906F018091110468
:100FF000909112042B813C81283031050CF08DC07A
:1010000018161906D4F5C5010B8002C09595879571
:101010000A94E2F78983382F30953A830BEB13E07B
:1010200097E0892E912C512C8091110490911204FB
:1010300018161906CCF4D80150968C91509792014D
:10104000082C02C0359527950A94E2F720FF60C06E
:10105000B9818B2BF801808BF801408968E0681911
:1010600090E080E00E948B03F1E08F1A91080F5FFF
:101070001F4F2FEF82169206B9F64B815C814F5FAE
:101080005F4F5C834B834031510509F0ACCF86E163
:101090000E94CF01892B89F487E10E94CF01892B1F
:1010A00061F488E10E94CF01892B39F489E10E9423
:1010B000CF01892B11F46092000286E10E94CF01DA
:1010C000019721F48091000281116AC087E10E949A
:1010D000CF01019709F477C088E10E94CF019C837A
:1010E0008B83019709F47FC089E10E94CF010197AA
:1010F00009F066C080910002882309F461C084E091
:1011000090E00E947B041092B7036092B80368C01D
:10111000FA818F2350968C939FCF02970CF4ADCF1A
:101120008B819C810897A50102C0559547958A95AA
:10113000E2F7498340954A830BEB13E087E0882E62
:10114000912C512C80911104909112040297CCF0B3
:10115000D80158968C9158979201082C02C0359569
:1011600027950A94E2F720FF16C0B9818B2BF8016E
:10117000808FF801408D68E0681981E090E00E945E
:101180008B03F1E08F1A91080F5F1F4F2FEF82162C
:101190009206C1F672CFFA818F2358968C93E9CFCD
:1011A00081E090E00E947B043092B6032092B50368
:1011B0006092B4031092B7031092B8031092000229
:1011C0000E945A034ECE80910002882309F484CFF6
:1011D00083E090E00E947B046092B7031092B80312
:1011E0001092B403EBCF80910002882309F47CCFE6
:1011F00082E090E00E947B048B819C819093B603F7
:101200008093B503D5CFA1E21A2EAA1BBB1BFD010B
:101210000DC0AA1FBB1FEE1FFF1FA217B307E407D5
:10122000F50720F0A21BB30BE40BF50B661F771F2D
:10123000881F991F1A9469F760957095809590950D
:101240009B01AC01BD01CF010895EE0FFF1F881F68
:0E1250008BBF0790F691E02D1994F894FFCF14
:10125E00010000000000000000000000000000007F
:10126E000000000000ED02570284023A03B502931B
:10127E0002A7020D0A002D2D2D2D2D2D004172726B
:0A128E00696261004162616A6F004D
:00000001FF
