:100000000C9435010C9466010C9466010C94660105
:100010000C9466010C9466010C9466010C946601C4
:100020000C9466010C9466010C9466010C946601B4
:100030000C9466010C9466010C9466010C946601A4
:100040000C9466010C9466010C9466010C94660194
:100050000C9466010C9466010C9466010C94A9043E
:100060000C9466010C941D050C94F3040C94660129
:100070000C9466010C9466010C9466010C94660164
:100080000C9466010C9466010C9466010C94660154
:100090000C9466010C9466010C9466010C94660144
:1000A0000C9466010C9466010C9466010C94660134
:1000B0000C9466010C9466010C9466010C94660124
:1000C0000C9466010C9466010C9466010C94660114
:1000D0000C9466010C9466010C9466010C94660104
:1000E0000C9466010C94B9010C9493020C94A70231
:1000F0000C9486010C948C010C94A5010C94ED02D7
:100100000C949B010C94C7010C94CB010C94B3018B
:100110000C94A1010C9453050C94C1010C94B502EC
:100120000C9498010C94C6010C9484020C94AB01BD
:100130000C9490010C94BD010C943A030C94AF0103
:100140000C9457020C949401000021002400270015
:100150002A002D00300033000101000004010701D6
:100160000A0100002200250028002B002E0031008B
:10017000340002010000050108010B01000020000D
:100180002300260029002C002F003200000100006F
:10019000030106010901050505050705080808080A
:1001A000020202020A0A080804040404010101010F
:1001B000010101010303030303030303040707070A
:1001C0000C0C0C0C0C0C0C0C0202020206060606AF
:1001D000060606060B0B0B0B0B0B0B0B010210207C
:1001E000200808102040102040800201020108046D
:1001F0000201010204081020408080402010080401
:100200000201800402018040201008040201080459
:10021000020101020408102040800102040810209D
:10022000408000000A0B02090C0D0E0807030401B0
:1002300000000000000000000000000000000000BE
:10024000000000000000000000000000000012118B
:10025000100000000000000000000000000000008E
:100260000000000000000000530511241FBECFEF66
:10027000D1E2DEBFCDBF00E00CBF12E0A0E0B2E0F3
:10028000E4E7F7E100E00BBF02C007900D92A6344F
:10029000B107D9F724E0A6E4B2E001C01D92AB3269
:1002A000B207E1F711E0C5E3D1E000E006C0219715
:1002B0000109802FFE010E94A30BC433D10780E007
:1002C0000807A9F70E946F060C94B80B0C94000065
:1002D0008150823108F05AC0E82FF0E08827EC58AE
:1002E000FE4F8F4F0C94A30B9401980186018C0153
:1002F0009001C6019B01A101A501AB01AF01B301B2
:10030000B901BD01C601C101C701CB0180918000C7
:100310008F77809380000895809180008F7DF9CF42
:1003200080918000877FF5CF84B58F7784BD089555
:1003300084B58F7DFBCF8091B0008F778093B00024
:1003400008958091B0008F7DF9CF809190008F77D4
:10035000809390000895809190008F7DF9CF8091D7
:100360009000877FF5CF8091A0008F778093A000C9
:1003700008958091A0008F7DF9CF8091A000877FA4
:10038000F5CF809120018F7780932001089580918F
:1003900020018F7DF9CF80912001877FF5CFCF930A
:1003A000DF93282F30E0F901EE5DFD4F8491F901D4
:1003B000E452FE4FD491F901EA56FE4FC491CC238A
:1003C000A1F081110E946801EC2FF0E0EE0FFF1FF9
:1003D000E458FE4FA591B491EC91ED2381E090E0BB
:1003E00009F480E0DF91CF91089580E090E0FACFAA
:1003F0001F93CF93DF93282F30E0F901EE5DFD4F7F
:100400008491F901E452FE4FD491F901EA56FE4F6E
:10041000C491CC23A9F0162F81110E946801EC2F02
:10042000F0E0EE0FFF1FEE59FE4FA591B4918FB78C
:10043000F894EC91111108C0D095DE23DC938FBFA6
:10044000DF91CF911F910895DE2BF8CFCF93DF93EB
:1004500090E0FC01E452FE4F24918A569E4FFC012D
:1004600084918823D1F090E0880F991FFC01E85B0C
:10047000FE4FA591B491FC01EE59FE4FC591D49168
:1004800061110EC09FB7F8948C91E22FE0958E23F6
:100490008C932881E223E8839FBFDF91CF91089559
:1004A0008FB7F894EC91E22BEC938FBFF6CFAF921D
:1004B000BF92CF92DF92EF92FF920F931F93CF9351
:1004C000DF936C017B018B01040F151FEB015E01B3
:1004D000AE18BF08C017D10759F06991D601ED9148
:1004E000FC910190F081E02DC6011995892B79F7D7
:1004F000C501DF91CF911F910F91FF90EF90DF9099
:10050000CF90BF90AF900895FC01538D448D252F5F
:1005100030E0842F90E0821B930B541710F0CF969D
:10052000089501970895FC01918D828D981761F0CF
:10053000A28DAE0FBF2FB11D5D968C91928D9F5FE6
:100540009F73928F90E008958FEF9FEF0895FC01C5
:10055000918D828D981731F0828DE80FF11D858D78
:1005600090E008958FEF9FEF0895FC01918D228D0B
:10057000892F90E0805C9F4F821B91098F73992790
:10058000089581E692E00E94B50221E0892B09F4EA
:1005900020E0822F0895FC01A48DA80FB92FB11D72
:1005A000A35ABF4F2C91848D90E001968F739927A9
:1005B000848FA689B7892C93A089B1898C91837087
:1005C00080648C93938D848D981306C00288F38980
:1005D000E02D80818F7D80830895EF92FF920F93AD
:1005E0001F93CF93DF93EC0181E0888F9B8D8C8DDF
:1005F00098131AC0E889F989808185FF15C09FB7D3
:10060000F894EE89FF896083E889F9898081837095
:10061000806480839FBF81E090E0DF91CF911F9144
:100620000F91FF90EF900895F62E0B8D10E00F5F65
:100630001F4F0F731127E02E8C8D8E110CC00FB63B
:1006400007FCFACFE889F989808185FFF5CFCE01D3
:100650000E94CB02F1CFEB8DEC0FFD2FF11DE35A81
:10066000FF4FF0829FB7F8940B8FEA89FB89808156
:100670008062CFCFCF93DF93EC01888D8823B9F0D0
:10068000AA89BB89E889F9898C9185FD03C080819D
:1006900086FD0DC00FB607FCF7CF8C9185FFF2CF1A
:1006A000808185FFEDCFCE010E94CB02E9CFDF91A3
:1006B000CF91089580E090E0892B29F00E94C1023B
:1006C00081110E94000080E090E0892B49F080E0D9
:1006D00090E0892B29F00E94000081110E94000007
:1006E00080E090E0892B49F080E090E0892B29F0B0
:1006F0000E94000081110E94000080E090E0892BA0
:1007000049F080E090E0892B29F00E9400008111DF
:100710000C9400000895CF92DF92EF92FF920F9316
:100720001F93CF93DF931F921F92CDB7DEB76983DC
:100730004A83880F991F0091290410912A04000F01
:10074000111FE3EDF3E09F01235D334020173107D4
:1007500014F41192F8CF2981FC01ED52FC4F218352
:100760008A81808360E0809127040E94F80110163E
:10077000110604F501501109F801ED52FC4FE0801B
:10078000D0902504C090230488E0F82E6E2D661FBB
:100790006627661F8C2D0E94F801EE0C61E08D2DFE
:1007A0000E94F80160E08D2D0E94F801FA94F1108A
:1007B000EDCFDDCF61E0809127040F900F90DF91A6
:1007C000CF911F910F91FF90EF90DF90CF900C94FD
:1007D000F801EF92FF920F931F93CF937C018C014E
:1007E00083E0000F111F8A95E1F70D511C4FC1E006
:1007F000F80111928F0140E06C2FC7010E948B031A
:10080000CF5FC930A9F7CF911F910F91FF90EF9063
:100810000895FC0101900020E9F73197AF01481BD2
:10082000590BBC0181E692E00C945702CF93DF9301
:100830000E940904EC0187E292E00E9409048C0FF7
:100840009D1FDF91CF9108958F929F92AF92BF929B
:10085000CF92DF92EF92FF920F931F93CF93DF938C
:10086000CDB7DEB7A1970FB6F894DEBF0FBECDBFF0
:100870006C01990FEE08FF08F7FE47C06DE281E6B4
:1008800092E00E94ED028C0122273327A9012C1946
:100890003D094E095F0919A2CE0181967C019AE0BB
:1008A000892E912CA12CB12CCA01B901A50194016A
:1008B0000E94720B605DF70162937F012115310583
:1008C0004105510589F790E080E0309719F0CF019C
:1008D0000E940904080F191F87E292E00E94090490
:1008E000800F911FA1960FB6F894DEBF0FBECDBF4B
:1008F000DF91CF911F910F91FF90EF90DF90CF90FC
:10090000BF90AF909F908F900895A701960119A274
:100910008E010F5D1F4F8AE0C82ED12CE12CF12CE7
:10092000CA01B901A70196010E94720B605DF8012E
:1009300062938F01211531054105510589F73097E3
:1009400029F0CF010E9409048C01C6CF10E000E01D
:10095000C3CF1F920F920FB60F9211242F933F9384
:100960008F939F93AF93BF9380915D0290915E02AE
:10097000A0915F02B091600230915C0223E0230FEE
:100980002D3758F50196A11DB11D20935C0280936F
:100990005D0290935E02A0935F02B093600280912B
:1009A000580290915902A0915A02B0915B020196AF
:1009B000A11DB11D8093580290935902A0935A0231
:1009C000B0935B02BF91AF919F918F913F912F9117
:1009D0000F900FBE0F901F90189526E8230F0296D8
:1009E000A11DB11DD2CF1F920F920FB60F921124ED
:1009F0000BB60F922F933F934F935F936F937F9319
:100A00008F939F93AF93BF93EF93FF9381E692E011
:100A10000E94CB02FF91EF91BF91AF919F918F9177
:100A20007F916F915F914F913F912F910F900BBEEE
:100A30000F900FBE0F901F9018951F920F920FB638
:100A40000F9211240BB60F922F938F939F93EF93D6
:100A5000FF93E0917102F09172028081E091770240
:100A6000F091780282FD1DC0908180917A028F5FA3
:100A70008F7320917B02821741F0E0917A02F0E0BF
:100A8000EF59FD4F958F80937A02FF91EF919F91DF
:100A90008F912F910F900BBE0F900FBE0F901F9054
:100AA00018958081F2CFCF92DF92EF92FF92CF9391
:100AB000DF93109264021092630288EE93E0A0E04C
:100AC000B0E08093650290936602A0936702B093B2
:100AD000680289E192E0909362028093610285EC62
:100AE00090E090936E0280936D0284EC90E090937E
:100AF000700280936F0280EC90E09093720280937A
:100B0000710281EC90E0909374028093730282EC06
:100B100090E0909376028093750286EC90E090933B
:100B200078028093770210927A0210927B021092E0
:100B30007C0210927D02C3E3D0E0D0932404C093E2
:100B4000230484E390E0909326048093250485E3B6
:100B500090E0909328048093270482E090E09093A3
:100B60002A048093290461E083E30E94260261E065
:100B7000809125040E94260261E0809127040E9452
:100B8000260261E0809127040E94F801D09324049A
:100B9000C0932304E3EEF3E083E294E011928E1716
:100BA0009F07E1F7D0E0C0E08091290490912A04EA
:100BB000C817D90774F540E06FE0CE010E948B039F
:100BC0008091290490912A04C817D9072CF447E092
:100BD0006BE0CE010E948B0340E069E0CE010E94F1
:100BE0008B038091290490912A04C817D9071CF41B
:100BF000CE010E94E9038091290490912A04C8172C
:100C0000D9072CF440E06CE0CE010E948B032196C2
:100C1000CBCF0E94E80A2FE030E040E050E00E9495
:100C2000400B7093D0036093CF030E94E80A27E043
:100C300030E040E050E00E94400B7093D20360939C
:100C4000D10387E0C82ED12CE12CF12C2091D103C7
:100C50003091D2032430310559F40E94E80AA701EB
:100C600096010E94400B7093D2036093D103EECFA4
:100C700081E0982F01C0990F2A95EAF79093CE034F
:100C800022E030E03093C6032093C50326E030E035
:100C90003093FF022093FE0225E030E03093010301
:100CA0002093000398E0909380039093810391E058
:100CB0009093C0031092C4031092C3038093C103A6
:100CC0001092C20380E094E09093CB038093CA0318
:100CD000DF91CF91FF90EF90DF90CF900895CF9369
:100CE000DF9300D000D0CDB7DEB7789484B58260B2
:100CF00084BD84B5816084BD85B5826085BD85B5C0
:100D0000816085BD80916E00816080936E0010923D
:100D100081008091810082608093810080918100B8
:100D20008160809381008091800081608093800049
:100D30008091B10084608093B1008091B0008160A7
:100D40008093B000809191008260809391008091A7
:100D500091008160809391008091900081608093E8
:100D600090008091A10082608093A1008091A100F9
:100D700081608093A1008091A00081608093A00099
:100D80008091210182608093210180912101816005
:100D900080932101809120018160809320018091C6
:100DA0007A00846080937A0080917A0082608093D8
:100DB0007A0080917A00816080937A0080917A0035
:100DC000806880937A001092C100E0917102F091E6
:100DD000720282E08083E0916D02F0916E021082D7
:100DE000E0916F02F09170028FEC80831092790293
:100DF000E0917502F091760286E08083E0917302C3
:100E0000F0917402808180618083E0917302F0919F
:100E10007402808188608083E0917302F091740293
:100E2000808180688083E0917302F09174028081F8
:100E30008F7D80838091290490912A0418161906C9
:100E400034F441E06CE090E080E00E948B038091FC
:100E5000290490912A041816190634F44FE06AE028
:100E600090E080E00E948B038091290490912A04F5
:100E70001816190624F490E080E00E94E90380919E
:100E8000290490912A04029734F041E06CE081E05B
:100E900090E00E948B038091290490912A0402978C
:100EA00034F04FE06AE081E090E00E948B03809193
:100EB000290490912A04029724F081E090E00E9496
:100EC000E90360E086E10E94260260E088E10E947A
:100ED000260260E087E10E94260260E089E10E942C
:100EE00026021092570210925602B8E06B2EFF2491
:100EF000F3941FE0212E312C412C512C07E0802E41
:100F0000912CA12CB12C8091560290915702892BE3
:100F100009F0EFC280E1E5E0F2E0A6E4B2E0019082
:100F20000D928A95E1F74091C5035091C603EEEF0B
:100F3000F2E0A0E8CA2EA3E0DA2E9F0190E080E064
:100F40004817590781F0D9016D917D919D018B0161
:100F50000A5B1D4FD6017D916D01D8016C91672B05
:100F60006C930196EDCFA091CF03B091D003AA5B13
:100F7000BD4F8C919091CE03892B8C938FB7F894B1
:100F800040915D0250915E0260915F02709160023B
:100F90008FBF80917E0390917F03092E000CAA0BD6
:100FA000BB0B481B590B6A0B7B0B8091CA039091BA
:100FB000CB03092E000CAA0BBB0B84179507A607C1
:100FC000B70708F034C18091C0038823D9F120917C
:100FD000FE023091FF023093C8032093C703809133
:100FE00080038093C9038091C1039091C203820F53
:100FF000931F9093FF028093FE022091C5033091CE
:10100000C6031091C7030091C8034091C90371E85A
:10101000C72E73E0D72E81E090E0329682179307B7
:10102000C8F560815181D6017D916D0110830183E6
:101030008D0101501109D8014C930196472F162FAD
:10104000052FEBCF8091C303882381F08091FE02AE
:101050009091FF029093C8038093C703809180030F
:101060008093C903880F80938003C7CF8091C40306
:10107000882319F28091FE029091FF029093C80399
:101080008093C703809180038093C90390E0959576
:101090008795E9CF1093C7030093C8034093C90312
:1010A0002FB7F89480915D0290915E02A0915F024B
:1010B000B09160022FBF90937F0380937E032091B5
:1010C000FE023091FF028091CF039091D003281748
:1010D000390709F0ACC06091CE0370E080918003C5
:1010E00048E050E090E00E94AB0B892B09F09FC0D4
:1010F000E091C503F091C603FA83E983EE0FFF1F69
:10110000E250FD4F8091C7039091C8039183808383
:10111000E981FA81E058FC4F8091C90380830981FD
:101120001A810F5F1F4F1A8309831093C603009320
:10113000C5030E94E80AA20191010E94400B70932E
:10114000D0036093CF030E94E80AA50194010E9496
:10115000400B7093D2036093D10390E080E009814B
:101160001A8180179107E0F4FC01EE0FFF1FE25097
:10117000FD4F408151812091CF033091D003421720
:10118000530761F40E94E80AA20191010E94400BFA
:101190007093D0036093CF0390E080E00196DFCF9F
:1011A00010E000E0CC24C394D12CB6010090D10310
:1011B00002C0660F771F0A94E2F729813A8102176D
:1011C0001307D0F4F801E058FC4F808148E050E06C
:1011D00090E00E94AB0B892B61F40E94E80AA50104
:1011E00094010E94400B7093D2036093D10310E0EE
:1011F00000E00F5F1F4FD9CF6093CE038AE292E0E9
:101200000E9416048091CA039091CB0380549109E7
:1012100097FDC4C09093CB038093CA038091CC0305
:101220009091CD0301969093CD038093CC03809150
:10123000800348E050E070E060E090E00E94AB0B7B
:10124000892B09F0B2C08AE392E00E9416048091D3
:10125000CC039091CD030E94240406E412E01C8389
:101260000B831E821D82AB81BC818D91BC83AB83BD
:101270002091290430912A040D811E810830110526
:101280000CF0DCC012161306F4F520E830E00D80F7
:1012900002C0359527950A94E2F7722EE22EE0946B
:1012A00003ED13E027E0C22ED12C282F30E03A8343
:1012B00029838091290490912A0418161906D4F4E0
:1012C000D80150962C91509789819A810C2C02C09C
:1012D000959587950A94E2F780FFACC02729509630
:1012E0002C93D80150964C91662D6C1990E080E0BB
:1012F0000E948B03B1E0CB1AD1080F5F1F4FEFEFB5
:10130000CE16DE06B1F60D811E810F5F1F4F1E83C4
:101310000D830031110509F0A6CF86E10E94CF01AF
:10132000892B89F487E10E94CF01892B61F488E140
:101330000E94CF01892B39F489E10E94CF01892BCA
:1013400011F4F092000286E10E94CF01019721F48E
:10135000809100028111BBC087E10E94CF010197FB
:1013600009F4CAC088E10E94CF019A83898301975A
:1013700009F4D2C089E10E94CF01019709F0B9C0F8
:1013800080910002882309F4B4C084E090E00E94B8
:1013900024041092C303F092C403BBC040E850E0A1
:1013A0005093CB034093CA0339CF8091FE029091B2
:1013B000FF028031910509F446CF019609F443CF2D
:1013C00000E013E081E090E09A8389838091C50377
:1013D0009091C603A981BA81A817B90708F03DCF3B
:1013E000F801819191918F012091FE023091FF02CD
:1013F00028173907C1F4FD01E058FC4F608170E007
:101400008091800348E050E090E00E94AB0B892B74
:1014100051F48AE392E00E9416048091CC039091EB
:10142000CD030E94240429813A812F5F3F4F3A83E4
:101430002983CCCF2E21F801208B53CF22303105C8
:101440000CF461CF2D813E812850310900E810E075
:1014500002C0159507952A95E2F7702EE02EE094CC
:1014600003ED13E097E0C92ED12C282F30E03A830A
:1014700029838091290490912A040297D4F0D801FD
:1014800058962C91589789819A810C2C02C0959579
:1014900087950A94E2F780FF16C0272958962C9367
:1014A000D80158964C91662D6C1981E090E00E940D
:1014B0008B03B1E0CB1AD1080F5F1F4FEFEFCE16B1
:1014C000DE06B9F620CF2E21F801208FE9CF81E08A
:1014D00090E00E9424042FEF3FEF3093C20320934B
:1014E000C103F092C0031092C3031092C403109280
:1014F00000020E945A0307CD80910002882309F45C
:1015000031CF83E090E00E942404F092C303109254
:10151000C4031092C003EBCF80910002882309F42A
:1015200029CF82E090E00E94240409811A8110935F
:10153000C2030093C103D5CF8F929F92AF92BF9207
:10154000CF92DF92EF92FF92CF93DF93EC0168810D
:1015500079818A819B81611571058105910521F44D
:1015600064E279ED8BE597E02DE133EF41E050E067
:101570000E94400B49015A019B01AC01A7EAB1E46A
:101580000E945F0B6B017C01ACEEB4EFA5019401EE
:101590000E946D0BC60ED71EE81EF91EF7FE06C090
:1015A00081E0C81AD108E10880E8F80AC882D98227
:1015B000EA82FB82C701B6019F77DF91CF91FF904E
:1015C000EF90DF90CF90BF90AF909F908F90089555
:1015D0008F929F92AF92BF92CF92DF92EF92FF9243
:1015E00060910102709102028091030290910402C5
:1015F000611571058105910521F464E279ED8BE5B2
:1016000097E02DE133EF41E050E00E94400B4901AB
:101610005A019B01AC01A7EAB1E40E945F0B6B0188
:101620007C01ACEEB4EFA50194010E946D0BC60ED7
:10163000D71EE81EF91EF7FE06C081E0C81AD108C1
:10164000E10880E8F80AC0920102D0920202E0921A
:101650000302F0920402C701B6019F77FF90EF905A
:10166000DF90CF90BF90AF909F908F900895609340
:101670000102709302028093030290930402089582
:10168000052E97FB1EF400940E94570B57FD07D0C0
:101690000E94720B07FC03D04EF40C94570B50952C
:1016A0004095309521953F4F4F4F5F4F089590954E
:1016B0008095709561957F4F8F4F9F4F08950E9441
:1016C000940BA59F900DB49F900DA49F800D911D2C
:1016D00011240895B7FF0C945F0B0E945F0B821BCF
:1016E000930B0895A1E21A2EAA1BBB1BFD010DC08E
:1016F000AA1FBB1FEE1FFF1FA217B307E407F507C2
:1017000020F0A21BB30BE40BF50B661F771F881F9D
:10171000991F1A9469F760957095809590959B0133
:10172000AC01BD01CF010895A29FB001B39FC001DC
:10173000A39F700D811D1124911DB29F700D811DFD
:101740001124911D0895EE0FFF1F881F8BBF079076
:10175000F691E02D1994FB01DC0104C08D910190FC
:10176000801921F441505040C8F7881B990B089507
:04177000F894FFCF1B
:101774000101000000000000000000000000000063
:10178400000000000000000000ED02570284023A4D
:1017940003B5029302A7020D0A00436F6D696F201F
:1017A4004F626A657469766F730047414D455220F4
:0617B4004F5645520000F3
:00000001FF
