:100000000C9435010C9466010C9466010C94660105
:100010000C9466010C9466010C9466010C946601C4
:100020000C9466010C9466010C9466010C946601B4
:100030000C9466010C9466010C9466010C946601A4
:100040000C9466010C9466010C9466010C94660194
:100050000C9466010C9466010C9466010C9449049E
:100060000C9466010C94BD040C9493040C946601EA
:100070000C9466010C9466010C9466010C94660164
:100080000C9466010C9466010C9466010C94660154
:100090000C9466010C9466010C9466010C94660144
:1000A0000C9466010C9466010C9466010C94660134
:1000B0000C9466010C9466010C9466010C94660124
:1000C0000C9466010C9466010C9466010C94660114
:1000D0000C9466010C9466010C9466010C94660104
:1000E0000C9466010C94B9010C9493020C94A70231
:1000F0000C9486010C948C010C94A5010C94ED02D7
:100100000C949B010C94C7010C94CB010C94B3018B
:100110000C94A1010C94F3040C94C1010C94B5024D
:100120000C9498010C94C6010C9484020C94AB01BD
:100130000C9490010C94BD010C943A030C94AF0103
:100140000C9457020C949401000021002400270015
:100150002A002D00300033000101000004010701D6
:100160000A0100002200250028002B002E0031008B
:10017000340002010000050108010B01000020000D
:100180002300260029002C002F003200000100006F
:10019000030106010901050505050705080808080A
:1001A000020202020A0A080804040404010101010F
:1001B000010101010303030303030303040707070A
:1001C0000C0C0C0C0C0C0C0C0202020206060606AF
:1001D000060606060B0B0B0B0B0B0B0B010210207C
:1001E000200808102040102040800201020108046D
:1001F0000201010204081020408080402010080401
:100200000201800402018040201008040201080459
:10021000020101020408102040800102040810209D
:10022000408000000A0B02090C0D0E0807030401B0
:1002300000000000000000000000000000000000BE
:10024000000000000000000000000000000012118B
:10025000100000000000000000000000000000008E
:100260000000000000000000F30411241FBECFEFC7
:10027000D1E2DEBFCDBF00E00CBF12E0A0E0B2E0F3
:10028000ECEEF5E100E00BBF02C007900D92A23545
:10029000B107D9F724E0A2E5B2E001C01D92A33373
:1002A000B207E1F711E0C5E3D1E000E006C0219715
:1002B0000109802FFE010E94DF0AC433D10780E0CC
:1002C0000807A9F70E9409060C94F40A0C94000090
:1002D0008150823108F05AC0E82FF0E08827EC58AE
:1002E000FE4F8F4F0C94DF0A9401980186018C0118
:1002F0009001C6019B01A101A501AB01AF01B301B2
:10030000B901BD01C601C101C701CB0180918000C7
:100310008F77809380000895809180008F7DF9CF42
:1003200080918000877FF5CF84B58F7784BD089555
:1003300084B58F7DFBCF8091B0008F778093B00024
:1003400008958091B0008F7DF9CF809190008F77D4
:10035000809390000895809190008F7DF9CF8091D7
:100360009000877FF5CF8091A0008F778093A000C9
:1003700008958091A0008F7DF9CF8091A000877FA4
:10038000F5CF809120018F7780932001089580918F
:1003900020018F7DF9CF80912001877FF5CFCF930A
:1003A000DF93282F30E0F901EE5DFD4F8491F901D4
:1003B000E452FE4FD491F901EA56FE4FC491CC238A
:1003C000A1F081110E946801EC2FF0E0EE0FFF1FF9
:1003D000E458FE4FA591B491EC91ED2381E090E0BB
:1003E00009F480E0DF91CF91089580E090E0FACFAA
:1003F0001F93CF93DF93282F30E0F901EE5DFD4F7F
:100400008491F901E452FE4FD491F901EA56FE4F6E
:10041000C491CC23A9F0162F81110E946801EC2F02
:10042000F0E0EE0FFF1FEE59FE4FA591B4918FB78C
:10043000F894EC91111108C0D095DE23DC938FBFA6
:10044000DF91CF911F910895DE2BF8CFCF93DF93EB
:1004500090E0FC01E452FE4F24918A569E4FFC012D
:1004600084918823D1F090E0880F991FFC01E85B0C
:10047000FE4FA591B491FC01EE59FE4FC591D49168
:1004800061110EC09FB7F8948C91E22FE0958E23F6
:100490008C932881E223E8839FBFDF91CF91089559
:1004A0008FB7F894EC91E22BEC938FBFF6CFAF921D
:1004B000BF92CF92DF92EF92FF920F931F93CF9351
:1004C000DF936C017B018B01040F151FEB015E01B3
:1004D000AE18BF08C017D10759F06991D601ED9148
:1004E000FC910190F081E02DC6011995892B79F7D7
:1004F000C501DF91CF911F910F91FF90EF90DF9099
:10050000CF90BF90AF900895FC01538D448D252F5F
:1005100030E0842F90E0821B930B541710F0CF969D
:10052000089501970895FC01918D828D981761F0CF
:10053000A28DAE0FBF2FB11D5D968C91928D9F5FE6
:100540009F73928F90E008958FEF9FEF0895FC01C5
:10055000918D828D981731F0828DE80FF11D858D78
:1005600090E008958FEF9FEF0895FC01918D228D0B
:10057000892F90E0805C9F4F821B91098F73992790
:1005800008958DE692E00E94B50221E0892B09F4DE
:1005900020E0822F0895FC01A48DA80FB92FB11D72
:1005A000A35ABF4F2C91848D90E001968F739927A9
:1005B000848FA689B7892C93A089B1898C91837087
:1005C00080648C93938D848D981306C00288F38980
:1005D000E02D80818F7D80830895EF92FF920F93AD
:1005E0001F93CF93DF93EC0181E0888F9B8D8C8DDF
:1005F00098131AC0E889F989808185FF15C09FB7D3
:10060000F894EE89FF896083E889F9898081837095
:10061000806480839FBF81E090E0DF91CF911F9144
:100620000F91FF90EF900895F62E0B8D10E00F5F65
:100630001F4F0F731127E02E8C8D8E110CC00FB63B
:1006400007FCFACFE889F989808185FFF5CFCE01D3
:100650000E94CB02F1CFEB8DEC0FFD2FF11DE35A81
:10066000FF4FF0829FB7F8940B8FEA89FB89808156
:100670008062CFCFCF93DF93EC01888D8823B9F0D0
:10068000AA89BB89E889F9898C9185FD03C080819D
:1006900086FD0DC00FB607FCF7CF8C9185FFF2CF1A
:1006A000808185FFEDCFCE010E94CB02E9CFDF91A3
:1006B000CF91089580E090E0892B29F00E94C1023B
:1006C00081110E94000080E090E0892B49F080E0D9
:1006D00090E0892B29F00E94000081110E94000007
:1006E00080E090E0892B49F080E090E0892B29F0B0
:1006F0000E94000081110E94000080E090E0892BA0
:1007000049F080E090E0892B29F00E9400008111DF
:100710000C9400000895CF92DF92EF92FF920F9316
:100720001F93CF93DF931F921F92CDB7DEB76983DC
:100730004A83880F991F0091310410913204000FF1
:10074000111FEBEDF3E09F012B5D334020173107C4
:1007500014F41192F8CF2981FC01E552FC4F21835A
:100760008A81808360E080912F040E94F801101636
:10077000110604F501501109F801E552FC4FE08023
:10078000D0902D04C0902B0488E0F82E6E2D661FAB
:100790006627661F8C2D0E94F801EE0C61E08D2DFE
:1007A0000E94F80160E08D2D0E94F801FA94F1108A
:1007B000EDCFDDCF61E080912F040F900F90DF919E
:1007C000CF911F910F91FF90EF90DF90CF900C94FD
:1007D000F801EF92FF920F931F93CF937C018C014E
:1007E00083E0000F111F8A95E1F705511C4FC1E00E
:1007F000F80111928F0140E06C2FC7010E948B031A
:10080000CF5FC930A9F7CF911F910F91FF90EF9063
:100810000895FC0101900020E9F73197AF01481BD2
:10082000590BBC018DE692E00C945702CF93DF93F5
:100830000E940904EC0187E292E00E9409048C0FF7
:100840009D1FDF91CF9108950F931F93CF93DF9357
:10085000CDB7DEB7A1970FB6F894DEBF0FBECDBF00
:1008600019A2805D88A3CE0180960E9409048C01A4
:1008700087E292E00E940904800F911FA1960FB6B3
:10088000F894DEBF0FBECDBFDF91CF911F910F91C6
:1008900008951F920F920FB60F9211242F933F933A
:1008A0008F939F93AF93BF938091690290916A0257
:1008B000A0916B02B0916C023091680223E0230F8B
:1008C0002D3758F50196A11DB11D20936802809324
:1008D000690290936A02A0936B02B0936C028091BC
:1008E000640290916502A0916602B0916702019640
:1008F000A11DB11D8093640290936502A0936602CE
:10090000B0936702BF91AF919F918F913F912F91CB
:100910000F900FBE0F901F90189526E8230F029698
:10092000A11DB11DD2CF1F920F920FB60F921124AD
:100930000BB60F922F933F934F935F936F937F93D9
:100940008F939F93AF93BF93EF93FF938DE692E0C6
:100950000E94CB02FF91EF91BF91AF919F918F9138
:100960007F916F915F914F913F912F910F900BBEAF
:100970000F900FBE0F901F9018951F920F920FB6F9
:100980000F9211240BB60F922F938F939F93EF9397
:10099000FF93E0917D02F0917E028081E0918302DD
:1009A000F091840282FD1DC09081809186028F5F4C
:1009B0008F7320918702821741F0E0918602F0E068
:1009C000E359FD4F958F80938602FF91EF919F91A0
:1009D0008F912F910F900BBE0F900FBE0F901F9015
:1009E00018958081F2CFCF92DF92EF92FF92CF9352
:1009F000DF931092700210926F0288EE93E0A0E0F5
:100A0000B0E08093710290937202A0937302B0934E
:100A1000740289E192E090936E0280936D0285ECFE
:100A200090E090937A028093790284EC90E0909326
:100A30007C0280937B0280EC90E090937E02809316
:100A40007D0281EC90E09093800280937F0282ECA3
:100A500090E0909382028093810286EC90E09093E4
:100A60008402809383021092860210928702109271
:100A7000880210928902C3E3D0E0D0932C04C09383
:100A80002B0484E390E090932E0480932D0485E35F
:100A900090E09093300480932F0482E090E0909354
:100AA00032048093310461E083E30E94260261E016
:100AB00080912D040E94260261E080912F040E9403
:100AC000260261E080912F040E94F801D0932C044B
:100AD000C0932B04EBEEF3E08BE294E011928E17BF
:100AE0009F07E1F7D0E0C0E080913104909132049B
:100AF000C817D90774F540E06FE0CE010E948B0360
:100B00008091310490913204C817D9072CF447E042
:100B10006BE0CE010E948B0340E069E0CE010E94B1
:100B20008B038091310490913204C817D9071CF4CB
:100B3000CE010E94E9038091310490913204C817DC
:100B4000D9072CF440E06CE0CE010E948B03219683
:100B5000CBCF0E94240A2FE030E040E050E00E941A
:100B60007C0A7093D8036093D7030E94240A27E07D
:100B700030E040E050E00E947C0A7093DA0360931A
:100B8000D90387E0C82ED12CE12CF12C2091D90378
:100B90003091DA032430310559F40E94240AA70168
:100BA00096010E947C0A7093DA036093D903EECF1A
:100BB00081E0982F01C0990F2A95EAF79093D60308
:100BC00022E030E03093D2032093D10326E030E0DE
:100BD00030930B0320930A0325E030E030930D039C
:100BE00020930C0398E090938C0390938D0391E0F5
:100BF0009093CC031092D0031092CF038093CD0337
:100C00001092CE03DF91CF91FF90EF90DF90CF90C5
:100C10000895CF93DF9300D000D01F921F92CDB7DD
:100C2000DEB7789484B5826084BD84B5816084BD6C
:100C300085B5826085BD85B5816085BD80916E007A
:100C4000816080936E0010928100809181008260AB
:100C500080938100809181008160809381008091E8
:100C600080008160809380008091B10084608093D7
:100C7000B1008091B00081608093B00080919100BC
:100C800082608093910080919100816080939100B7
:100C9000809190008160809390008091A10082609B
:100CA0008093A1008091A10081608093A100809138
:100CB000A00081608093A0008091210182608093D8
:100CC0002101809121018160809321018091200187
:100CD00081608093200180917A00846080937A0003
:100CE00080917A00826080937A0080917A0081609E
:100CF00080937A0080917A00806880937A001092C5
:100D0000C100E0917D02F0917E0282E08083E0915B
:100D10007902F0917A021082E0917B02F0917C02DC
:100D20008FEC808310928502E0918102F091820223
:100D300086E08083E0917F02F09180028081806173
:100D40008083E0917F02F0918002808188608083BF
:100D5000E0917F02F0918002808180688083E09141
:100D60007F02F091800280818F7D808380913104A9
:100D7000909132041816190634F441E06CE090E0CA
:100D800080E00E948B038091310490913204181608
:100D9000190634F44FE06AE090E080E00E948B0393
:100DA00080913104909132041816190624F490E0D1
:100DB00080E00E94E903809131049091320402970F
:100DC00034F041E06CE081E090E00E948B03809180
:100DD000310490913204029734F04FE06AE081E0F0
:100DE00090E00E948B03809131049091320402972D
:100DF00024F081E090E00E94E90360E086E10E9437
:100E0000260260E088E10E94260260E087E10E94FD
:100E1000260260E089E10E9426021092630210928D
:100E2000620270E8472E512CE8E02E2E33243394D2
:100E3000FFE0CF2ED12CE12CF12CA7E08A2E912CB3
:100E4000A12CB12C8091620290916302892B09F050
:100E50008CC280E1E5E0F2E0A2E5B2E001900D9203
:100E60008A95E1F74091D1035091D2036AE0662E52
:100E700063E0762EACE8B3E0930190E080E04817A1
:100E8000590769F0F901619171919F01FB01EE5AD7
:100E9000FD4F7D916081672B60830196F0CFE091DB
:100EA000D703F091D803EE5AFD4F80819091D6037D
:100EB000892B80832FB7F8948091690290916A0200
:100EC000A0916B02B0916C022FBF20918A033091E8
:100ED0008B03032E000C440B550B821B930BA40BAE
:100EE000B50B8B3F9105A105B10508F424C1809194
:100EF000CC038823E1F120910A0330910B03309356
:100F0000D4032093D30380918C038093D5038091E5
:100F1000CD039091CE03820F931F90930B03809388
:100F20000A032091D1033091D2036091D3035091F1
:100F3000D4034091D503EDE8F3E081E090E072E066
:100F4000670E711C8217930708F042C0D3011C91F1
:100F500011967C91119701916C9311965C93DF012E
:100F600011974C930196402F612F572FE8CF809116
:100F7000CF038823A1F08AE292E00E9416048091B8
:100F80000A0390910B039093D4038093D303809131
:100F90008C038093D503880F80938C03C2CF8091FC
:100FA000D003882309F4BDCF81E392E00E941604A8
:100FB00080910A0390910B039093D4038093D30301
:100FC00080918C038093D50390E095958795E4CF2D
:100FD0006093D3035093D4034093D5032FB7F89471
:100FE0008091690290916A02A0916B02B0916C02AB
:100FF0002FBF90938B0380938A0320910A03309133
:101000000B038091D7039091D8032817390709F073
:1010100092C06091D60370E080918C0348E050E06C
:1010200090E00E94E70A892B09F085C00091D10366
:101030001091D203F801EE0FFF1FE65FFC4F809185
:10104000D3039091D40391838083F801E457FC4F3C
:101050008091D50380830F5F1F4F1093D2030093BD
:10106000D1030E94240AA70196010E947C0A709372
:10107000D8036093D7030E94240AA50194010E941B
:101080007C0A7093DA036093D90390E080E08017C4
:101090009107E0F4FC01EE0FFF1FE65FFC4F40817B
:1010A00051812091D7033091D8034217530761F43F
:1010B0000E94240AA70196010E947C0A7093D8031B
:1010C0006093D70390E080E00196E1CF1C821B8201
:1010D00066246394712CB3010090D90302C0660F9B
:1010E000771F0A94E2F7EB81FC81E017F107E8F43F
:1010F000E457FC4F808148E050E090E00E94E70A0E
:10110000892B61F40E94240AA50194010E947C0AA3
:101110007093DA036093D9031C821B822B813C817C
:101120002F5F3F4F3C832B83D6CF6093D60387E35B
:1011300092E00E94160480918C0348E050E070E039
:1011400060E090E00E94E70A892B09F0A4C087E4E0
:1011500092E00E94160442E552E05E834D831886B9
:101160001F82AD81BE812D91BE83AD8380913104FC
:1011700090913204EF81F88538970CF09DC01816D5
:101180001906F4F5C2010F8002C0959587950A945F
:10119000E2F78983F82FF095FA830BED13E097E0DF
:1011A000692E712C422F50E05C834B838091310477
:1011B0009091320418161906D4F4D80150962C9147
:1011C00050978B819C81062C02C0959587950A9437
:1011D000E2F780FF6CC0B9812B2BF801208BF8015E
:1011E0004089622D661990E080E00E948B03F1E057
:1011F0006F1A71080F5F1F4F2FEF62167206B1F65C
:101200004F8158854F5F5F4F58874F83403151055D
:1012100009F0A7CF86E10E94CF01892B89F487E1ED
:101220000E94CF01892B61F488E10E94CF01892BB4
:1012300039F489E10E94CF01892B11F43092000228
:1012400086E10E94CF01019721F480910002811173
:101250007AC087E10E94CF01019709F489C088E133
:101260000E94CF019C838B83019709F491C089E18F
:101270000E94CF01019709F078C080910002882375
:1012800009F473C084E090E00E9424041092CF031C
:101290003092D0037AC080910A0390910B03803181
:1012A000910509F454CF019609F055CF50CFFA813A
:1012B0002F2350962C9393CF02970CF4A1CF8F81BC
:1012C00098850897A20102C0559547958A95E2F73F
:1012D000498340954A830BED13E087E0682E712C1B
:1012E000822F90E09C838B83809131049091320413
:1012F0000297D4F0D80158962C9158978B819C81F5
:10130000062C02C0959587950A94E2F780FF16C0D7
:10131000B9812B2BF801208FF801408D622D6619C1
:1013200081E090E00E948B03F1E06F1A71080F5F7B
:101330001F4F2FEF62167206B9F662CFFA812F2384
:1013400058962C93E9CF81E090E00E9424048FEF1F
:101350009FEF9093CE038093CD033092CC031092F5
:10136000CF031092D003109200020E945A036ACD5C
:1013700080910002882309F472CF83E090E00E94FC
:1013800024043092CF031092D0031092CC03EBCF01
:1013900080910002882309F46ACF82E090E00E94E5
:1013A0002404AB81BC81B093CE03A093CD03D5CFF1
:1013B0008F929F92AF92BF92CF92DF92EF92FF9265
:1013C000CF93DF93EC01688179818A819B816115DC
:1013D00071058105910521F464E279ED8BE597E0D3
:1013E0002DE133EF41E050E00E947C0A49015A01AF
:1013F0009B01AC01A7EAB1E40E949B0A6B017C014E
:10140000ACEEB4EFA50194010E94A90AC60ED71E46
:10141000E81EF91EF7FE06C081E0C81AD108E108EF
:1014200080E8F80AC882D982EA82FB82C701B60145
:101430009F77DF91CF91FF90EF90DF90CF90BF909B
:10144000AF909F908F9008958F929F92AF92BF928E
:10145000CF92DF92EF92FF926091010270910202AF
:101460008091030290910402611571058105910537
:1014700021F464E279ED8BE597E02DE133EF41E073
:1014800050E00E947C0A49015A019B01AC01A7EA85
:10149000B1E40E949B0A6B017C01ACEEB4EFA501A4
:1014A00094010E94A90AC60ED71EE81EF91EF7FE77
:1014B00006C081E0C81AD108E10880E8F80AC092A5
:1014C0000102D0920202E0920302F0920402C701EC
:1014D000B6019F77FF90EF90DF90CF90BF90AF90D5
:1014E0009F908F9008956093010270930202809301
:1014F0000302909304020895052E97FB1EF40094B6
:101500000E94930A57FD07D00E94AE0A07FC03D041
:101510004EF40C94930A50954095309521953F4F89
:101520004F4F5F4F089590958095709561957F4FCF
:101530008F4F9F4F08950E94D00AA59F900DB49F92
:10154000900DA49F800D911D11240895B7FF0C9458
:101550009B0A0E949B0A821B930B0895A1E21A2EFC
:10156000AA1BBB1BFD010DC0AA1FBB1FEE1FFF1F47
:10157000A217B307E407F50720F0A21BB30BE40B97
:10158000F50B661F771F881F991F1A9469F76095DE
:101590007095809590959B01AC01BD01CF01089598
:1015A000A29FB001B39FC001A39F700D811D1124A4
:1015B000911DB29F700D811D1124911D0895EE0F94
:1015C000FF1F881F8BBF0790F691E02D1994FB0138
:1015D000DC0104C08D910190801921F441505040EC
:0C15E000C8F7881B990B0895F894FFCF02
:1015EC0001010000000000000000000000000000ED
:1015FC00000000000000000000ED02570284023AD7
:10160C0003B5029302A7020D0A004172726962616E
:10161C00004162616A6F00436F6D696F204F626AAF
:10162C00657469766F730047414D4552204F56459E
:02163C0052005A
:00000001FF
